{
	"tests/wallet_test.sol": {
		"WalletTest": {
			"abi": [
				{
					"inputs": [],
					"stateMutability": "nonpayable",
					"type": "constructor"
				},
				{
					"inputs": [],
					"name": "beforeEach",
					"outputs": [],
					"stateMutability": "nonpayable",
					"type": "function"
				},
				{
					"inputs": [],
					"name": "testDrawFromWalletWithinLimit",
					"outputs": [],
					"stateMutability": "payable",
					"type": "function"
				},
				{
					"inputs": [],
					"name": "testSendFromWalletWithinLimit",
					"outputs": [],
					"stateMutability": "payable",
					"type": "function"
				},
				{
					"inputs": [],
					"name": "testSetUserBalance",
					"outputs": [],
					"stateMutability": "payable",
					"type": "function"
				},
				{
					"inputs": [],
					"name": "testUserReceivesEther",
					"outputs": [],
					"stateMutability": "payable",
					"type": "function"
				},
				{
					"inputs": [],
					"name": "walletInstance",
					"outputs": [
						{
							"internalType": "contract wallet",
							"name": "",
							"type": "address"
						}
					],
					"stateMutability": "view",
					"type": "function"
				}
			],
			"devdoc": {
				"kind": "dev",
				"methods": {},
				"version": 1
			},
			"evm": {
				"assembly": "    /* \"tests/wallet_test.sol\":267:4665  contract WalletTest {... */\n  mstore(0x40, 0x80)\n    /* \"tests/wallet_test.sol\":465:470  0x123 */\n  0x0123\n    /* \"tests/wallet_test.sol\":441:471  address user1 = address(0x123) */\n  0x02\n  exp(0x0100, 0x00)\n  dup2\n  sload\n  dup2\n  0xffffffffffffffffffffffffffffffffffffffff\n  mul\n  not\n  and\n  swap1\n  dup4\n  0xffffffffffffffffffffffffffffffffffffffff\n  and\n  mul\n  or\n  swap1\n  sstore\n  pop\n    /* \"tests/wallet_test.sol\":478:525  constructor() {... */\n  callvalue\n  dup1\n  iszero\n  tag_1\n  jumpi\n  0x00\n  dup1\n  revert\ntag_1:\n  pop\n    /* \"tests/wallet_test.sol\":508:518  msg.sender */\n  caller\n    /* \"tests/wallet_test.sol\":500:505  owner */\n  0x01\n  0x00\n    /* \"tests/wallet_test.sol\":500:518  owner = msg.sender */\n  0x0100\n  exp\n  dup2\n  sload\n  dup2\n  0xffffffffffffffffffffffffffffffffffffffff\n  mul\n  not\n  and\n  swap1\n  dup4\n  0xffffffffffffffffffffffffffffffffffffffff\n  and\n  mul\n  or\n  swap1\n  sstore\n  pop\n    /* \"tests/wallet_test.sol\":267:4665  contract WalletTest {... */\n  dataSize(sub_0)\n  dup1\n  dataOffset(sub_0)\n  0x00\n  codecopy\n  0x00\n  return\nstop\n\nsub_0: assembly {\n        /* \"tests/wallet_test.sol\":267:4665  contract WalletTest {... */\n      mstore(0x40, 0x80)\n      jumpi(tag_1, lt(calldatasize, 0x04))\n      shr(0xe0, calldataload(0x00))\n      dup1\n      0x05f6ac25\n      eq\n      tag_2\n      jumpi\n      dup1\n      0x361c78ea\n      eq\n      tag_3\n      jumpi\n      dup1\n      0x4b21878a\n      eq\n      tag_4\n      jumpi\n      dup1\n      0x6331e7d4\n      eq\n      tag_5\n      jumpi\n      dup1\n      0x8b8e5739\n      eq\n      tag_6\n      jumpi\n      dup1\n      0xd8bfc408\n      eq\n      tag_7\n      jumpi\n    tag_1:\n      0x00\n      dup1\n      revert\n        /* \"tests/wallet_test.sol\":294:322  Wallet public walletInstance */\n    tag_2:\n      callvalue\n      dup1\n      iszero\n      tag_8\n      jumpi\n      0x00\n      dup1\n      revert\n    tag_8:\n      pop\n      tag_9\n      tag_10\n      jump\t// in\n    tag_9:\n      mload(0x40)\n      tag_11\n      swap2\n      swap1\n      tag_12\n      jump\t// in\n    tag_11:\n      mload(0x40)\n      dup1\n      swap2\n      sub\n      swap1\n      return\n        /* \"tests/wallet_test.sol\":847:1143  function testSetUserBalance() public payable {... */\n    tag_3:\n      tag_13\n      tag_14\n      jump\t// in\n    tag_13:\n      stop\n        /* \"tests/wallet_test.sol\":3316:3926  function testSendFromWalletWithinLimit() public payable {... */\n    tag_4:\n      tag_15\n      tag_16\n      jump\t// in\n    tag_15:\n      stop\n        /* \"tests/wallet_test.sol\":660:735  function beforeEach() public {... */\n    tag_5:\n      callvalue\n      dup1\n      iszero\n      tag_17\n      jumpi\n      0x00\n      dup1\n      revert\n    tag_17:\n      pop\n      tag_18\n      tag_19\n      jump\t// in\n    tag_18:\n      stop\n        /* \"tests/wallet_test.sol\":4053:4663  function testUserReceivesEther() public payable {... */\n    tag_6:\n      tag_20\n      tag_21\n      jump\t// in\n    tag_20:\n      stop\n        /* \"tests/wallet_test.sol\":1262:1795  function testDrawFromWalletWithinLimit() public payable {... */\n    tag_7:\n      tag_22\n      tag_23\n      jump\t// in\n    tag_22:\n      stop\n        /* \"tests/wallet_test.sol\":294:322  Wallet public walletInstance */\n    tag_10:\n      0x00\n      dup1\n      sload\n      swap1\n      0x0100\n      exp\n      swap1\n      div\n      0xffffffffffffffffffffffffffffffffffffffff\n      and\n      dup2\n      jump\t// out\n        /* \"tests/wallet_test.sol\":847:1143  function testSetUserBalance() public payable {... */\n    tag_14:\n        /* \"tests/wallet_test.sol\":956:970  walletInstance */\n      0x00\n      dup1\n      sload\n      swap1\n      0x0100\n      exp\n      swap1\n      div\n      0xffffffffffffffffffffffffffffffffffffffff\n      and\n        /* \"tests/wallet_test.sol\":956:985  walletInstance.setUserBalance */\n      0xffffffffffffffffffffffffffffffffffffffff\n      and\n      0x76e747e8\n        /* \"tests/wallet_test.sol\":993:1000  1 ether */\n      0x0de0b6b3a7640000\n        /* \"tests/wallet_test.sol\":956:1003  walletInstance.setUserBalance{value: 1 ether}() */\n      mload(0x40)\n      dup3\n      0xffffffff\n      and\n      0xe0\n      shl\n      dup2\n      mstore\n      0x04\n      add\n      0x00\n      mload(0x40)\n      dup1\n      dup4\n      sub\n      dup2\n      dup6\n      dup9\n      dup1\n      extcodesize\n      iszero\n      dup1\n      iszero\n      tag_25\n      jumpi\n      0x00\n      dup1\n      revert\n    tag_25:\n      pop\n      gas\n      call\n      iszero\n      dup1\n      iszero\n      tag_27\n      jumpi\n      returndatasize\n      0x00\n      dup1\n      returndatacopy\n      revert(0x00, returndatasize)\n    tag_27:\n      pop\n      pop\n      pop\n      pop\n      pop\n        /* \"tests/wallet_test.sol\":1015:1030  uint256 balance */\n      0x00\n        /* \"tests/wallet_test.sol\":1036:1050  walletInstance */\n      dup1\n      0x00\n      swap1\n      sload\n      swap1\n      0x0100\n      exp\n      swap1\n      div\n      0xffffffffffffffffffffffffffffffffffffffff\n      and\n        /* \"tests/wallet_test.sol\":1036:1062  walletInstance.getUserInfo */\n      0xffffffffffffffffffffffffffffffffffffffff\n      and\n      0x6386c1c7\n        /* \"tests/wallet_test.sol\":1063:1068  owner */\n      0x01\n      0x00\n      swap1\n      sload\n      swap1\n      0x0100\n      exp\n      swap1\n      div\n      0xffffffffffffffffffffffffffffffffffffffff\n      and\n        /* \"tests/wallet_test.sol\":1036:1069  walletInstance.getUserInfo(owner) */\n      mload(0x40)\n      dup3\n      0xffffffff\n      and\n      0xe0\n      shl\n      dup2\n      mstore\n      0x04\n      add\n      tag_28\n      swap2\n      swap1\n      tag_29\n      jump\t// in\n    tag_28:\n      0x40\n      dup1\n      mload\n      dup1\n      dup4\n      sub\n      dup2\n      dup7\n      gas\n      staticcall\n      iszero\n      dup1\n      iszero\n      tag_31\n      jumpi\n      returndatasize\n      0x00\n      dup1\n      returndatacopy\n      revert(0x00, returndatasize)\n    tag_31:\n      pop\n      pop\n      pop\n      pop\n      mload(0x40)\n      returndatasize\n      not(0x1f)\n      0x1f\n      dup3\n      add\n      and\n      dup3\n      add\n      dup1\n      0x40\n      mstore\n      pop\n      dup2\n      add\n      swap1\n      tag_32\n      swap2\n      swap1\n      tag_33\n      jump\t// in\n    tag_32:\n        /* \"tests/wallet_test.sol\":1014:1069  (uint256 balance, ) = walletInstance.getUserInfo(owner) */\n      pop\n      swap1\n      pop\n        /* \"tests/wallet_test.sol\":1079:1085  Assert */\n      linkerSymbol(\"acbfb1c35000d78352310b16a054a6b1066124b9c6f054b10c085f549bff80c6\")\n        /* \"tests/wallet_test.sol\":1079:1091  Assert.equal */\n      0xabcd7960\n        /* \"tests/wallet_test.sol\":1092:1099  balance */\n      dup3\n        /* \"tests/wallet_test.sol\":1101:1108  1 ether */\n      0x0de0b6b3a7640000\n        /* \"tests/wallet_test.sol\":1079:1136  Assert.equal(balance, 1 ether, \"Balance should be 1 ETH\") */\n      mload(0x40)\n      dup4\n      0xffffffff\n      and\n      0xe0\n      shl\n      dup2\n      mstore\n      0x04\n      add\n      tag_34\n      swap3\n      swap2\n      swap1\n      tag_35\n      jump\t// in\n    tag_34:\n      0x20\n      mload(0x40)\n      dup1\n      dup4\n      sub\n      dup2\n      dup7\n      gas\n      delegatecall\n      iszero\n      dup1\n      iszero\n      tag_37\n      jumpi\n      returndatasize\n      0x00\n      dup1\n      returndatacopy\n      revert(0x00, returndatasize)\n    tag_37:\n      pop\n      pop\n      pop\n      pop\n      mload(0x40)\n      returndatasize\n      not(0x1f)\n      0x1f\n      dup3\n      add\n      and\n      dup3\n      add\n      dup1\n      0x40\n      mstore\n      pop\n      dup2\n      add\n      swap1\n      tag_38\n      swap2\n      swap1\n      tag_39\n      jump\t// in\n    tag_38:\n      pop\n        /* \"tests/wallet_test.sol\":892:1143  {... */\n      pop\n        /* \"tests/wallet_test.sol\":847:1143  function testSetUserBalance() public payable {... */\n      jump\t// out\n        /* \"tests/wallet_test.sol\":3316:3926  function testSendFromWalletWithinLimit() public payable {... */\n    tag_16:\n        /* \"tests/wallet_test.sol\":3382:3396  walletInstance */\n      0x00\n      dup1\n      sload\n      swap1\n      0x0100\n      exp\n      swap1\n      div\n      0xffffffffffffffffffffffffffffffffffffffff\n      and\n        /* \"tests/wallet_test.sol\":3382:3410  walletInstance.setMoneyLimit */\n      0xffffffffffffffffffffffffffffffffffffffff\n      and\n      0x44a320fd\n        /* \"tests/wallet_test.sol\":3411:3418  1 ether */\n      0x0de0b6b3a7640000\n        /* \"tests/wallet_test.sol\":3382:3419  walletInstance.setMoneyLimit(1 ether) */\n      mload(0x40)\n      dup3\n      0xffffffff\n      and\n      0xe0\n      shl\n      dup2\n      mstore\n      0x04\n      add\n      tag_41\n      swap2\n      swap1\n      tag_42\n      jump\t// in\n    tag_41:\n      0x00\n      mload(0x40)\n      dup1\n      dup4\n      sub\n      dup2\n      0x00\n      dup8\n      dup1\n      extcodesize\n      iszero\n      dup1\n      iszero\n      tag_43\n      jumpi\n      0x00\n      dup1\n      revert\n    tag_43:\n      pop\n      gas\n      call\n      iszero\n      dup1\n      iszero\n      tag_45\n      jumpi\n      returndatasize\n      0x00\n      dup1\n      returndatacopy\n      revert(0x00, returndatasize)\n    tag_45:\n      pop\n      pop\n      pop\n      pop\n        /* \"tests/wallet_test.sol\":3429:3443  walletInstance */\n      0x00\n      dup1\n      sload\n      swap1\n      0x0100\n      exp\n      swap1\n      div\n      0xffffffffffffffffffffffffffffffffffffffff\n      and\n        /* \"tests/wallet_test.sol\":3429:3458  walletInstance.setUserBalance */\n      0xffffffffffffffffffffffffffffffffffffffff\n      and\n      0x76e747e8\n        /* \"tests/wallet_test.sol\":3466:3473  2 ether */\n      0x1bc16d674ec80000\n        /* \"tests/wallet_test.sol\":3429:3476  walletInstance.setUserBalance{value: 2 ether}() */\n      mload(0x40)\n      dup3\n      0xffffffff\n      and\n      0xe0\n      shl\n      dup2\n      mstore\n      0x04\n      add\n      0x00\n      mload(0x40)\n      dup1\n      dup4\n      sub\n      dup2\n      dup6\n      dup9\n      dup1\n      extcodesize\n      iszero\n      dup1\n      iszero\n      tag_46\n      jumpi\n      0x00\n      dup1\n      revert\n    tag_46:\n      pop\n      gas\n      call\n      iszero\n      dup1\n      iszero\n      tag_48\n      jumpi\n      returndatasize\n      0x00\n      dup1\n      returndatacopy\n      revert(0x00, returndatasize)\n    tag_48:\n      pop\n      pop\n      pop\n      pop\n      pop\n        /* \"tests/wallet_test.sol\":3556:3570  walletInstance */\n      0x00\n      dup1\n      sload\n      swap1\n      0x0100\n      exp\n      swap1\n      div\n      0xffffffffffffffffffffffffffffffffffffffff\n      and\n        /* \"tests/wallet_test.sol\":3556:3585  walletInstance.sendFromWallet */\n      0xffffffffffffffffffffffffffffffffffffffff\n      and\n      0xb724de60\n        /* \"tests/wallet_test.sol\":3586:3591  user1 */\n      0x02\n      0x00\n      swap1\n      sload\n      swap1\n      0x0100\n      exp\n      swap1\n      div\n      0xffffffffffffffffffffffffffffffffffffffff\n      and\n        /* \"tests/wallet_test.sol\":3593:3600  1 ether */\n      0x0de0b6b3a7640000\n        /* \"tests/wallet_test.sol\":3556:3601  walletInstance.sendFromWallet(user1, 1 ether) */\n      mload(0x40)\n      dup4\n      0xffffffff\n      and\n      0xe0\n      shl\n      dup2\n      mstore\n      0x04\n      add\n      tag_49\n      swap3\n      swap2\n      swap1\n      tag_50\n      jump\t// in\n    tag_49:\n      0x00\n      mload(0x40)\n      dup1\n      dup4\n      sub\n      dup2\n      0x00\n      dup8\n      dup1\n      extcodesize\n      iszero\n      dup1\n      iszero\n      tag_51\n      jumpi\n      0x00\n      dup1\n      revert\n    tag_51:\n      pop\n      gas\n      call\n      iszero\n      dup1\n      iszero\n      tag_53\n      jumpi\n      returndatasize\n      0x00\n      dup1\n      returndatacopy\n      revert(0x00, returndatasize)\n    tag_53:\n      pop\n      pop\n      pop\n      pop\n        /* \"tests/wallet_test.sol\":3613:3633  uint256 balanceOwner */\n      0x00\n        /* \"tests/wallet_test.sol\":3639:3653  walletInstance */\n      dup1\n      0x00\n      swap1\n      sload\n      swap1\n      0x0100\n      exp\n      swap1\n      div\n      0xffffffffffffffffffffffffffffffffffffffff\n      and\n        /* \"tests/wallet_test.sol\":3639:3665  walletInstance.getUserInfo */\n      0xffffffffffffffffffffffffffffffffffffffff\n      and\n      0x6386c1c7\n        /* \"tests/wallet_test.sol\":3666:3671  owner */\n      0x01\n      0x00\n      swap1\n      sload\n      swap1\n      0x0100\n      exp\n      swap1\n      div\n      0xffffffffffffffffffffffffffffffffffffffff\n      and\n        /* \"tests/wallet_test.sol\":3639:3672  walletInstance.getUserInfo(owner) */\n      mload(0x40)\n      dup3\n      0xffffffff\n      and\n      0xe0\n      shl\n      dup2\n      mstore\n      0x04\n      add\n      tag_54\n      swap2\n      swap1\n      tag_29\n      jump\t// in\n    tag_54:\n      0x40\n      dup1\n      mload\n      dup1\n      dup4\n      sub\n      dup2\n      dup7\n      gas\n      staticcall\n      iszero\n      dup1\n      iszero\n      tag_56\n      jumpi\n      returndatasize\n      0x00\n      dup1\n      returndatacopy\n      revert(0x00, returndatasize)\n    tag_56:\n      pop\n      pop\n      pop\n      pop\n      mload(0x40)\n      returndatasize\n      not(0x1f)\n      0x1f\n      dup3\n      add\n      and\n      dup3\n      add\n      dup1\n      0x40\n      mstore\n      pop\n      dup2\n      add\n      swap1\n      tag_57\n      swap2\n      swap1\n      tag_33\n      jump\t// in\n    tag_57:\n        /* \"tests/wallet_test.sol\":3612:3672  (uint256 balanceOwner, ) = walletInstance.getUserInfo(owner) */\n      pop\n      swap1\n      pop\n        /* \"tests/wallet_test.sol\":3683:3703  uint256 balanceUser1 */\n      0x00\n        /* \"tests/wallet_test.sol\":3709:3723  walletInstance */\n      dup1\n      0x00\n      swap1\n      sload\n      swap1\n      0x0100\n      exp\n      swap1\n      div\n      0xffffffffffffffffffffffffffffffffffffffff\n      and\n        /* \"tests/wallet_test.sol\":3709:3735  walletInstance.getUserInfo */\n      0xffffffffffffffffffffffffffffffffffffffff\n      and\n      0x6386c1c7\n        /* \"tests/wallet_test.sol\":3736:3741  user1 */\n      0x02\n      0x00\n      swap1\n      sload\n      swap1\n      0x0100\n      exp\n      swap1\n      div\n      0xffffffffffffffffffffffffffffffffffffffff\n      and\n        /* \"tests/wallet_test.sol\":3709:3742  walletInstance.getUserInfo(user1) */\n      mload(0x40)\n      dup3\n      0xffffffff\n      and\n      0xe0\n      shl\n      dup2\n      mstore\n      0x04\n      add\n      tag_58\n      swap2\n      swap1\n      tag_29\n      jump\t// in\n    tag_58:\n      0x40\n      dup1\n      mload\n      dup1\n      dup4\n      sub\n      dup2\n      dup7\n      gas\n      staticcall\n      iszero\n      dup1\n      iszero\n      tag_60\n      jumpi\n      returndatasize\n      0x00\n      dup1\n      returndatacopy\n      revert(0x00, returndatasize)\n    tag_60:\n      pop\n      pop\n      pop\n      pop\n      mload(0x40)\n      returndatasize\n      not(0x1f)\n      0x1f\n      dup3\n      add\n      and\n      dup3\n      add\n      dup1\n      0x40\n      mstore\n      pop\n      dup2\n      add\n      swap1\n      tag_61\n      swap2\n      swap1\n      tag_33\n      jump\t// in\n    tag_61:\n        /* \"tests/wallet_test.sol\":3682:3742  (uint256 balanceUser1, ) = walletInstance.getUserInfo(user1) */\n      pop\n      swap1\n      pop\n        /* \"tests/wallet_test.sol\":3753:3759  Assert */\n      linkerSymbol(\"acbfb1c35000d78352310b16a054a6b1066124b9c6f054b10c085f549bff80c6\")\n        /* \"tests/wallet_test.sol\":3753:3765  Assert.equal */\n      0xabcd7960\n        /* \"tests/wallet_test.sol\":3766:3778  balanceOwner */\n      dup4\n        /* \"tests/wallet_test.sol\":3780:3787  1 ether */\n      0x0de0b6b3a7640000\n        /* \"tests/wallet_test.sol\":3753:3835  Assert.equal(balanceOwner, 1 ether, \"Owner balance should be 1 ETH after sending\") */\n      mload(0x40)\n      dup4\n      0xffffffff\n      and\n      0xe0\n      shl\n      dup2\n      mstore\n      0x04\n      add\n      tag_62\n      swap3\n      swap2\n      swap1\n      tag_63\n      jump\t// in\n    tag_62:\n      0x20\n      mload(0x40)\n      dup1\n      dup4\n      sub\n      dup2\n      dup7\n      gas\n      delegatecall\n      iszero\n      dup1\n      iszero\n      tag_65\n      jumpi\n      returndatasize\n      0x00\n      dup1\n      returndatacopy\n      revert(0x00, returndatasize)\n    tag_65:\n      pop\n      pop\n      pop\n      pop\n      mload(0x40)\n      returndatasize\n      not(0x1f)\n      0x1f\n      dup3\n      add\n      and\n      dup3\n      add\n      dup1\n      0x40\n      mstore\n      pop\n      dup2\n      add\n      swap1\n      tag_66\n      swap2\n      swap1\n      tag_39\n      jump\t// in\n    tag_66:\n      pop\n        /* \"tests/wallet_test.sol\":3845:3851  Assert */\n      linkerSymbol(\"acbfb1c35000d78352310b16a054a6b1066124b9c6f054b10c085f549bff80c6\")\n        /* \"tests/wallet_test.sol\":3845:3857  Assert.equal */\n      0xabcd7960\n        /* \"tests/wallet_test.sol\":3858:3870  balanceUser1 */\n      dup3\n        /* \"tests/wallet_test.sol\":3872:3873  0 */\n      0x00\n        /* \"tests/wallet_test.sol\":3845:3919  Assert.equal(balanceUser1, 0, \"User1 balance in contract should remain 0\") */\n      mload(0x40)\n      dup4\n      0xffffffff\n      and\n      0xe0\n      shl\n      dup2\n      mstore\n      0x04\n      add\n      tag_67\n      swap3\n      swap2\n      swap1\n      tag_68\n      jump\t// in\n    tag_67:\n      0x20\n      mload(0x40)\n      dup1\n      dup4\n      sub\n      dup2\n      dup7\n      gas\n      delegatecall\n      iszero\n      dup1\n      iszero\n      tag_70\n      jumpi\n      returndatasize\n      0x00\n      dup1\n      returndatacopy\n      revert(0x00, returndatasize)\n    tag_70:\n      pop\n      pop\n      pop\n      pop\n      mload(0x40)\n      returndatasize\n      not(0x1f)\n      0x1f\n      dup3\n      add\n      and\n      dup3\n      add\n      dup1\n      0x40\n      mstore\n      pop\n      dup2\n      add\n      swap1\n      tag_71\n      swap2\n      swap1\n      tag_39\n      jump\t// in\n    tag_71:\n      pop\n        /* \"tests/wallet_test.sol\":3372:3926  {... */\n      pop\n      pop\n        /* \"tests/wallet_test.sol\":3316:3926  function testSendFromWalletWithinLimit() public payable {... */\n      jump\t// out\n        /* \"tests/wallet_test.sol\":660:735  function beforeEach() public {... */\n    tag_19:\n        /* \"tests/wallet_test.sol\":716:728  new Wallet() */\n      mload(0x40)\n      tag_73\n      swap1\n      tag_74\n      jump\t// in\n    tag_73:\n      mload(0x40)\n      dup1\n      swap2\n      sub\n      swap1\n      0x00\n      create\n      dup1\n      iszero\n      dup1\n      iszero\n      tag_75\n      jumpi\n      returndatasize\n      0x00\n      dup1\n      returndatacopy\n      revert(0x00, returndatasize)\n    tag_75:\n      pop\n        /* \"tests/wallet_test.sol\":699:713  walletInstance */\n      0x00\n      dup1\n        /* \"tests/wallet_test.sol\":699:728  walletInstance = new Wallet() */\n      0x0100\n      exp\n      dup2\n      sload\n      dup2\n      0xffffffffffffffffffffffffffffffffffffffff\n      mul\n      not\n      and\n      swap1\n      dup4\n      0xffffffffffffffffffffffffffffffffffffffff\n      and\n      mul\n      or\n      swap1\n      sstore\n      pop\n        /* \"tests/wallet_test.sol\":660:735  function beforeEach() public {... */\n      jump\t// out\n        /* \"tests/wallet_test.sol\":4053:4663  function testUserReceivesEther() public payable {... */\n    tag_21:\n        /* \"tests/wallet_test.sol\":4111:4125  walletInstance */\n      0x00\n      dup1\n      sload\n      swap1\n      0x0100\n      exp\n      swap1\n      div\n      0xffffffffffffffffffffffffffffffffffffffff\n      and\n        /* \"tests/wallet_test.sol\":4111:4139  walletInstance.setMoneyLimit */\n      0xffffffffffffffffffffffffffffffffffffffff\n      and\n      0x44a320fd\n        /* \"tests/wallet_test.sol\":4140:4147  1 ether */\n      0x0de0b6b3a7640000\n        /* \"tests/wallet_test.sol\":4111:4148  walletInstance.setMoneyLimit(1 ether) */\n      mload(0x40)\n      dup3\n      0xffffffff\n      and\n      0xe0\n      shl\n      dup2\n      mstore\n      0x04\n      add\n      tag_77\n      swap2\n      swap1\n      tag_42\n      jump\t// in\n    tag_77:\n      0x00\n      mload(0x40)\n      dup1\n      dup4\n      sub\n      dup2\n      0x00\n      dup8\n      dup1\n      extcodesize\n      iszero\n      dup1\n      iszero\n      tag_78\n      jumpi\n      0x00\n      dup1\n      revert\n    tag_78:\n      pop\n      gas\n      call\n      iszero\n      dup1\n      iszero\n      tag_80\n      jumpi\n      returndatasize\n      0x00\n      dup1\n      returndatacopy\n      revert(0x00, returndatasize)\n    tag_80:\n      pop\n      pop\n      pop\n      pop\n        /* \"tests/wallet_test.sol\":4158:4172  walletInstance */\n      0x00\n      dup1\n      sload\n      swap1\n      0x0100\n      exp\n      swap1\n      div\n      0xffffffffffffffffffffffffffffffffffffffff\n      and\n        /* \"tests/wallet_test.sol\":4158:4187  walletInstance.setUserBalance */\n      0xffffffffffffffffffffffffffffffffffffffff\n      and\n      0x76e747e8\n        /* \"tests/wallet_test.sol\":4195:4202  1 ether */\n      0x0de0b6b3a7640000\n        /* \"tests/wallet_test.sol\":4158:4205  walletInstance.setUserBalance{value: 1 ether}() */\n      mload(0x40)\n      dup3\n      0xffffffff\n      and\n      0xe0\n      shl\n      dup2\n      mstore\n      0x04\n      add\n      0x00\n      mload(0x40)\n      dup1\n      dup4\n      sub\n      dup2\n      dup6\n      dup9\n      dup1\n      extcodesize\n      iszero\n      dup1\n      iszero\n      tag_81\n      jumpi\n      0x00\n      dup1\n      revert\n    tag_81:\n      pop\n      gas\n      call\n      iszero\n      dup1\n      iszero\n      tag_83\n      jumpi\n      returndatasize\n      0x00\n      dup1\n      returndatacopy\n      revert(0x00, returndatasize)\n    tag_83:\n      pop\n      pop\n      pop\n      pop\n      pop\n        /* \"tests/wallet_test.sol\":4265:4287  uint256 initialBalance */\n      0x00\n        /* \"tests/wallet_test.sol\":4290:4295  user1 */\n      0x02\n      0x00\n      swap1\n      sload\n      swap1\n      0x0100\n      exp\n      swap1\n      div\n      0xffffffffffffffffffffffffffffffffffffffff\n      and\n        /* \"tests/wallet_test.sol\":4290:4303  user1.balance */\n      0xffffffffffffffffffffffffffffffffffffffff\n      and\n      balance\n        /* \"tests/wallet_test.sol\":4265:4303  uint256 initialBalance = user1.balance */\n      swap1\n      pop\n        /* \"tests/wallet_test.sol\":4383:4397  walletInstance */\n      0x00\n      dup1\n      sload\n      swap1\n      0x0100\n      exp\n      swap1\n      div\n      0xffffffffffffffffffffffffffffffffffffffff\n      and\n        /* \"tests/wallet_test.sol\":4383:4412  walletInstance.sendFromWallet */\n      0xffffffffffffffffffffffffffffffffffffffff\n      and\n      0xb724de60\n        /* \"tests/wallet_test.sol\":4413:4418  user1 */\n      0x02\n      0x00\n      swap1\n      sload\n      swap1\n      0x0100\n      exp\n      swap1\n      div\n      0xffffffffffffffffffffffffffffffffffffffff\n      and\n        /* \"tests/wallet_test.sol\":4420:4427  1 ether */\n      0x0de0b6b3a7640000\n        /* \"tests/wallet_test.sol\":4383:4428  walletInstance.sendFromWallet(user1, 1 ether) */\n      mload(0x40)\n      dup4\n      0xffffffff\n      and\n      0xe0\n      shl\n      dup2\n      mstore\n      0x04\n      add\n      tag_84\n      swap3\n      swap2\n      swap1\n      tag_50\n      jump\t// in\n    tag_84:\n      0x00\n      mload(0x40)\n      dup1\n      dup4\n      sub\n      dup2\n      0x00\n      dup8\n      dup1\n      extcodesize\n      iszero\n      dup1\n      iszero\n      tag_85\n      jumpi\n      0x00\n      dup1\n      revert\n    tag_85:\n      pop\n      gas\n      call\n      iszero\n      dup1\n      iszero\n      tag_87\n      jumpi\n      returndatasize\n      0x00\n      dup1\n      returndatacopy\n      revert(0x00, returndatasize)\n    tag_87:\n      pop\n      pop\n      pop\n      pop\n        /* \"tests/wallet_test.sol\":4528:4548  uint256 finalBalance */\n      0x00\n        /* \"tests/wallet_test.sol\":4551:4556  user1 */\n      0x02\n      0x00\n      swap1\n      sload\n      swap1\n      0x0100\n      exp\n      swap1\n      div\n      0xffffffffffffffffffffffffffffffffffffffff\n      and\n        /* \"tests/wallet_test.sol\":4551:4564  user1.balance */\n      0xffffffffffffffffffffffffffffffffffffffff\n      and\n      balance\n        /* \"tests/wallet_test.sol\":4528:4564  uint256 finalBalance = user1.balance */\n      swap1\n      pop\n        /* \"tests/wallet_test.sol\":4574:4580  Assert */\n      linkerSymbol(\"acbfb1c35000d78352310b16a054a6b1066124b9c6f054b10c085f549bff80c6\")\n        /* \"tests/wallet_test.sol\":4574:4586  Assert.equal */\n      0xabcd7960\n        /* \"tests/wallet_test.sol\":4602:4616  initialBalance */\n      dup4\n        /* \"tests/wallet_test.sol\":4587:4599  finalBalance */\n      dup4\n        /* \"tests/wallet_test.sol\":4587:4616  finalBalance - initialBalance */\n      tag_88\n      swap2\n      swap1\n      tag_89\n      jump\t// in\n    tag_88:\n        /* \"tests/wallet_test.sol\":4618:4625  1 ether */\n      0x0de0b6b3a7640000\n        /* \"tests/wallet_test.sol\":4574:4656  Assert.equal(finalBalance - initialBalance, 1 ether, \"User1 should receive 1 ETH\") */\n      mload(0x40)\n      dup4\n      0xffffffff\n      and\n      0xe0\n      shl\n      dup2\n      mstore\n      0x04\n      add\n      tag_90\n      swap3\n      swap2\n      swap1\n      tag_91\n      jump\t// in\n    tag_90:\n      0x20\n      mload(0x40)\n      dup1\n      dup4\n      sub\n      dup2\n      dup7\n      gas\n      delegatecall\n      iszero\n      dup1\n      iszero\n      tag_93\n      jumpi\n      returndatasize\n      0x00\n      dup1\n      returndatacopy\n      revert(0x00, returndatasize)\n    tag_93:\n      pop\n      pop\n      pop\n      pop\n      mload(0x40)\n      returndatasize\n      not(0x1f)\n      0x1f\n      dup3\n      add\n      and\n      dup3\n      add\n      dup1\n      0x40\n      mstore\n      pop\n      dup2\n      add\n      swap1\n      tag_94\n      swap2\n      swap1\n      tag_39\n      jump\t// in\n    tag_94:\n      pop\n        /* \"tests/wallet_test.sol\":4101:4663  {... */\n      pop\n      pop\n        /* \"tests/wallet_test.sol\":4053:4663  function testUserReceivesEther() public payable {... */\n      jump\t// out\n        /* \"tests/wallet_test.sol\":1262:1795  function testDrawFromWalletWithinLimit() public payable {... */\n    tag_23:\n        /* \"tests/wallet_test.sol\":1385:1399  walletInstance */\n      0x00\n      dup1\n      sload\n      swap1\n      0x0100\n      exp\n      swap1\n      div\n      0xffffffffffffffffffffffffffffffffffffffff\n      and\n        /* \"tests/wallet_test.sol\":1385:1413  walletInstance.setMoneyLimit */\n      0xffffffffffffffffffffffffffffffffffffffff\n      and\n      0x44a320fd\n        /* \"tests/wallet_test.sol\":1414:1423  0.5 ether */\n      0x06f05b59d3b20000\n        /* \"tests/wallet_test.sol\":1385:1424  walletInstance.setMoneyLimit(0.5 ether) */\n      mload(0x40)\n      dup3\n      0xffffffff\n      and\n      0xe0\n      shl\n      dup2\n      mstore\n      0x04\n      add\n      tag_96\n      swap2\n      swap1\n      tag_97\n      jump\t// in\n    tag_96:\n      0x00\n      mload(0x40)\n      dup1\n      dup4\n      sub\n      dup2\n      0x00\n      dup8\n      dup1\n      extcodesize\n      iszero\n      dup1\n      iszero\n      tag_98\n      jumpi\n      0x00\n      dup1\n      revert\n    tag_98:\n      pop\n      gas\n      call\n      iszero\n      dup1\n      iszero\n      tag_100\n      jumpi\n      returndatasize\n      0x00\n      dup1\n      returndatacopy\n      revert(0x00, returndatasize)\n    tag_100:\n      pop\n      pop\n      pop\n      pop\n        /* \"tests/wallet_test.sol\":1489:1503  walletInstance */\n      0x00\n      dup1\n      sload\n      swap1\n      0x0100\n      exp\n      swap1\n      div\n      0xffffffffffffffffffffffffffffffffffffffff\n      and\n        /* \"tests/wallet_test.sol\":1489:1518  walletInstance.setUserBalance */\n      0xffffffffffffffffffffffffffffffffffffffff\n      and\n      0x76e747e8\n        /* \"tests/wallet_test.sol\":1526:1533  1 ether */\n      0x0de0b6b3a7640000\n        /* \"tests/wallet_test.sol\":1489:1536  walletInstance.setUserBalance{value: 1 ether}() */\n      mload(0x40)\n      dup3\n      0xffffffff\n      and\n      0xe0\n      shl\n      dup2\n      mstore\n      0x04\n      add\n      0x00\n      mload(0x40)\n      dup1\n      dup4\n      sub\n      dup2\n      dup6\n      dup9\n      dup1\n      extcodesize\n      iszero\n      dup1\n      iszero\n      tag_101\n      jumpi\n      0x00\n      dup1\n      revert\n    tag_101:\n      pop\n      gas\n      call\n      iszero\n      dup1\n      iszero\n      tag_103\n      jumpi\n      returndatasize\n      0x00\n      dup1\n      returndatacopy\n      revert(0x00, returndatasize)\n    tag_103:\n      pop\n      pop\n      pop\n      pop\n      pop\n        /* \"tests/wallet_test.sol\":1594:1608  walletInstance */\n      0x00\n      dup1\n      sload\n      swap1\n      0x0100\n      exp\n      swap1\n      div\n      0xffffffffffffffffffffffffffffffffffffffff\n      and\n        /* \"tests/wallet_test.sol\":1594:1623  walletInstance.drawFromWallet */\n      0xffffffffffffffffffffffffffffffffffffffff\n      and\n      0x067cdf19\n        /* \"tests/wallet_test.sol\":1624:1633  0.5 ether */\n      0x06f05b59d3b20000\n        /* \"tests/wallet_test.sol\":1594:1634  walletInstance.drawFromWallet(0.5 ether) */\n      mload(0x40)\n      dup3\n      0xffffffff\n      and\n      0xe0\n      shl\n      dup2\n      mstore\n      0x04\n      add\n      tag_104\n      swap2\n      swap1\n      tag_97\n      jump\t// in\n    tag_104:\n      0x00\n      mload(0x40)\n      dup1\n      dup4\n      sub\n      dup2\n      0x00\n      dup8\n      dup1\n      extcodesize\n      iszero\n      dup1\n      iszero\n      tag_105\n      jumpi\n      0x00\n      dup1\n      revert\n    tag_105:\n      pop\n      gas\n      call\n      iszero\n      dup1\n      iszero\n      tag_107\n      jumpi\n      returndatasize\n      0x00\n      dup1\n      returndatacopy\n      revert(0x00, returndatasize)\n    tag_107:\n      pop\n      pop\n      pop\n      pop\n        /* \"tests/wallet_test.sol\":1646:1661  uint256 balance */\n      0x00\n        /* \"tests/wallet_test.sol\":1667:1681  walletInstance */\n      dup1\n      0x00\n      swap1\n      sload\n      swap1\n      0x0100\n      exp\n      swap1\n      div\n      0xffffffffffffffffffffffffffffffffffffffff\n      and\n        /* \"tests/wallet_test.sol\":1667:1693  walletInstance.getUserInfo */\n      0xffffffffffffffffffffffffffffffffffffffff\n      and\n      0x6386c1c7\n        /* \"tests/wallet_test.sol\":1694:1699  owner */\n      0x01\n      0x00\n      swap1\n      sload\n      swap1\n      0x0100\n      exp\n      swap1\n      div\n      0xffffffffffffffffffffffffffffffffffffffff\n      and\n        /* \"tests/wallet_test.sol\":1667:1700  walletInstance.getUserInfo(owner) */\n      mload(0x40)\n      dup3\n      0xffffffff\n      and\n      0xe0\n      shl\n      dup2\n      mstore\n      0x04\n      add\n      tag_108\n      swap2\n      swap1\n      tag_29\n      jump\t// in\n    tag_108:\n      0x40\n      dup1\n      mload\n      dup1\n      dup4\n      sub\n      dup2\n      dup7\n      gas\n      staticcall\n      iszero\n      dup1\n      iszero\n      tag_110\n      jumpi\n      returndatasize\n      0x00\n      dup1\n      returndatacopy\n      revert(0x00, returndatasize)\n    tag_110:\n      pop\n      pop\n      pop\n      pop\n      mload(0x40)\n      returndatasize\n      not(0x1f)\n      0x1f\n      dup3\n      add\n      and\n      dup3\n      add\n      dup1\n      0x40\n      mstore\n      pop\n      dup2\n      add\n      swap1\n      tag_111\n      swap2\n      swap1\n      tag_33\n      jump\t// in\n    tag_111:\n        /* \"tests/wallet_test.sol\":1645:1700  (uint256 balance, ) = walletInstance.getUserInfo(owner) */\n      pop\n      swap1\n      pop\n        /* \"tests/wallet_test.sol\":1710:1716  Assert */\n      linkerSymbol(\"acbfb1c35000d78352310b16a054a6b1066124b9c6f054b10c085f549bff80c6\")\n        /* \"tests/wallet_test.sol\":1710:1722  Assert.equal */\n      0xabcd7960\n        /* \"tests/wallet_test.sol\":1723:1730  balance */\n      dup3\n        /* \"tests/wallet_test.sol\":1732:1741  0.5 ether */\n      0x06f05b59d3b20000\n        /* \"tests/wallet_test.sol\":1710:1788  Assert.equal(balance, 0.5 ether, \"Balance should be 0.5 ETH after withdrawal\") */\n      mload(0x40)\n      dup4\n      0xffffffff\n      and\n      0xe0\n      shl\n      dup2\n      mstore\n      0x04\n      add\n      tag_112\n      swap3\n      swap2\n      swap1\n      tag_113\n      jump\t// in\n    tag_112:\n      0x20\n      mload(0x40)\n      dup1\n      dup4\n      sub\n      dup2\n      dup7\n      gas\n      delegatecall\n      iszero\n      dup1\n      iszero\n      tag_115\n      jumpi\n      returndatasize\n      0x00\n      dup1\n      returndatacopy\n      revert(0x00, returndatasize)\n    tag_115:\n      pop\n      pop\n      pop\n      pop\n      mload(0x40)\n      returndatasize\n      not(0x1f)\n      0x1f\n      dup3\n      add\n      and\n      dup3\n      add\n      dup1\n      0x40\n      mstore\n      pop\n      dup2\n      add\n      swap1\n      tag_116\n      swap2\n      swap1\n      tag_39\n      jump\t// in\n    tag_116:\n      pop\n        /* \"tests/wallet_test.sol\":1318:1795  {... */\n      pop\n        /* \"tests/wallet_test.sol\":1262:1795  function testDrawFromWalletWithinLimit() public payable {... */\n      jump\t// out\n    tag_74:\n      dataSize(sub_0)\n      dup1\n      dataOffset(sub_0)\n      dup4\n      codecopy\n      add\n      swap1\n      jump\t// out\n        /* \"#utility.yul\":7:133   */\n    tag_117:\n        /* \"#utility.yul\":44:51   */\n      0x00\n        /* \"#utility.yul\":84:126   */\n      0xffffffffffffffffffffffffffffffffffffffff\n        /* \"#utility.yul\":77:82   */\n      dup3\n        /* \"#utility.yul\":73:127   */\n      and\n        /* \"#utility.yul\":62:127   */\n      swap1\n      pop\n        /* \"#utility.yul\":7:133   */\n      swap2\n      swap1\n      pop\n      jump\t// out\n        /* \"#utility.yul\":139:199   */\n    tag_118:\n        /* \"#utility.yul\":167:170   */\n      0x00\n        /* \"#utility.yul\":188:193   */\n      dup2\n        /* \"#utility.yul\":181:193   */\n      swap1\n      pop\n        /* \"#utility.yul\":139:199   */\n      swap2\n      swap1\n      pop\n      jump\t// out\n        /* \"#utility.yul\":205:347   */\n    tag_119:\n        /* \"#utility.yul\":255:264   */\n      0x00\n        /* \"#utility.yul\":288:341   */\n      tag_162\n        /* \"#utility.yul\":306:340   */\n      tag_163\n        /* \"#utility.yul\":315:339   */\n      tag_164\n        /* \"#utility.yul\":333:338   */\n      dup5\n        /* \"#utility.yul\":315:339   */\n      tag_117\n      jump\t// in\n    tag_164:\n        /* \"#utility.yul\":306:340   */\n      tag_118\n      jump\t// in\n    tag_163:\n        /* \"#utility.yul\":288:341   */\n      tag_117\n      jump\t// in\n    tag_162:\n        /* \"#utility.yul\":275:341   */\n      swap1\n      pop\n        /* \"#utility.yul\":205:347   */\n      swap2\n      swap1\n      pop\n      jump\t// out\n        /* \"#utility.yul\":353:479   */\n    tag_120:\n        /* \"#utility.yul\":403:412   */\n      0x00\n        /* \"#utility.yul\":436:473   */\n      tag_166\n        /* \"#utility.yul\":467:472   */\n      dup3\n        /* \"#utility.yul\":436:473   */\n      tag_119\n      jump\t// in\n    tag_166:\n        /* \"#utility.yul\":423:473   */\n      swap1\n      pop\n        /* \"#utility.yul\":353:479   */\n      swap2\n      swap1\n      pop\n      jump\t// out\n        /* \"#utility.yul\":485:625   */\n    tag_121:\n        /* \"#utility.yul\":549:558   */\n      0x00\n        /* \"#utility.yul\":582:619   */\n      tag_168\n        /* \"#utility.yul\":613:618   */\n      dup3\n        /* \"#utility.yul\":582:619   */\n      tag_120\n      jump\t// in\n    tag_168:\n        /* \"#utility.yul\":569:619   */\n      swap1\n      pop\n        /* \"#utility.yul\":485:625   */\n      swap2\n      swap1\n      pop\n      jump\t// out\n        /* \"#utility.yul\":631:790   */\n    tag_122:\n        /* \"#utility.yul\":732:783   */\n      tag_170\n        /* \"#utility.yul\":777:782   */\n      dup2\n        /* \"#utility.yul\":732:783   */\n      tag_121\n      jump\t// in\n    tag_170:\n        /* \"#utility.yul\":727:730   */\n      dup3\n        /* \"#utility.yul\":720:784   */\n      mstore\n        /* \"#utility.yul\":631:790   */\n      pop\n      pop\n      jump\t// out\n        /* \"#utility.yul\":796:1046   */\n    tag_12:\n        /* \"#utility.yul\":903:907   */\n      0x00\n        /* \"#utility.yul\":941:943   */\n      0x20\n        /* \"#utility.yul\":930:939   */\n      dup3\n        /* \"#utility.yul\":926:944   */\n      add\n        /* \"#utility.yul\":918:944   */\n      swap1\n      pop\n        /* \"#utility.yul\":954:1039   */\n      tag_172\n        /* \"#utility.yul\":1036:1037   */\n      0x00\n        /* \"#utility.yul\":1025:1034   */\n      dup4\n        /* \"#utility.yul\":1021:1038   */\n      add\n        /* \"#utility.yul\":1012:1018   */\n      dup5\n        /* \"#utility.yul\":954:1039   */\n      tag_122\n      jump\t// in\n    tag_172:\n        /* \"#utility.yul\":796:1046   */\n      swap3\n      swap2\n      pop\n      pop\n      jump\t// out\n        /* \"#utility.yul\":1052:1148   */\n    tag_123:\n        /* \"#utility.yul\":1089:1096   */\n      0x00\n        /* \"#utility.yul\":1118:1142   */\n      tag_174\n        /* \"#utility.yul\":1136:1141   */\n      dup3\n        /* \"#utility.yul\":1118:1142   */\n      tag_117\n      jump\t// in\n    tag_174:\n        /* \"#utility.yul\":1107:1142   */\n      swap1\n      pop\n        /* \"#utility.yul\":1052:1148   */\n      swap2\n      swap1\n      pop\n      jump\t// out\n        /* \"#utility.yul\":1154:1272   */\n    tag_124:\n        /* \"#utility.yul\":1241:1265   */\n      tag_176\n        /* \"#utility.yul\":1259:1264   */\n      dup2\n        /* \"#utility.yul\":1241:1265   */\n      tag_123\n      jump\t// in\n    tag_176:\n        /* \"#utility.yul\":1236:1239   */\n      dup3\n        /* \"#utility.yul\":1229:1266   */\n      mstore\n        /* \"#utility.yul\":1154:1272   */\n      pop\n      pop\n      jump\t// out\n        /* \"#utility.yul\":1278:1500   */\n    tag_29:\n        /* \"#utility.yul\":1371:1375   */\n      0x00\n        /* \"#utility.yul\":1409:1411   */\n      0x20\n        /* \"#utility.yul\":1398:1407   */\n      dup3\n        /* \"#utility.yul\":1394:1412   */\n      add\n        /* \"#utility.yul\":1386:1412   */\n      swap1\n      pop\n        /* \"#utility.yul\":1422:1493   */\n      tag_178\n        /* \"#utility.yul\":1490:1491   */\n      0x00\n        /* \"#utility.yul\":1479:1488   */\n      dup4\n        /* \"#utility.yul\":1475:1492   */\n      add\n        /* \"#utility.yul\":1466:1472   */\n      dup5\n        /* \"#utility.yul\":1422:1493   */\n      tag_124\n      jump\t// in\n    tag_178:\n        /* \"#utility.yul\":1278:1500   */\n      swap3\n      swap2\n      pop\n      pop\n      jump\t// out\n        /* \"#utility.yul\":1587:1704   */\n    tag_126:\n        /* \"#utility.yul\":1696:1697   */\n      0x00\n        /* \"#utility.yul\":1693:1694   */\n      dup1\n        /* \"#utility.yul\":1686:1698   */\n      revert\n        /* \"#utility.yul\":1833:1910   */\n    tag_128:\n        /* \"#utility.yul\":1870:1877   */\n      0x00\n        /* \"#utility.yul\":1899:1904   */\n      dup2\n        /* \"#utility.yul\":1888:1904   */\n      swap1\n      pop\n        /* \"#utility.yul\":1833:1910   */\n      swap2\n      swap1\n      pop\n      jump\t// out\n        /* \"#utility.yul\":1916:2038   */\n    tag_129:\n        /* \"#utility.yul\":1989:2013   */\n      tag_184\n        /* \"#utility.yul\":2007:2012   */\n      dup2\n        /* \"#utility.yul\":1989:2013   */\n      tag_128\n      jump\t// in\n    tag_184:\n        /* \"#utility.yul\":1982:1987   */\n      dup2\n        /* \"#utility.yul\":1979:2014   */\n      eq\n        /* \"#utility.yul\":1969:2032   */\n      tag_185\n      jumpi\n        /* \"#utility.yul\":2028:2029   */\n      0x00\n        /* \"#utility.yul\":2025:2026   */\n      dup1\n        /* \"#utility.yul\":2018:2030   */\n      revert\n        /* \"#utility.yul\":1969:2032   */\n    tag_185:\n        /* \"#utility.yul\":1916:2038   */\n      pop\n      jump\t// out\n        /* \"#utility.yul\":2044:2187   */\n    tag_130:\n        /* \"#utility.yul\":2101:2106   */\n      0x00\n        /* \"#utility.yul\":2132:2138   */\n      dup2\n        /* \"#utility.yul\":2126:2139   */\n      mload\n        /* \"#utility.yul\":2117:2139   */\n      swap1\n      pop\n        /* \"#utility.yul\":2148:2181   */\n      tag_187\n        /* \"#utility.yul\":2175:2180   */\n      dup2\n        /* \"#utility.yul\":2148:2181   */\n      tag_129\n      jump\t// in\n    tag_187:\n        /* \"#utility.yul\":2044:2187   */\n      swap3\n      swap2\n      pop\n      pop\n      jump\t// out\n        /* \"#utility.yul\":2193:2700   */\n    tag_33:\n        /* \"#utility.yul\":2272:2278   */\n      0x00\n        /* \"#utility.yul\":2280:2286   */\n      dup1\n        /* \"#utility.yul\":2329:2331   */\n      0x40\n        /* \"#utility.yul\":2317:2326   */\n      dup4\n        /* \"#utility.yul\":2308:2315   */\n      dup6\n        /* \"#utility.yul\":2304:2327   */\n      sub\n        /* \"#utility.yul\":2300:2332   */\n      slt\n        /* \"#utility.yul\":2297:2416   */\n      iszero\n      tag_189\n      jumpi\n        /* \"#utility.yul\":2335:2414   */\n      tag_190\n      tag_126\n      jump\t// in\n    tag_190:\n        /* \"#utility.yul\":2297:2416   */\n    tag_189:\n        /* \"#utility.yul\":2455:2456   */\n      0x00\n        /* \"#utility.yul\":2480:2544   */\n      tag_191\n        /* \"#utility.yul\":2536:2543   */\n      dup6\n        /* \"#utility.yul\":2527:2533   */\n      dup3\n        /* \"#utility.yul\":2516:2525   */\n      dup7\n        /* \"#utility.yul\":2512:2534   */\n      add\n        /* \"#utility.yul\":2480:2544   */\n      tag_130\n      jump\t// in\n    tag_191:\n        /* \"#utility.yul\":2470:2544   */\n      swap3\n      pop\n        /* \"#utility.yul\":2426:2554   */\n      pop\n        /* \"#utility.yul\":2593:2595   */\n      0x20\n        /* \"#utility.yul\":2619:2683   */\n      tag_192\n        /* \"#utility.yul\":2675:2682   */\n      dup6\n        /* \"#utility.yul\":2666:2672   */\n      dup3\n        /* \"#utility.yul\":2655:2664   */\n      dup7\n        /* \"#utility.yul\":2651:2673   */\n      add\n        /* \"#utility.yul\":2619:2683   */\n      tag_130\n      jump\t// in\n    tag_192:\n        /* \"#utility.yul\":2609:2683   */\n      swap2\n      pop\n        /* \"#utility.yul\":2564:2693   */\n      pop\n        /* \"#utility.yul\":2193:2700   */\n      swap3\n      pop\n      swap3\n      swap1\n      pop\n      jump\t// out\n        /* \"#utility.yul\":2706:2832   */\n    tag_131:\n        /* \"#utility.yul\":2801:2825   */\n      tag_194\n        /* \"#utility.yul\":2819:2824   */\n      dup2\n        /* \"#utility.yul\":2801:2825   */\n      tag_128\n      jump\t// in\n    tag_194:\n        /* \"#utility.yul\":2796:2799   */\n      dup3\n        /* \"#utility.yul\":2789:2826   */\n      mstore\n        /* \"#utility.yul\":2706:2832   */\n      pop\n      pop\n      jump\t// out\n        /* \"#utility.yul\":2838:2941   */\n    tag_132:\n        /* \"#utility.yul\":2901:2908   */\n      0x00\n        /* \"#utility.yul\":2930:2935   */\n      dup2\n        /* \"#utility.yul\":2919:2935   */\n      swap1\n      pop\n        /* \"#utility.yul\":2838:2941   */\n      swap2\n      swap1\n      pop\n      jump\t// out\n        /* \"#utility.yul\":2947:3141   */\n    tag_133:\n        /* \"#utility.yul\":3023:3032   */\n      0x00\n        /* \"#utility.yul\":3056:3135   */\n      tag_197\n        /* \"#utility.yul\":3074:3134   */\n      tag_198\n        /* \"#utility.yul\":3083:3133   */\n      tag_199\n        /* \"#utility.yul\":3127:3132   */\n      dup5\n        /* \"#utility.yul\":3083:3133   */\n      tag_132\n      jump\t// in\n    tag_199:\n        /* \"#utility.yul\":3074:3134   */\n      tag_118\n      jump\t// in\n    tag_198:\n        /* \"#utility.yul\":3056:3135   */\n      tag_128\n      jump\t// in\n    tag_197:\n        /* \"#utility.yul\":3043:3135   */\n      swap1\n      pop\n        /* \"#utility.yul\":2947:3141   */\n      swap2\n      swap1\n      pop\n      jump\t// out\n        /* \"#utility.yul\":3147:3338   */\n    tag_134:\n        /* \"#utility.yul\":3268:3331   */\n      tag_201\n        /* \"#utility.yul\":3325:3330   */\n      dup2\n        /* \"#utility.yul\":3268:3331   */\n      tag_133\n      jump\t// in\n    tag_201:\n        /* \"#utility.yul\":3263:3266   */\n      dup3\n        /* \"#utility.yul\":3256:3332   */\n      mstore\n        /* \"#utility.yul\":3147:3338   */\n      pop\n      pop\n      jump\t// out\n        /* \"#utility.yul\":3344:3521   */\n    tag_135:\n        /* \"#utility.yul\":3436:3447   */\n      0x00\n        /* \"#utility.yul\":3470:3476   */\n      dup3\n        /* \"#utility.yul\":3465:3468   */\n      dup3\n        /* \"#utility.yul\":3458:3477   */\n      mstore\n        /* \"#utility.yul\":3510:3514   */\n      0x20\n        /* \"#utility.yul\":3505:3508   */\n      dup3\n        /* \"#utility.yul\":3501:3515   */\n      add\n        /* \"#utility.yul\":3486:3515   */\n      swap1\n      pop\n        /* \"#utility.yul\":3344:3521   */\n      swap3\n      swap2\n      pop\n      pop\n      jump\t// out\n        /* \"#utility.yul\":3527:3700   */\n    tag_136:\n        /* \"#utility.yul\":3667:3692   */\n      0x42616c616e63652073686f756c64206265203120455448000000000000000000\n        /* \"#utility.yul\":3663:3664   */\n      0x00\n        /* \"#utility.yul\":3655:3661   */\n      dup3\n        /* \"#utility.yul\":3651:3665   */\n      add\n        /* \"#utility.yul\":3644:3693   */\n      mstore\n        /* \"#utility.yul\":3527:3700   */\n      pop\n      jump\t// out\n        /* \"#utility.yul\":3706:4088   */\n    tag_137:\n        /* \"#utility.yul\":3856:3859   */\n      0x00\n        /* \"#utility.yul\":3877:3952   */\n      tag_205\n        /* \"#utility.yul\":3949:3951   */\n      0x17\n        /* \"#utility.yul\":3944:3947   */\n      dup4\n        /* \"#utility.yul\":3877:3952   */\n      tag_135\n      jump\t// in\n    tag_205:\n        /* \"#utility.yul\":3870:3952   */\n      swap2\n      pop\n        /* \"#utility.yul\":3961:4054   */\n      tag_206\n        /* \"#utility.yul\":4050:4053   */\n      dup3\n        /* \"#utility.yul\":3961:4054   */\n      tag_136\n      jump\t// in\n    tag_206:\n        /* \"#utility.yul\":4079:4081   */\n      0x20\n        /* \"#utility.yul\":4074:4077   */\n      dup3\n        /* \"#utility.yul\":4070:4082   */\n      add\n        /* \"#utility.yul\":4063:4082   */\n      swap1\n      pop\n        /* \"#utility.yul\":3706:4088   */\n      swap2\n      swap1\n      pop\n      jump\t// out\n        /* \"#utility.yul\":4094:4817   */\n    tag_35:\n        /* \"#utility.yul\":4350:4354   */\n      0x00\n        /* \"#utility.yul\":4388:4390   */\n      0x60\n        /* \"#utility.yul\":4377:4386   */\n      dup3\n        /* \"#utility.yul\":4373:4391   */\n      add\n        /* \"#utility.yul\":4365:4391   */\n      swap1\n      pop\n        /* \"#utility.yul\":4401:4480   */\n      tag_208\n        /* \"#utility.yul\":4477:4478   */\n      0x00\n        /* \"#utility.yul\":4466:4475   */\n      dup4\n        /* \"#utility.yul\":4462:4479   */\n      add\n        /* \"#utility.yul\":4453:4459   */\n      dup6\n        /* \"#utility.yul\":4401:4480   */\n      tag_131\n      jump\t// in\n    tag_208:\n        /* \"#utility.yul\":4490:4596   */\n      tag_209\n        /* \"#utility.yul\":4592:4594   */\n      0x20\n        /* \"#utility.yul\":4581:4590   */\n      dup4\n        /* \"#utility.yul\":4577:4595   */\n      add\n        /* \"#utility.yul\":4568:4574   */\n      dup5\n        /* \"#utility.yul\":4490:4596   */\n      tag_134\n      jump\t// in\n    tag_209:\n        /* \"#utility.yul\":4643:4652   */\n      dup2\n        /* \"#utility.yul\":4637:4641   */\n      dup2\n        /* \"#utility.yul\":4633:4653   */\n      sub\n        /* \"#utility.yul\":4628:4630   */\n      0x40\n        /* \"#utility.yul\":4617:4626   */\n      dup4\n        /* \"#utility.yul\":4613:4631   */\n      add\n        /* \"#utility.yul\":4606:4654   */\n      mstore\n        /* \"#utility.yul\":4671:4810   */\n      tag_210\n        /* \"#utility.yul\":4805:4809   */\n      dup2\n        /* \"#utility.yul\":4671:4810   */\n      tag_137\n      jump\t// in\n    tag_210:\n        /* \"#utility.yul\":4663:4810   */\n      swap1\n      pop\n        /* \"#utility.yul\":4094:4817   */\n      swap4\n      swap3\n      pop\n      pop\n      pop\n      jump\t// out\n        /* \"#utility.yul\":4823:4913   */\n    tag_138:\n        /* \"#utility.yul\":4857:4864   */\n      0x00\n        /* \"#utility.yul\":4900:4905   */\n      dup2\n        /* \"#utility.yul\":4893:4906   */\n      iszero\n        /* \"#utility.yul\":4886:4907   */\n      iszero\n        /* \"#utility.yul\":4875:4907   */\n      swap1\n      pop\n        /* \"#utility.yul\":4823:4913   */\n      swap2\n      swap1\n      pop\n      jump\t// out\n        /* \"#utility.yul\":4919:5035   */\n    tag_139:\n        /* \"#utility.yul\":4989:5010   */\n      tag_213\n        /* \"#utility.yul\":5004:5009   */\n      dup2\n        /* \"#utility.yul\":4989:5010   */\n      tag_138\n      jump\t// in\n    tag_213:\n        /* \"#utility.yul\":4982:4987   */\n      dup2\n        /* \"#utility.yul\":4979:5011   */\n      eq\n        /* \"#utility.yul\":4969:5029   */\n      tag_214\n      jumpi\n        /* \"#utility.yul\":5025:5026   */\n      0x00\n        /* \"#utility.yul\":5022:5023   */\n      dup1\n        /* \"#utility.yul\":5015:5027   */\n      revert\n        /* \"#utility.yul\":4969:5029   */\n    tag_214:\n        /* \"#utility.yul\":4919:5035   */\n      pop\n      jump\t// out\n        /* \"#utility.yul\":5041:5178   */\n    tag_140:\n        /* \"#utility.yul\":5095:5100   */\n      0x00\n        /* \"#utility.yul\":5126:5132   */\n      dup2\n        /* \"#utility.yul\":5120:5133   */\n      mload\n        /* \"#utility.yul\":5111:5133   */\n      swap1\n      pop\n        /* \"#utility.yul\":5142:5172   */\n      tag_216\n        /* \"#utility.yul\":5166:5171   */\n      dup2\n        /* \"#utility.yul\":5142:5172   */\n      tag_139\n      jump\t// in\n    tag_216:\n        /* \"#utility.yul\":5041:5178   */\n      swap3\n      swap2\n      pop\n      pop\n      jump\t// out\n        /* \"#utility.yul\":5184:5529   */\n    tag_39:\n        /* \"#utility.yul\":5251:5257   */\n      0x00\n        /* \"#utility.yul\":5300:5302   */\n      0x20\n        /* \"#utility.yul\":5288:5297   */\n      dup3\n        /* \"#utility.yul\":5279:5286   */\n      dup5\n        /* \"#utility.yul\":5275:5298   */\n      sub\n        /* \"#utility.yul\":5271:5303   */\n      slt\n        /* \"#utility.yul\":5268:5387   */\n      iszero\n      tag_218\n      jumpi\n        /* \"#utility.yul\":5306:5385   */\n      tag_219\n      tag_126\n      jump\t// in\n    tag_219:\n        /* \"#utility.yul\":5268:5387   */\n    tag_218:\n        /* \"#utility.yul\":5426:5427   */\n      0x00\n        /* \"#utility.yul\":5451:5512   */\n      tag_220\n        /* \"#utility.yul\":5504:5511   */\n      dup5\n        /* \"#utility.yul\":5495:5501   */\n      dup3\n        /* \"#utility.yul\":5484:5493   */\n      dup6\n        /* \"#utility.yul\":5480:5502   */\n      add\n        /* \"#utility.yul\":5451:5512   */\n      tag_140\n      jump\t// in\n    tag_220:\n        /* \"#utility.yul\":5441:5512   */\n      swap2\n      pop\n        /* \"#utility.yul\":5397:5522   */\n      pop\n        /* \"#utility.yul\":5184:5529   */\n      swap3\n      swap2\n      pop\n      pop\n      jump\t// out\n        /* \"#utility.yul\":5535:5718   */\n    tag_141:\n        /* \"#utility.yul\":5648:5711   */\n      tag_222\n        /* \"#utility.yul\":5705:5710   */\n      dup2\n        /* \"#utility.yul\":5648:5711   */\n      tag_133\n      jump\t// in\n    tag_222:\n        /* \"#utility.yul\":5643:5646   */\n      dup3\n        /* \"#utility.yul\":5636:5712   */\n      mstore\n        /* \"#utility.yul\":5535:5718   */\n      pop\n      pop\n      jump\t// out\n        /* \"#utility.yul\":5724:5998   */\n    tag_42:\n        /* \"#utility.yul\":5843:5847   */\n      0x00\n        /* \"#utility.yul\":5881:5883   */\n      0x20\n        /* \"#utility.yul\":5870:5879   */\n      dup3\n        /* \"#utility.yul\":5866:5884   */\n      add\n        /* \"#utility.yul\":5858:5884   */\n      swap1\n      pop\n        /* \"#utility.yul\":5894:5991   */\n      tag_224\n        /* \"#utility.yul\":5988:5989   */\n      0x00\n        /* \"#utility.yul\":5977:5986   */\n      dup4\n        /* \"#utility.yul\":5973:5990   */\n      add\n        /* \"#utility.yul\":5964:5970   */\n      dup5\n        /* \"#utility.yul\":5894:5991   */\n      tag_141\n      jump\t// in\n    tag_224:\n        /* \"#utility.yul\":5724:5998   */\n      swap3\n      swap2\n      pop\n      pop\n      jump\t// out\n        /* \"#utility.yul\":6004:6388   */\n    tag_50:\n        /* \"#utility.yul\":6151:6155   */\n      0x00\n        /* \"#utility.yul\":6189:6191   */\n      0x40\n        /* \"#utility.yul\":6178:6187   */\n      dup3\n        /* \"#utility.yul\":6174:6192   */\n      add\n        /* \"#utility.yul\":6166:6192   */\n      swap1\n      pop\n        /* \"#utility.yul\":6202:6273   */\n      tag_226\n        /* \"#utility.yul\":6270:6271   */\n      0x00\n        /* \"#utility.yul\":6259:6268   */\n      dup4\n        /* \"#utility.yul\":6255:6272   */\n      add\n        /* \"#utility.yul\":6246:6252   */\n      dup6\n        /* \"#utility.yul\":6202:6273   */\n      tag_124\n      jump\t// in\n    tag_226:\n        /* \"#utility.yul\":6283:6381   */\n      tag_227\n        /* \"#utility.yul\":6377:6379   */\n      0x20\n        /* \"#utility.yul\":6366:6375   */\n      dup4\n        /* \"#utility.yul\":6362:6380   */\n      add\n        /* \"#utility.yul\":6353:6359   */\n      dup5\n        /* \"#utility.yul\":6283:6381   */\n      tag_141\n      jump\t// in\n    tag_227:\n        /* \"#utility.yul\":6004:6388   */\n      swap4\n      swap3\n      pop\n      pop\n      pop\n      jump\t// out\n        /* \"#utility.yul\":6394:6624   */\n    tag_142:\n        /* \"#utility.yul\":6534:6568   */\n      0x4f776e65722062616c616e63652073686f756c64206265203120455448206166\n        /* \"#utility.yul\":6530:6531   */\n      0x00\n        /* \"#utility.yul\":6522:6528   */\n      dup3\n        /* \"#utility.yul\":6518:6532   */\n      add\n        /* \"#utility.yul\":6511:6569   */\n      mstore\n        /* \"#utility.yul\":6603:6616   */\n      0x7465722073656e64696e67000000000000000000000000000000000000000000\n        /* \"#utility.yul\":6598:6600   */\n      0x20\n        /* \"#utility.yul\":6590:6596   */\n      dup3\n        /* \"#utility.yul\":6586:6601   */\n      add\n        /* \"#utility.yul\":6579:6617   */\n      mstore\n        /* \"#utility.yul\":6394:6624   */\n      pop\n      jump\t// out\n        /* \"#utility.yul\":6630:7012   */\n    tag_143:\n        /* \"#utility.yul\":6780:6783   */\n      0x00\n        /* \"#utility.yul\":6801:6876   */\n      tag_230\n        /* \"#utility.yul\":6873:6875   */\n      0x2b\n        /* \"#utility.yul\":6868:6871   */\n      dup4\n        /* \"#utility.yul\":6801:6876   */\n      tag_135\n      jump\t// in\n    tag_230:\n        /* \"#utility.yul\":6794:6876   */\n      swap2\n      pop\n        /* \"#utility.yul\":6885:6978   */\n      tag_231\n        /* \"#utility.yul\":6974:6977   */\n      dup3\n        /* \"#utility.yul\":6885:6978   */\n      tag_142\n      jump\t// in\n    tag_231:\n        /* \"#utility.yul\":7003:7005   */\n      0x40\n        /* \"#utility.yul\":6998:7001   */\n      dup3\n        /* \"#utility.yul\":6994:7006   */\n      add\n        /* \"#utility.yul\":6987:7006   */\n      swap1\n      pop\n        /* \"#utility.yul\":6630:7012   */\n      swap2\n      swap1\n      pop\n      jump\t// out\n        /* \"#utility.yul\":7018:7741   */\n    tag_63:\n        /* \"#utility.yul\":7274:7278   */\n      0x00\n        /* \"#utility.yul\":7312:7314   */\n      0x60\n        /* \"#utility.yul\":7301:7310   */\n      dup3\n        /* \"#utility.yul\":7297:7315   */\n      add\n        /* \"#utility.yul\":7289:7315   */\n      swap1\n      pop\n        /* \"#utility.yul\":7325:7404   */\n      tag_233\n        /* \"#utility.yul\":7401:7402   */\n      0x00\n        /* \"#utility.yul\":7390:7399   */\n      dup4\n        /* \"#utility.yul\":7386:7403   */\n      add\n        /* \"#utility.yul\":7377:7383   */\n      dup6\n        /* \"#utility.yul\":7325:7404   */\n      tag_131\n      jump\t// in\n    tag_233:\n        /* \"#utility.yul\":7414:7520   */\n      tag_234\n        /* \"#utility.yul\":7516:7518   */\n      0x20\n        /* \"#utility.yul\":7505:7514   */\n      dup4\n        /* \"#utility.yul\":7501:7519   */\n      add\n        /* \"#utility.yul\":7492:7498   */\n      dup5\n        /* \"#utility.yul\":7414:7520   */\n      tag_134\n      jump\t// in\n    tag_234:\n        /* \"#utility.yul\":7567:7576   */\n      dup2\n        /* \"#utility.yul\":7561:7565   */\n      dup2\n        /* \"#utility.yul\":7557:7577   */\n      sub\n        /* \"#utility.yul\":7552:7554   */\n      0x40\n        /* \"#utility.yul\":7541:7550   */\n      dup4\n        /* \"#utility.yul\":7537:7555   */\n      add\n        /* \"#utility.yul\":7530:7578   */\n      mstore\n        /* \"#utility.yul\":7595:7734   */\n      tag_235\n        /* \"#utility.yul\":7729:7733   */\n      dup2\n        /* \"#utility.yul\":7595:7734   */\n      tag_143\n      jump\t// in\n    tag_235:\n        /* \"#utility.yul\":7587:7734   */\n      swap1\n      pop\n        /* \"#utility.yul\":7018:7741   */\n      swap4\n      swap3\n      pop\n      pop\n      pop\n      jump\t// out\n        /* \"#utility.yul\":7747:7832   */\n    tag_144:\n        /* \"#utility.yul\":7792:7799   */\n      0x00\n        /* \"#utility.yul\":7821:7826   */\n      dup2\n        /* \"#utility.yul\":7810:7826   */\n      swap1\n      pop\n        /* \"#utility.yul\":7747:7832   */\n      swap2\n      swap1\n      pop\n      jump\t// out\n        /* \"#utility.yul\":7838:7996   */\n    tag_145:\n        /* \"#utility.yul\":7896:7905   */\n      0x00\n        /* \"#utility.yul\":7929:7990   */\n      tag_238\n        /* \"#utility.yul\":7947:7989   */\n      tag_239\n        /* \"#utility.yul\":7956:7988   */\n      tag_240\n        /* \"#utility.yul\":7982:7987   */\n      dup5\n        /* \"#utility.yul\":7956:7988   */\n      tag_144\n      jump\t// in\n    tag_240:\n        /* \"#utility.yul\":7947:7989   */\n      tag_118\n      jump\t// in\n    tag_239:\n        /* \"#utility.yul\":7929:7990   */\n      tag_128\n      jump\t// in\n    tag_238:\n        /* \"#utility.yul\":7916:7990   */\n      swap1\n      pop\n        /* \"#utility.yul\":7838:7996   */\n      swap2\n      swap1\n      pop\n      jump\t// out\n        /* \"#utility.yul\":8002:8157   */\n    tag_146:\n        /* \"#utility.yul\":8105:8150   */\n      tag_242\n        /* \"#utility.yul\":8144:8149   */\n      dup2\n        /* \"#utility.yul\":8105:8150   */\n      tag_145\n      jump\t// in\n    tag_242:\n        /* \"#utility.yul\":8100:8103   */\n      dup3\n        /* \"#utility.yul\":8093:8151   */\n      mstore\n        /* \"#utility.yul\":8002:8157   */\n      pop\n      pop\n      jump\t// out\n        /* \"#utility.yul\":8163:8391   */\n    tag_147:\n        /* \"#utility.yul\":8303:8337   */\n      0x55736572312062616c616e636520696e20636f6e74726163742073686f756c64\n        /* \"#utility.yul\":8299:8300   */\n      0x00\n        /* \"#utility.yul\":8291:8297   */\n      dup3\n        /* \"#utility.yul\":8287:8301   */\n      add\n        /* \"#utility.yul\":8280:8338   */\n      mstore\n        /* \"#utility.yul\":8372:8383   */\n      0x2072656d61696e20300000000000000000000000000000000000000000000000\n        /* \"#utility.yul\":8367:8369   */\n      0x20\n        /* \"#utility.yul\":8359:8365   */\n      dup3\n        /* \"#utility.yul\":8355:8370   */\n      add\n        /* \"#utility.yul\":8348:8384   */\n      mstore\n        /* \"#utility.yul\":8163:8391   */\n      pop\n      jump\t// out\n        /* \"#utility.yul\":8397:8779   */\n    tag_148:\n        /* \"#utility.yul\":8547:8550   */\n      0x00\n        /* \"#utility.yul\":8568:8643   */\n      tag_245\n        /* \"#utility.yul\":8640:8642   */\n      0x29\n        /* \"#utility.yul\":8635:8638   */\n      dup4\n        /* \"#utility.yul\":8568:8643   */\n      tag_135\n      jump\t// in\n    tag_245:\n        /* \"#utility.yul\":8561:8643   */\n      swap2\n      pop\n        /* \"#utility.yul\":8652:8745   */\n      tag_246\n        /* \"#utility.yul\":8741:8744   */\n      dup3\n        /* \"#utility.yul\":8652:8745   */\n      tag_147\n      jump\t// in\n    tag_246:\n        /* \"#utility.yul\":8770:8772   */\n      0x40\n        /* \"#utility.yul\":8765:8768   */\n      dup3\n        /* \"#utility.yul\":8761:8773   */\n      add\n        /* \"#utility.yul\":8754:8773   */\n      swap1\n      pop\n        /* \"#utility.yul\":8397:8779   */\n      swap2\n      swap1\n      pop\n      jump\t// out\n        /* \"#utility.yul\":8785:9472   */\n    tag_68:\n        /* \"#utility.yul\":9023:9027   */\n      0x00\n        /* \"#utility.yul\":9061:9063   */\n      0x60\n        /* \"#utility.yul\":9050:9059   */\n      dup3\n        /* \"#utility.yul\":9046:9064   */\n      add\n        /* \"#utility.yul\":9038:9064   */\n      swap1\n      pop\n        /* \"#utility.yul\":9074:9153   */\n      tag_248\n        /* \"#utility.yul\":9150:9151   */\n      0x00\n        /* \"#utility.yul\":9139:9148   */\n      dup4\n        /* \"#utility.yul\":9135:9152   */\n      add\n        /* \"#utility.yul\":9126:9132   */\n      dup6\n        /* \"#utility.yul\":9074:9153   */\n      tag_131\n      jump\t// in\n    tag_248:\n        /* \"#utility.yul\":9163:9251   */\n      tag_249\n        /* \"#utility.yul\":9247:9249   */\n      0x20\n        /* \"#utility.yul\":9236:9245   */\n      dup4\n        /* \"#utility.yul\":9232:9250   */\n      add\n        /* \"#utility.yul\":9223:9229   */\n      dup5\n        /* \"#utility.yul\":9163:9251   */\n      tag_146\n      jump\t// in\n    tag_249:\n        /* \"#utility.yul\":9298:9307   */\n      dup2\n        /* \"#utility.yul\":9292:9296   */\n      dup2\n        /* \"#utility.yul\":9288:9308   */\n      sub\n        /* \"#utility.yul\":9283:9285   */\n      0x40\n        /* \"#utility.yul\":9272:9281   */\n      dup4\n        /* \"#utility.yul\":9268:9286   */\n      add\n        /* \"#utility.yul\":9261:9309   */\n      mstore\n        /* \"#utility.yul\":9326:9465   */\n      tag_250\n        /* \"#utility.yul\":9460:9464   */\n      dup2\n        /* \"#utility.yul\":9326:9465   */\n      tag_148\n      jump\t// in\n    tag_250:\n        /* \"#utility.yul\":9318:9465   */\n      swap1\n      pop\n        /* \"#utility.yul\":8785:9472   */\n      swap4\n      swap3\n      pop\n      pop\n      pop\n      jump\t// out\n        /* \"#utility.yul\":9478:9658   */\n    tag_149:\n        /* \"#utility.yul\":9526:9603   */\n      0x4e487b7100000000000000000000000000000000000000000000000000000000\n        /* \"#utility.yul\":9523:9524   */\n      0x00\n        /* \"#utility.yul\":9516:9604   */\n      mstore\n        /* \"#utility.yul\":9623:9627   */\n      0x11\n        /* \"#utility.yul\":9620:9621   */\n      0x04\n        /* \"#utility.yul\":9613:9628   */\n      mstore\n        /* \"#utility.yul\":9647:9651   */\n      0x24\n        /* \"#utility.yul\":9644:9645   */\n      0x00\n        /* \"#utility.yul\":9637:9652   */\n      revert\n        /* \"#utility.yul\":9664:9858   */\n    tag_89:\n        /* \"#utility.yul\":9704:9708   */\n      0x00\n        /* \"#utility.yul\":9724:9744   */\n      tag_253\n        /* \"#utility.yul\":9742:9743   */\n      dup3\n        /* \"#utility.yul\":9724:9744   */\n      tag_128\n      jump\t// in\n    tag_253:\n        /* \"#utility.yul\":9719:9744   */\n      swap2\n      pop\n        /* \"#utility.yul\":9758:9778   */\n      tag_254\n        /* \"#utility.yul\":9776:9777   */\n      dup4\n        /* \"#utility.yul\":9758:9778   */\n      tag_128\n      jump\t// in\n    tag_254:\n        /* \"#utility.yul\":9753:9778   */\n      swap3\n      pop\n        /* \"#utility.yul\":9802:9803   */\n      dup3\n        /* \"#utility.yul\":9799:9800   */\n      dup3\n        /* \"#utility.yul\":9795:9804   */\n      sub\n        /* \"#utility.yul\":9787:9804   */\n      swap1\n      pop\n        /* \"#utility.yul\":9826:9827   */\n      dup2\n        /* \"#utility.yul\":9820:9824   */\n      dup2\n        /* \"#utility.yul\":9817:9828   */\n      gt\n        /* \"#utility.yul\":9814:9851   */\n      iszero\n      tag_255\n      jumpi\n        /* \"#utility.yul\":9831:9849   */\n      tag_256\n      tag_149\n      jump\t// in\n    tag_256:\n        /* \"#utility.yul\":9814:9851   */\n    tag_255:\n        /* \"#utility.yul\":9664:9858   */\n      swap3\n      swap2\n      pop\n      pop\n      jump\t// out\n        /* \"#utility.yul\":9864:10040   */\n    tag_150:\n        /* \"#utility.yul\":10004:10032   */\n      0x55736572312073686f756c642072656365697665203120455448000000000000\n        /* \"#utility.yul\":10000:10001   */\n      0x00\n        /* \"#utility.yul\":9992:9998   */\n      dup3\n        /* \"#utility.yul\":9988:10002   */\n      add\n        /* \"#utility.yul\":9981:10033   */\n      mstore\n        /* \"#utility.yul\":9864:10040   */\n      pop\n      jump\t// out\n        /* \"#utility.yul\":10046:10428   */\n    tag_151:\n        /* \"#utility.yul\":10196:10199   */\n      0x00\n        /* \"#utility.yul\":10217:10292   */\n      tag_259\n        /* \"#utility.yul\":10289:10291   */\n      0x1a\n        /* \"#utility.yul\":10284:10287   */\n      dup4\n        /* \"#utility.yul\":10217:10292   */\n      tag_135\n      jump\t// in\n    tag_259:\n        /* \"#utility.yul\":10210:10292   */\n      swap2\n      pop\n        /* \"#utility.yul\":10301:10394   */\n      tag_260\n        /* \"#utility.yul\":10390:10393   */\n      dup3\n        /* \"#utility.yul\":10301:10394   */\n      tag_150\n      jump\t// in\n    tag_260:\n        /* \"#utility.yul\":10419:10421   */\n      0x20\n        /* \"#utility.yul\":10414:10417   */\n      dup3\n        /* \"#utility.yul\":10410:10422   */\n      add\n        /* \"#utility.yul\":10403:10422   */\n      swap1\n      pop\n        /* \"#utility.yul\":10046:10428   */\n      swap2\n      swap1\n      pop\n      jump\t// out\n        /* \"#utility.yul\":10434:11157   */\n    tag_91:\n        /* \"#utility.yul\":10690:10694   */\n      0x00\n        /* \"#utility.yul\":10728:10730   */\n      0x60\n        /* \"#utility.yul\":10717:10726   */\n      dup3\n        /* \"#utility.yul\":10713:10731   */\n      add\n        /* \"#utility.yul\":10705:10731   */\n      swap1\n      pop\n        /* \"#utility.yul\":10741:10820   */\n      tag_262\n        /* \"#utility.yul\":10817:10818   */\n      0x00\n        /* \"#utility.yul\":10806:10815   */\n      dup4\n        /* \"#utility.yul\":10802:10819   */\n      add\n        /* \"#utility.yul\":10793:10799   */\n      dup6\n        /* \"#utility.yul\":10741:10820   */\n      tag_131\n      jump\t// in\n    tag_262:\n        /* \"#utility.yul\":10830:10936   */\n      tag_263\n        /* \"#utility.yul\":10932:10934   */\n      0x20\n        /* \"#utility.yul\":10921:10930   */\n      dup4\n        /* \"#utility.yul\":10917:10935   */\n      add\n        /* \"#utility.yul\":10908:10914   */\n      dup5\n        /* \"#utility.yul\":10830:10936   */\n      tag_134\n      jump\t// in\n    tag_263:\n        /* \"#utility.yul\":10983:10992   */\n      dup2\n        /* \"#utility.yul\":10977:10981   */\n      dup2\n        /* \"#utility.yul\":10973:10993   */\n      sub\n        /* \"#utility.yul\":10968:10970   */\n      0x40\n        /* \"#utility.yul\":10957:10966   */\n      dup4\n        /* \"#utility.yul\":10953:10971   */\n      add\n        /* \"#utility.yul\":10946:10994   */\n      mstore\n        /* \"#utility.yul\":11011:11150   */\n      tag_264\n        /* \"#utility.yul\":11145:11149   */\n      dup2\n        /* \"#utility.yul\":11011:11150   */\n      tag_151\n      jump\t// in\n    tag_264:\n        /* \"#utility.yul\":11003:11150   */\n      swap1\n      pop\n        /* \"#utility.yul\":10434:11157   */\n      swap4\n      swap3\n      pop\n      pop\n      pop\n      jump\t// out\n        /* \"#utility.yul\":11163:11265   */\n    tag_152:\n        /* \"#utility.yul\":11225:11232   */\n      0x00\n        /* \"#utility.yul\":11254:11259   */\n      dup2\n        /* \"#utility.yul\":11243:11259   */\n      swap1\n      pop\n        /* \"#utility.yul\":11163:11265   */\n      swap2\n      swap1\n      pop\n      jump\t// out\n        /* \"#utility.yul\":11271:11463   */\n    tag_153:\n        /* \"#utility.yul\":11346:11355   */\n      0x00\n        /* \"#utility.yul\":11379:11457   */\n      tag_267\n        /* \"#utility.yul\":11397:11456   */\n      tag_268\n        /* \"#utility.yul\":11406:11455   */\n      tag_269\n        /* \"#utility.yul\":11449:11454   */\n      dup5\n        /* \"#utility.yul\":11406:11455   */\n      tag_152\n      jump\t// in\n    tag_269:\n        /* \"#utility.yul\":11397:11456   */\n      tag_118\n      jump\t// in\n    tag_268:\n        /* \"#utility.yul\":11379:11457   */\n      tag_128\n      jump\t// in\n    tag_267:\n        /* \"#utility.yul\":11366:11457   */\n      swap1\n      pop\n        /* \"#utility.yul\":11271:11463   */\n      swap2\n      swap1\n      pop\n      jump\t// out\n        /* \"#utility.yul\":11469:11650   */\n    tag_154:\n        /* \"#utility.yul\":11581:11643   */\n      tag_271\n        /* \"#utility.yul\":11637:11642   */\n      dup2\n        /* \"#utility.yul\":11581:11643   */\n      tag_153\n      jump\t// in\n    tag_271:\n        /* \"#utility.yul\":11576:11579   */\n      dup3\n        /* \"#utility.yul\":11569:11644   */\n      mstore\n        /* \"#utility.yul\":11469:11650   */\n      pop\n      pop\n      jump\t// out\n        /* \"#utility.yul\":11656:11928   */\n    tag_97:\n        /* \"#utility.yul\":11774:11778   */\n      0x00\n        /* \"#utility.yul\":11812:11814   */\n      0x20\n        /* \"#utility.yul\":11801:11810   */\n      dup3\n        /* \"#utility.yul\":11797:11815   */\n      add\n        /* \"#utility.yul\":11789:11815   */\n      swap1\n      pop\n        /* \"#utility.yul\":11825:11921   */\n      tag_273\n        /* \"#utility.yul\":11918:11919   */\n      0x00\n        /* \"#utility.yul\":11907:11916   */\n      dup4\n        /* \"#utility.yul\":11903:11920   */\n      add\n        /* \"#utility.yul\":11894:11900   */\n      dup5\n        /* \"#utility.yul\":11825:11921   */\n      tag_154\n      jump\t// in\n    tag_273:\n        /* \"#utility.yul\":11656:11928   */\n      swap3\n      swap2\n      pop\n      pop\n      jump\t// out\n        /* \"#utility.yul\":11934:12123   */\n    tag_155:\n        /* \"#utility.yul\":12054:12116   */\n      tag_275\n        /* \"#utility.yul\":12110:12115   */\n      dup2\n        /* \"#utility.yul\":12054:12116   */\n      tag_153\n      jump\t// in\n    tag_275:\n        /* \"#utility.yul\":12049:12052   */\n      dup3\n        /* \"#utility.yul\":12042:12117   */\n      mstore\n        /* \"#utility.yul\":11934:12123   */\n      pop\n      pop\n      jump\t// out\n        /* \"#utility.yul\":12129:12358   */\n    tag_156:\n        /* \"#utility.yul\":12269:12303   */\n      0x42616c616e63652073686f756c6420626520302e352045544820616674657220\n        /* \"#utility.yul\":12265:12266   */\n      0x00\n        /* \"#utility.yul\":12257:12263   */\n      dup3\n        /* \"#utility.yul\":12253:12267   */\n      add\n        /* \"#utility.yul\":12246:12304   */\n      mstore\n        /* \"#utility.yul\":12338:12350   */\n      0x7769746864726177616c00000000000000000000000000000000000000000000\n        /* \"#utility.yul\":12333:12335   */\n      0x20\n        /* \"#utility.yul\":12325:12331   */\n      dup3\n        /* \"#utility.yul\":12321:12336   */\n      add\n        /* \"#utility.yul\":12314:12351   */\n      mstore\n        /* \"#utility.yul\":12129:12358   */\n      pop\n      jump\t// out\n        /* \"#utility.yul\":12364:12746   */\n    tag_157:\n        /* \"#utility.yul\":12514:12517   */\n      0x00\n        /* \"#utility.yul\":12535:12610   */\n      tag_278\n        /* \"#utility.yul\":12607:12609   */\n      0x2a\n        /* \"#utility.yul\":12602:12605   */\n      dup4\n        /* \"#utility.yul\":12535:12610   */\n      tag_135\n      jump\t// in\n    tag_278:\n        /* \"#utility.yul\":12528:12610   */\n      swap2\n      pop\n        /* \"#utility.yul\":12619:12712   */\n      tag_279\n        /* \"#utility.yul\":12708:12711   */\n      dup3\n        /* \"#utility.yul\":12619:12712   */\n      tag_156\n      jump\t// in\n    tag_279:\n        /* \"#utility.yul\":12737:12739   */\n      0x40\n        /* \"#utility.yul\":12732:12735   */\n      dup3\n        /* \"#utility.yul\":12728:12740   */\n      add\n        /* \"#utility.yul\":12721:12740   */\n      swap1\n      pop\n        /* \"#utility.yul\":12364:12746   */\n      swap2\n      swap1\n      pop\n      jump\t// out\n        /* \"#utility.yul\":12752:13473   */\n    tag_113:\n        /* \"#utility.yul\":13007:13011   */\n      0x00\n        /* \"#utility.yul\":13045:13047   */\n      0x60\n        /* \"#utility.yul\":13034:13043   */\n      dup3\n        /* \"#utility.yul\":13030:13048   */\n      add\n        /* \"#utility.yul\":13022:13048   */\n      swap1\n      pop\n        /* \"#utility.yul\":13058:13137   */\n      tag_281\n        /* \"#utility.yul\":13134:13135   */\n      0x00\n        /* \"#utility.yul\":13123:13132   */\n      dup4\n        /* \"#utility.yul\":13119:13136   */\n      add\n        /* \"#utility.yul\":13110:13116   */\n      dup6\n        /* \"#utility.yul\":13058:13137   */\n      tag_131\n      jump\t// in\n    tag_281:\n        /* \"#utility.yul\":13147:13252   */\n      tag_282\n        /* \"#utility.yul\":13248:13250   */\n      0x20\n        /* \"#utility.yul\":13237:13246   */\n      dup4\n        /* \"#utility.yul\":13233:13251   */\n      add\n        /* \"#utility.yul\":13224:13230   */\n      dup5\n        /* \"#utility.yul\":13147:13252   */\n      tag_155\n      jump\t// in\n    tag_282:\n        /* \"#utility.yul\":13299:13308   */\n      dup2\n        /* \"#utility.yul\":13293:13297   */\n      dup2\n        /* \"#utility.yul\":13289:13309   */\n      sub\n        /* \"#utility.yul\":13284:13286   */\n      0x40\n        /* \"#utility.yul\":13273:13282   */\n      dup4\n        /* \"#utility.yul\":13269:13287   */\n      add\n        /* \"#utility.yul\":13262:13310   */\n      mstore\n        /* \"#utility.yul\":13327:13466   */\n      tag_283\n        /* \"#utility.yul\":13461:13465   */\n      dup2\n        /* \"#utility.yul\":13327:13466   */\n      tag_157\n      jump\t// in\n    tag_283:\n        /* \"#utility.yul\":13319:13466   */\n      swap1\n      pop\n        /* \"#utility.yul\":12752:13473   */\n      swap4\n      swap3\n      pop\n      pop\n      pop\n      jump\t// out\n    stop\n\n    sub_0: assembly {\n            /* \"contracts/wallet.sol\":60:1757  contract wallet {... */\n          mstore(0x40, 0x80)\n          callvalue\n          dup1\n          iszero\n          tag_1\n          jumpi\n          0x00\n          dup1\n          revert\n        tag_1:\n          pop\n          dataSize(sub_0)\n          dup1\n          dataOffset(sub_0)\n          0x00\n          codecopy\n          0x00\n          return\n        stop\n\n        sub_0: assembly {\n                /* \"contracts/wallet.sol\":60:1757  contract wallet {... */\n              mstore(0x40, 0x80)\n              jumpi(tag_1, lt(calldatasize, 0x04))\n              shr(0xe0, calldataload(0x00))\n              dup1\n              0x01a10158\n              eq\n              tag_2\n              jumpi\n              dup1\n              0x067cdf19\n              eq\n              tag_3\n              jumpi\n              dup1\n              0x44a320fd\n              eq\n              tag_4\n              jumpi\n              dup1\n              0x6386c1c7\n              eq\n              tag_5\n              jumpi\n              dup1\n              0x76e747e8\n              eq\n              tag_6\n              jumpi\n              dup1\n              0xb724de60\n              eq\n              tag_7\n              jumpi\n            tag_1:\n              0x00\n              dup1\n              revert\n                /* \"contracts/wallet.sol\":177:230  mapping(address => balanceStatus) public wallet_users */\n            tag_2:\n              callvalue\n              dup1\n              iszero\n              tag_8\n              jumpi\n              0x00\n              dup1\n              revert\n            tag_8:\n              pop\n              tag_9\n              0x04\n              dup1\n              calldatasize\n              sub\n              dup2\n              add\n              swap1\n              tag_10\n              swap2\n              swap1\n              tag_11\n              jump\t// in\n            tag_10:\n              tag_12\n              jump\t// in\n            tag_9:\n              mload(0x40)\n              tag_13\n              swap3\n              swap2\n              swap1\n              tag_14\n              jump\t// in\n            tag_13:\n              mload(0x40)\n              dup1\n              swap2\n              sub\n              swap1\n              return\n                /* \"contracts/wallet.sol\":726:1164  function drawFromWallet(uint drawedValue) public payable {... */\n            tag_3:\n              tag_15\n              0x04\n              dup1\n              calldatasize\n              sub\n              dup2\n              add\n              swap1\n              tag_16\n              swap2\n              swap1\n              tag_17\n              jump\t// in\n            tag_16:\n              tag_18\n              jump\t// in\n            tag_15:\n              stop\n                /* \"contracts/wallet.sol\":1640:1751  function setMoneyLimit(uint newLimit) public  {... */\n            tag_4:\n              callvalue\n              dup1\n              iszero\n              tag_19\n              jumpi\n              0x00\n              dup1\n              revert\n            tag_19:\n              pop\n              tag_20\n              0x04\n              dup1\n              calldatasize\n              sub\n              dup2\n              add\n              swap1\n              tag_21\n              swap2\n              swap1\n              tag_17\n              jump\t// in\n            tag_21:\n              tag_22\n              jump\t// in\n            tag_20:\n              stop\n                /* \"contracts/wallet.sol\":239:414  function getUserInfo(address userAddress) public  view  returns(uint, uint) {... */\n            tag_5:\n              callvalue\n              dup1\n              iszero\n              tag_23\n              jumpi\n              0x00\n              dup1\n              revert\n            tag_23:\n              pop\n              tag_24\n              0x04\n              dup1\n              calldatasize\n              sub\n              dup2\n              add\n              swap1\n              tag_25\n              swap2\n              swap1\n              tag_11\n              jump\t// in\n            tag_25:\n              tag_26\n              jump\t// in\n            tag_24:\n              mload(0x40)\n              tag_27\n              swap3\n              swap2\n              swap1\n              tag_14\n              jump\t// in\n            tag_27:\n              mload(0x40)\n              dup1\n              swap2\n              sub\n              swap1\n              return\n                /* \"contracts/wallet.sol\":422:718  function setUserBalance() public payable {... */\n            tag_6:\n              tag_28\n              tag_29\n              jump\t// in\n            tag_28:\n              stop\n                /* \"contracts/wallet.sol\":1172:1632  function sendFromWallet(address userAddress, uint sendedValue) public payable {... */\n            tag_7:\n              tag_30\n              0x04\n              dup1\n              calldatasize\n              sub\n              dup2\n              add\n              swap1\n              tag_31\n              swap2\n              swap1\n              tag_32\n              jump\t// in\n            tag_31:\n              tag_33\n              jump\t// in\n            tag_30:\n              stop\n                /* \"contracts/wallet.sol\":177:230  mapping(address => balanceStatus) public wallet_users */\n            tag_12:\n              mstore(0x20, 0x00)\n              dup1\n              0x00\n              mstore\n              keccak256(0x00, 0x40)\n              0x00\n              swap2\n              pop\n              swap1\n              pop\n              dup1\n              0x00\n              add\n              sload\n              swap1\n              dup1\n              0x01\n              add\n              sload\n              swap1\n              pop\n              dup3\n              jump\t// out\n                /* \"contracts/wallet.sol\":726:1164  function drawFromWallet(uint drawedValue) public payable {... */\n            tag_18:\n                /* \"contracts/wallet.sol\":795:807  uint balance */\n              0x00\n                /* \"contracts/wallet.sol\":809:824  uint moneyLimit */\n              dup1\n                /* \"contracts/wallet.sol\":828:851  getUserInfo(msg.sender) */\n              tag_35\n                /* \"contracts/wallet.sol\":840:850  msg.sender */\n              caller\n                /* \"contracts/wallet.sol\":828:839  getUserInfo */\n              tag_26\n                /* \"contracts/wallet.sol\":828:851  getUserInfo(msg.sender) */\n              jump\t// in\n            tag_35:\n                /* \"contracts/wallet.sol\":794:851  (uint balance, uint moneyLimit) = getUserInfo(msg.sender) */\n              swap2\n              pop\n              swap2\n              pop\n                /* \"contracts/wallet.sol\":881:892  drawedValue */\n              dup3\n                /* \"contracts/wallet.sol\":870:877  balance */\n              dup3\n                /* \"contracts/wallet.sol\":870:892  balance >= drawedValue */\n              lt\n              iszero\n                /* \"contracts/wallet.sol\":862:913  require(balance >= drawedValue, \"Not enough money\") */\n              tag_36\n              jumpi\n              mload(0x40)\n              0x08c379a000000000000000000000000000000000000000000000000000000000\n              dup2\n              mstore\n              0x04\n              add\n              tag_37\n              swap1\n              tag_38\n              jump\t// in\n            tag_37:\n              mload(0x40)\n              dup1\n              swap2\n              sub\n              swap1\n              revert\n            tag_36:\n                /* \"contracts/wallet.sol\":946:956  moneyLimit */\n              dup1\n                /* \"contracts/wallet.sol\":932:943  drawedValue */\n              dup4\n                /* \"contracts/wallet.sol\":932:956  drawedValue > moneyLimit */\n              gt\n                /* \"contracts/wallet.sol\":924:1000  require(drawedValue > moneyLimit, \"Transaction bigger than installed limit\") */\n              tag_39\n              jumpi\n              mload(0x40)\n              0x08c379a000000000000000000000000000000000000000000000000000000000\n              dup2\n              mstore\n              0x04\n              add\n              tag_40\n              swap1\n              tag_41\n              jump\t// in\n            tag_40:\n              mload(0x40)\n              dup1\n              swap2\n              sub\n              swap1\n              revert\n            tag_39:\n                /* \"contracts/wallet.sol\":1056:1067  drawedValue */\n              dup3\n                /* \"contracts/wallet.sol\":1046:1053  balance */\n              dup3\n                /* \"contracts/wallet.sol\":1046:1067  balance - drawedValue */\n              tag_42\n              swap2\n              swap1\n              tag_43\n              jump\t// in\n            tag_42:\n                /* \"contracts/wallet.sol\":1011:1023  wallet_users */\n              0x00\n                /* \"contracts/wallet.sol\":1011:1035  wallet_users[msg.sender] */\n              dup1\n                /* \"contracts/wallet.sol\":1024:1034  msg.sender */\n              caller\n                /* \"contracts/wallet.sol\":1011:1035  wallet_users[msg.sender] */\n              0xffffffffffffffffffffffffffffffffffffffff\n              and\n              0xffffffffffffffffffffffffffffffffffffffff\n              and\n              dup2\n              mstore\n              0x20\n              add\n              swap1\n              dup2\n              mstore\n              0x20\n              add\n              0x00\n              keccak256\n                /* \"contracts/wallet.sol\":1011:1043  wallet_users[msg.sender].balance */\n              0x00\n              add\n                /* \"contracts/wallet.sol\":1011:1067  wallet_users[msg.sender].balance = balance - drawedValue */\n              dup2\n              swap1\n              sstore\n              pop\n                /* \"contracts/wallet.sol\":1078:1098  address payable  _to */\n              0x00\n                /* \"contracts/wallet.sol\":1109:1119  msg.sender */\n              caller\n                /* \"contracts/wallet.sol\":1078:1120  address payable  _to = payable(msg.sender) */\n              swap1\n              pop\n                /* \"contracts/wallet.sol\":1131:1134  _to */\n              dup1\n                /* \"contracts/wallet.sol\":1131:1143  _to.transfer */\n              0xffffffffffffffffffffffffffffffffffffffff\n              and\n                /* \"contracts/wallet.sol\":1131:1156  _to.transfer(drawedValue) */\n              0x08fc\n                /* \"contracts/wallet.sol\":1144:1155  drawedValue */\n              dup6\n                /* \"contracts/wallet.sol\":1131:1156  _to.transfer(drawedValue) */\n              swap1\n              dup2\n              iszero\n              mul\n              swap1\n              mload(0x40)\n              0x00\n              mload(0x40)\n              dup1\n              dup4\n              sub\n              dup2\n              dup6\n              dup9\n              dup9\n              call\n              swap4\n              pop\n              pop\n              pop\n              pop\n              iszero\n              dup1\n              iszero\n              tag_45\n              jumpi\n              returndatasize\n              0x00\n              dup1\n              returndatacopy\n              revert(0x00, returndatasize)\n            tag_45:\n              pop\n                /* \"contracts/wallet.sol\":783:1164  {... */\n              pop\n              pop\n              pop\n                /* \"contracts/wallet.sol\":726:1164  function drawFromWallet(uint drawedValue) public payable {... */\n              pop\n              jump\t// out\n                /* \"contracts/wallet.sol\":1640:1751  function setMoneyLimit(uint newLimit) public  {... */\n            tag_22:\n                /* \"contracts/wallet.sol\":1735:1743  newLimit */\n              dup1\n                /* \"contracts/wallet.sol\":1697:1709  wallet_users */\n              0x00\n                /* \"contracts/wallet.sol\":1697:1721  wallet_users[msg.sender] */\n              dup1\n                /* \"contracts/wallet.sol\":1710:1720  msg.sender */\n              caller\n                /* \"contracts/wallet.sol\":1697:1721  wallet_users[msg.sender] */\n              0xffffffffffffffffffffffffffffffffffffffff\n              and\n              0xffffffffffffffffffffffffffffffffffffffff\n              and\n              dup2\n              mstore\n              0x20\n              add\n              swap1\n              dup2\n              mstore\n              0x20\n              add\n              0x00\n              keccak256\n                /* \"contracts/wallet.sol\":1697:1732  wallet_users[msg.sender].moneyLimit */\n              0x01\n              add\n                /* \"contracts/wallet.sol\":1697:1743  wallet_users[msg.sender].moneyLimit = newLimit */\n              dup2\n              swap1\n              sstore\n              pop\n                /* \"contracts/wallet.sol\":1640:1751  function setMoneyLimit(uint newLimit) public  {... */\n              pop\n              jump\t// out\n                /* \"contracts/wallet.sol\":239:414  function getUserInfo(address userAddress) public  view  returns(uint, uint) {... */\n            tag_26:\n                /* \"contracts/wallet.sol\":303:307  uint */\n              0x00\n                /* \"contracts/wallet.sol\":309:313  uint */\n              dup1\n                /* \"contracts/wallet.sol\":334:346  wallet_users */\n              0x00\n                /* \"contracts/wallet.sol\":334:359  wallet_users[userAddress] */\n              dup1\n                /* \"contracts/wallet.sol\":347:358  userAddress */\n              dup5\n                /* \"contracts/wallet.sol\":334:359  wallet_users[userAddress] */\n              0xffffffffffffffffffffffffffffffffffffffff\n              and\n              0xffffffffffffffffffffffffffffffffffffffff\n              and\n              dup2\n              mstore\n              0x20\n              add\n              swap1\n              dup2\n              mstore\n              0x20\n              add\n              0x00\n              keccak256\n                /* \"contracts/wallet.sol\":334:367  wallet_users[userAddress].balance */\n              0x00\n              add\n              sload\n                /* \"contracts/wallet.sol\":369:381  wallet_users */\n              0x00\n                /* \"contracts/wallet.sol\":369:394  wallet_users[userAddress] */\n              dup1\n                /* \"contracts/wallet.sol\":382:393  userAddress */\n              dup6\n                /* \"contracts/wallet.sol\":369:394  wallet_users[userAddress] */\n              0xffffffffffffffffffffffffffffffffffffffff\n              and\n              0xffffffffffffffffffffffffffffffffffffffff\n              and\n              dup2\n              mstore\n              0x20\n              add\n              swap1\n              dup2\n              mstore\n              0x20\n              add\n              0x00\n              keccak256\n                /* \"contracts/wallet.sol\":369:405  wallet_users[userAddress].moneyLimit */\n              0x01\n              add\n              sload\n                /* \"contracts/wallet.sol\":326:406  return (wallet_users[userAddress].balance, wallet_users[userAddress].moneyLimit) */\n              swap2\n              pop\n              swap2\n              pop\n                /* \"contracts/wallet.sol\":239:414  function getUserInfo(address userAddress) public  view  returns(uint, uint) {... */\n              swap2\n              pop\n              swap2\n              jump\t// out\n                /* \"contracts/wallet.sol\":422:718  function setUserBalance() public payable {... */\n            tag_29:\n                /* \"contracts/wallet.sol\":475:487  uint balance */\n              0x00\n                /* \"contracts/wallet.sol\":493:516  getUserInfo(msg.sender) */\n              tag_49\n                /* \"contracts/wallet.sol\":505:515  msg.sender */\n              caller\n                /* \"contracts/wallet.sol\":493:504  getUserInfo */\n              tag_26\n                /* \"contracts/wallet.sol\":493:516  getUserInfo(msg.sender) */\n              jump\t// in\n            tag_49:\n                /* \"contracts/wallet.sol\":474:516  (uint balance, ) = getUserInfo(msg.sender) */\n              pop\n              swap1\n              pop\n                /* \"contracts/wallet.sol\":541:542  0 */\n              0x00\n                /* \"contracts/wallet.sol\":531:538  balance */\n              dup2\n                /* \"contracts/wallet.sol\":531:542  balance > 0 */\n              gt\n                /* \"contracts/wallet.sol\":527:711  if (balance > 0) {... */\n              iszero\n              tag_50\n              jumpi\n                /* \"contracts/wallet.sol\":604:613  msg.value */\n              callvalue\n                /* \"contracts/wallet.sol\":594:601  balance */\n              dup2\n                /* \"contracts/wallet.sol\":594:613  balance + msg.value */\n              tag_51\n              swap2\n              swap1\n              tag_52\n              jump\t// in\n            tag_51:\n                /* \"contracts/wallet.sol\":559:571  wallet_users */\n              0x00\n                /* \"contracts/wallet.sol\":559:583  wallet_users[msg.sender] */\n              dup1\n                /* \"contracts/wallet.sol\":572:582  msg.sender */\n              caller\n                /* \"contracts/wallet.sol\":559:583  wallet_users[msg.sender] */\n              0xffffffffffffffffffffffffffffffffffffffff\n              and\n              0xffffffffffffffffffffffffffffffffffffffff\n              and\n              dup2\n              mstore\n              0x20\n              add\n              swap1\n              dup2\n              mstore\n              0x20\n              add\n              0x00\n              keccak256\n                /* \"contracts/wallet.sol\":559:591  wallet_users[msg.sender].balance */\n              0x00\n              add\n                /* \"contracts/wallet.sol\":559:613  wallet_users[msg.sender].balance = balance + msg.value */\n              dup2\n              swap1\n              sstore\n              pop\n                /* \"contracts/wallet.sol\":527:711  if (balance > 0) {... */\n              jump(tag_53)\n            tag_50:\n                /* \"contracts/wallet.sol\":690:699  msg.value */\n              callvalue\n                /* \"contracts/wallet.sol\":655:667  wallet_users */\n              0x00\n                /* \"contracts/wallet.sol\":655:679  wallet_users[msg.sender] */\n              dup1\n                /* \"contracts/wallet.sol\":668:678  msg.sender */\n              caller\n                /* \"contracts/wallet.sol\":655:679  wallet_users[msg.sender] */\n              0xffffffffffffffffffffffffffffffffffffffff\n              and\n              0xffffffffffffffffffffffffffffffffffffffff\n              and\n              dup2\n              mstore\n              0x20\n              add\n              swap1\n              dup2\n              mstore\n              0x20\n              add\n              0x00\n              keccak256\n                /* \"contracts/wallet.sol\":655:687  wallet_users[msg.sender].balance */\n              0x00\n              add\n                /* \"contracts/wallet.sol\":655:699  wallet_users[msg.sender].balance = msg.value */\n              dup2\n              swap1\n              sstore\n              pop\n                /* \"contracts/wallet.sol\":527:711  if (balance > 0) {... */\n            tag_53:\n                /* \"contracts/wallet.sol\":463:718  {... */\n              pop\n                /* \"contracts/wallet.sol\":422:718  function setUserBalance() public payable {... */\n              jump\t// out\n                /* \"contracts/wallet.sol\":1172:1632  function sendFromWallet(address userAddress, uint sendedValue) public payable {... */\n            tag_33:\n                /* \"contracts/wallet.sol\":1262:1274  uint balance */\n              0x00\n                /* \"contracts/wallet.sol\":1276:1291  uint moneyLimit */\n              dup1\n                /* \"contracts/wallet.sol\":1295:1318  getUserInfo(msg.sender) */\n              tag_55\n                /* \"contracts/wallet.sol\":1307:1317  msg.sender */\n              caller\n                /* \"contracts/wallet.sol\":1295:1306  getUserInfo */\n              tag_26\n                /* \"contracts/wallet.sol\":1295:1318  getUserInfo(msg.sender) */\n              jump\t// in\n            tag_55:\n                /* \"contracts/wallet.sol\":1261:1318  (uint balance, uint moneyLimit) = getUserInfo(msg.sender) */\n              swap2\n              pop\n              swap2\n              pop\n                /* \"contracts/wallet.sol\":1348:1359  sendedValue */\n              dup3\n                /* \"contracts/wallet.sol\":1337:1344  balance */\n              dup3\n                /* \"contracts/wallet.sol\":1337:1359  balance >= sendedValue */\n              lt\n              iszero\n                /* \"contracts/wallet.sol\":1329:1380  require(balance >= sendedValue, \"Not enough money\") */\n              tag_56\n              jumpi\n              mload(0x40)\n              0x08c379a000000000000000000000000000000000000000000000000000000000\n              dup2\n              mstore\n              0x04\n              add\n              tag_57\n              swap1\n              tag_38\n              jump\t// in\n            tag_57:\n              mload(0x40)\n              dup1\n              swap2\n              sub\n              swap1\n              revert\n            tag_56:\n                /* \"contracts/wallet.sol\":1413:1423  moneyLimit */\n              dup1\n                /* \"contracts/wallet.sol\":1399:1410  sendedValue */\n              dup4\n                /* \"contracts/wallet.sol\":1399:1423  sendedValue > moneyLimit */\n              gt\n                /* \"contracts/wallet.sol\":1391:1467  require(sendedValue > moneyLimit, \"Transaction bigger than installed limit\") */\n              tag_58\n              jumpi\n              mload(0x40)\n              0x08c379a000000000000000000000000000000000000000000000000000000000\n              dup2\n              mstore\n              0x04\n              add\n              tag_59\n              swap1\n              tag_41\n              jump\t// in\n            tag_59:\n              mload(0x40)\n              dup1\n              swap2\n              sub\n              swap1\n              revert\n            tag_58:\n                /* \"contracts/wallet.sol\":1523:1534  sendedValue */\n              dup3\n                /* \"contracts/wallet.sol\":1513:1520  balance */\n              dup3\n                /* \"contracts/wallet.sol\":1513:1534  balance - sendedValue */\n              tag_60\n              swap2\n              swap1\n              tag_43\n              jump\t// in\n            tag_60:\n                /* \"contracts/wallet.sol\":1478:1490  wallet_users */\n              0x00\n                /* \"contracts/wallet.sol\":1478:1502  wallet_users[msg.sender] */\n              dup1\n                /* \"contracts/wallet.sol\":1491:1501  msg.sender */\n              caller\n                /* \"contracts/wallet.sol\":1478:1502  wallet_users[msg.sender] */\n              0xffffffffffffffffffffffffffffffffffffffff\n              and\n              0xffffffffffffffffffffffffffffffffffffffff\n              and\n              dup2\n              mstore\n              0x20\n              add\n              swap1\n              dup2\n              mstore\n              0x20\n              add\n              0x00\n              keccak256\n                /* \"contracts/wallet.sol\":1478:1510  wallet_users[msg.sender].balance */\n              0x00\n              add\n                /* \"contracts/wallet.sol\":1478:1534  wallet_users[msg.sender].balance = balance - sendedValue */\n              dup2\n              swap1\n              sstore\n              pop\n                /* \"contracts/wallet.sol\":1545:1565  address payable  _to */\n              0x00\n                /* \"contracts/wallet.sol\":1576:1587  userAddress */\n              dup5\n                /* \"contracts/wallet.sol\":1545:1588  address payable  _to = payable(userAddress) */\n              swap1\n              pop\n                /* \"contracts/wallet.sol\":1599:1602  _to */\n              dup1\n                /* \"contracts/wallet.sol\":1599:1611  _to.transfer */\n              0xffffffffffffffffffffffffffffffffffffffff\n              and\n                /* \"contracts/wallet.sol\":1599:1624  _to.transfer(sendedValue) */\n              0x08fc\n                /* \"contracts/wallet.sol\":1612:1623  sendedValue */\n              dup6\n                /* \"contracts/wallet.sol\":1599:1624  _to.transfer(sendedValue) */\n              swap1\n              dup2\n              iszero\n              mul\n              swap1\n              mload(0x40)\n              0x00\n              mload(0x40)\n              dup1\n              dup4\n              sub\n              dup2\n              dup6\n              dup9\n              dup9\n              call\n              swap4\n              pop\n              pop\n              pop\n              pop\n              iszero\n              dup1\n              iszero\n              tag_62\n              jumpi\n              returndatasize\n              0x00\n              dup1\n              returndatacopy\n              revert(0x00, returndatasize)\n            tag_62:\n              pop\n                /* \"contracts/wallet.sol\":1250:1632  {... */\n              pop\n              pop\n              pop\n                /* \"contracts/wallet.sol\":1172:1632  function sendFromWallet(address userAddress, uint sendedValue) public payable {... */\n              pop\n              pop\n              jump\t// out\n                /* \"#utility.yul\":88:205   */\n            tag_64:\n                /* \"#utility.yul\":197:198   */\n              0x00\n                /* \"#utility.yul\":194:195   */\n              dup1\n                /* \"#utility.yul\":187:199   */\n              revert\n                /* \"#utility.yul\":334:460   */\n            tag_66:\n                /* \"#utility.yul\":371:378   */\n              0x00\n                /* \"#utility.yul\":411:453   */\n              0xffffffffffffffffffffffffffffffffffffffff\n                /* \"#utility.yul\":404:409   */\n              dup3\n                /* \"#utility.yul\":400:454   */\n              and\n                /* \"#utility.yul\":389:454   */\n              swap1\n              pop\n                /* \"#utility.yul\":334:460   */\n              swap2\n              swap1\n              pop\n              jump\t// out\n                /* \"#utility.yul\":466:562   */\n            tag_67:\n                /* \"#utility.yul\":503:510   */\n              0x00\n                /* \"#utility.yul\":532:556   */\n              tag_86\n                /* \"#utility.yul\":550:555   */\n              dup3\n                /* \"#utility.yul\":532:556   */\n              tag_66\n              jump\t// in\n            tag_86:\n                /* \"#utility.yul\":521:556   */\n              swap1\n              pop\n                /* \"#utility.yul\":466:562   */\n              swap2\n              swap1\n              pop\n              jump\t// out\n                /* \"#utility.yul\":568:690   */\n            tag_68:\n                /* \"#utility.yul\":641:665   */\n              tag_88\n                /* \"#utility.yul\":659:664   */\n              dup2\n                /* \"#utility.yul\":641:665   */\n              tag_67\n              jump\t// in\n            tag_88:\n                /* \"#utility.yul\":634:639   */\n              dup2\n                /* \"#utility.yul\":631:666   */\n              eq\n                /* \"#utility.yul\":621:684   */\n              tag_89\n              jumpi\n                /* \"#utility.yul\":680:681   */\n              0x00\n                /* \"#utility.yul\":677:678   */\n              dup1\n                /* \"#utility.yul\":670:682   */\n              revert\n                /* \"#utility.yul\":621:684   */\n            tag_89:\n                /* \"#utility.yul\":568:690   */\n              pop\n              jump\t// out\n                /* \"#utility.yul\":696:835   */\n            tag_69:\n                /* \"#utility.yul\":742:747   */\n              0x00\n                /* \"#utility.yul\":780:786   */\n              dup2\n                /* \"#utility.yul\":767:787   */\n              calldataload\n                /* \"#utility.yul\":758:787   */\n              swap1\n              pop\n                /* \"#utility.yul\":796:829   */\n              tag_91\n                /* \"#utility.yul\":823:828   */\n              dup2\n                /* \"#utility.yul\":796:829   */\n              tag_68\n              jump\t// in\n            tag_91:\n                /* \"#utility.yul\":696:835   */\n              swap3\n              swap2\n              pop\n              pop\n              jump\t// out\n                /* \"#utility.yul\":841:1170   */\n            tag_11:\n                /* \"#utility.yul\":900:906   */\n              0x00\n                /* \"#utility.yul\":949:951   */\n              0x20\n                /* \"#utility.yul\":937:946   */\n              dup3\n                /* \"#utility.yul\":928:935   */\n              dup5\n                /* \"#utility.yul\":924:947   */\n              sub\n                /* \"#utility.yul\":920:952   */\n              slt\n                /* \"#utility.yul\":917:1036   */\n              iszero\n              tag_93\n              jumpi\n                /* \"#utility.yul\":955:1034   */\n              tag_94\n              tag_64\n              jump\t// in\n            tag_94:\n                /* \"#utility.yul\":917:1036   */\n            tag_93:\n                /* \"#utility.yul\":1075:1076   */\n              0x00\n                /* \"#utility.yul\":1100:1153   */\n              tag_95\n                /* \"#utility.yul\":1145:1152   */\n              dup5\n                /* \"#utility.yul\":1136:1142   */\n              dup3\n                /* \"#utility.yul\":1125:1134   */\n              dup6\n                /* \"#utility.yul\":1121:1143   */\n              add\n                /* \"#utility.yul\":1100:1153   */\n              tag_69\n              jump\t// in\n            tag_95:\n                /* \"#utility.yul\":1090:1153   */\n              swap2\n              pop\n                /* \"#utility.yul\":1046:1163   */\n              pop\n                /* \"#utility.yul\":841:1170   */\n              swap3\n              swap2\n              pop\n              pop\n              jump\t// out\n                /* \"#utility.yul\":1176:1253   */\n            tag_70:\n                /* \"#utility.yul\":1213:1220   */\n              0x00\n                /* \"#utility.yul\":1242:1247   */\n              dup2\n                /* \"#utility.yul\":1231:1247   */\n              swap1\n              pop\n                /* \"#utility.yul\":1176:1253   */\n              swap2\n              swap1\n              pop\n              jump\t// out\n                /* \"#utility.yul\":1259:1377   */\n            tag_71:\n                /* \"#utility.yul\":1346:1370   */\n              tag_98\n                /* \"#utility.yul\":1364:1369   */\n              dup2\n                /* \"#utility.yul\":1346:1370   */\n              tag_70\n              jump\t// in\n            tag_98:\n                /* \"#utility.yul\":1341:1344   */\n              dup3\n                /* \"#utility.yul\":1334:1371   */\n              mstore\n                /* \"#utility.yul\":1259:1377   */\n              pop\n              pop\n              jump\t// out\n                /* \"#utility.yul\":1383:1715   */\n            tag_14:\n                /* \"#utility.yul\":1504:1508   */\n              0x00\n                /* \"#utility.yul\":1542:1544   */\n              0x40\n                /* \"#utility.yul\":1531:1540   */\n              dup3\n                /* \"#utility.yul\":1527:1545   */\n              add\n                /* \"#utility.yul\":1519:1545   */\n              swap1\n              pop\n                /* \"#utility.yul\":1555:1626   */\n              tag_100\n                /* \"#utility.yul\":1623:1624   */\n              0x00\n                /* \"#utility.yul\":1612:1621   */\n              dup4\n                /* \"#utility.yul\":1608:1625   */\n              add\n                /* \"#utility.yul\":1599:1605   */\n              dup6\n                /* \"#utility.yul\":1555:1626   */\n              tag_71\n              jump\t// in\n            tag_100:\n                /* \"#utility.yul\":1636:1708   */\n              tag_101\n                /* \"#utility.yul\":1704:1706   */\n              0x20\n                /* \"#utility.yul\":1693:1702   */\n              dup4\n                /* \"#utility.yul\":1689:1707   */\n              add\n                /* \"#utility.yul\":1680:1686   */\n              dup5\n                /* \"#utility.yul\":1636:1708   */\n              tag_71\n              jump\t// in\n            tag_101:\n                /* \"#utility.yul\":1383:1715   */\n              swap4\n              swap3\n              pop\n              pop\n              pop\n              jump\t// out\n                /* \"#utility.yul\":1721:1843   */\n            tag_72:\n                /* \"#utility.yul\":1794:1818   */\n              tag_103\n                /* \"#utility.yul\":1812:1817   */\n              dup2\n                /* \"#utility.yul\":1794:1818   */\n              tag_70\n              jump\t// in\n            tag_103:\n                /* \"#utility.yul\":1787:1792   */\n              dup2\n                /* \"#utility.yul\":1784:1819   */\n              eq\n                /* \"#utility.yul\":1774:1837   */\n              tag_104\n              jumpi\n                /* \"#utility.yul\":1833:1834   */\n              0x00\n                /* \"#utility.yul\":1830:1831   */\n              dup1\n                /* \"#utility.yul\":1823:1835   */\n              revert\n                /* \"#utility.yul\":1774:1837   */\n            tag_104:\n                /* \"#utility.yul\":1721:1843   */\n              pop\n              jump\t// out\n                /* \"#utility.yul\":1849:1988   */\n            tag_73:\n                /* \"#utility.yul\":1895:1900   */\n              0x00\n                /* \"#utility.yul\":1933:1939   */\n              dup2\n                /* \"#utility.yul\":1920:1940   */\n              calldataload\n                /* \"#utility.yul\":1911:1940   */\n              swap1\n              pop\n                /* \"#utility.yul\":1949:1982   */\n              tag_106\n                /* \"#utility.yul\":1976:1981   */\n              dup2\n                /* \"#utility.yul\":1949:1982   */\n              tag_72\n              jump\t// in\n            tag_106:\n                /* \"#utility.yul\":1849:1988   */\n              swap3\n              swap2\n              pop\n              pop\n              jump\t// out\n                /* \"#utility.yul\":1994:2323   */\n            tag_17:\n                /* \"#utility.yul\":2053:2059   */\n              0x00\n                /* \"#utility.yul\":2102:2104   */\n              0x20\n                /* \"#utility.yul\":2090:2099   */\n              dup3\n                /* \"#utility.yul\":2081:2088   */\n              dup5\n                /* \"#utility.yul\":2077:2100   */\n              sub\n                /* \"#utility.yul\":2073:2105   */\n              slt\n                /* \"#utility.yul\":2070:2189   */\n              iszero\n              tag_108\n              jumpi\n                /* \"#utility.yul\":2108:2187   */\n              tag_109\n              tag_64\n              jump\t// in\n            tag_109:\n                /* \"#utility.yul\":2070:2189   */\n            tag_108:\n                /* \"#utility.yul\":2228:2229   */\n              0x00\n                /* \"#utility.yul\":2253:2306   */\n              tag_110\n                /* \"#utility.yul\":2298:2305   */\n              dup5\n                /* \"#utility.yul\":2289:2295   */\n              dup3\n                /* \"#utility.yul\":2278:2287   */\n              dup6\n                /* \"#utility.yul\":2274:2296   */\n              add\n                /* \"#utility.yul\":2253:2306   */\n              tag_73\n              jump\t// in\n            tag_110:\n                /* \"#utility.yul\":2243:2306   */\n              swap2\n              pop\n                /* \"#utility.yul\":2199:2316   */\n              pop\n                /* \"#utility.yul\":1994:2323   */\n              swap3\n              swap2\n              pop\n              pop\n              jump\t// out\n                /* \"#utility.yul\":2329:2803   */\n            tag_32:\n                /* \"#utility.yul\":2397:2403   */\n              0x00\n                /* \"#utility.yul\":2405:2411   */\n              dup1\n                /* \"#utility.yul\":2454:2456   */\n              0x40\n                /* \"#utility.yul\":2442:2451   */\n              dup4\n                /* \"#utility.yul\":2433:2440   */\n              dup6\n                /* \"#utility.yul\":2429:2452   */\n              sub\n                /* \"#utility.yul\":2425:2457   */\n              slt\n                /* \"#utility.yul\":2422:2541   */\n              iszero\n              tag_112\n              jumpi\n                /* \"#utility.yul\":2460:2539   */\n              tag_113\n              tag_64\n              jump\t// in\n            tag_113:\n                /* \"#utility.yul\":2422:2541   */\n            tag_112:\n                /* \"#utility.yul\":2580:2581   */\n              0x00\n                /* \"#utility.yul\":2605:2658   */\n              tag_114\n                /* \"#utility.yul\":2650:2657   */\n              dup6\n                /* \"#utility.yul\":2641:2647   */\n              dup3\n                /* \"#utility.yul\":2630:2639   */\n              dup7\n                /* \"#utility.yul\":2626:2648   */\n              add\n                /* \"#utility.yul\":2605:2658   */\n              tag_69\n              jump\t// in\n            tag_114:\n                /* \"#utility.yul\":2595:2658   */\n              swap3\n              pop\n                /* \"#utility.yul\":2551:2668   */\n              pop\n                /* \"#utility.yul\":2707:2709   */\n              0x20\n                /* \"#utility.yul\":2733:2786   */\n              tag_115\n                /* \"#utility.yul\":2778:2785   */\n              dup6\n                /* \"#utility.yul\":2769:2775   */\n              dup3\n                /* \"#utility.yul\":2758:2767   */\n              dup7\n                /* \"#utility.yul\":2754:2776   */\n              add\n                /* \"#utility.yul\":2733:2786   */\n              tag_73\n              jump\t// in\n            tag_115:\n                /* \"#utility.yul\":2723:2786   */\n              swap2\n              pop\n                /* \"#utility.yul\":2678:2796   */\n              pop\n                /* \"#utility.yul\":2329:2803   */\n              swap3\n              pop\n              swap3\n              swap1\n              pop\n              jump\t// out\n                /* \"#utility.yul\":2809:2978   */\n            tag_74:\n                /* \"#utility.yul\":2893:2904   */\n              0x00\n                /* \"#utility.yul\":2927:2933   */\n              dup3\n                /* \"#utility.yul\":2922:2925   */\n              dup3\n                /* \"#utility.yul\":2915:2934   */\n              mstore\n                /* \"#utility.yul\":2967:2971   */\n              0x20\n                /* \"#utility.yul\":2962:2965   */\n              dup3\n                /* \"#utility.yul\":2958:2972   */\n              add\n                /* \"#utility.yul\":2943:2972   */\n              swap1\n              pop\n                /* \"#utility.yul\":2809:2978   */\n              swap3\n              swap2\n              pop\n              pop\n              jump\t// out\n                /* \"#utility.yul\":2984:3150   */\n            tag_75:\n                /* \"#utility.yul\":3124:3142   */\n              0x4e6f7420656e6f756768206d6f6e657900000000000000000000000000000000\n                /* \"#utility.yul\":3120:3121   */\n              0x00\n                /* \"#utility.yul\":3112:3118   */\n              dup3\n                /* \"#utility.yul\":3108:3122   */\n              add\n                /* \"#utility.yul\":3101:3143   */\n              mstore\n                /* \"#utility.yul\":2984:3150   */\n              pop\n              jump\t// out\n                /* \"#utility.yul\":3156:3522   */\n            tag_76:\n                /* \"#utility.yul\":3298:3301   */\n              0x00\n                /* \"#utility.yul\":3319:3386   */\n              tag_119\n                /* \"#utility.yul\":3383:3385   */\n              0x10\n                /* \"#utility.yul\":3378:3381   */\n              dup4\n                /* \"#utility.yul\":3319:3386   */\n              tag_74\n              jump\t// in\n            tag_119:\n                /* \"#utility.yul\":3312:3386   */\n              swap2\n              pop\n                /* \"#utility.yul\":3395:3488   */\n              tag_120\n                /* \"#utility.yul\":3484:3487   */\n              dup3\n                /* \"#utility.yul\":3395:3488   */\n              tag_75\n              jump\t// in\n            tag_120:\n                /* \"#utility.yul\":3513:3515   */\n              0x20\n                /* \"#utility.yul\":3508:3511   */\n              dup3\n                /* \"#utility.yul\":3504:3516   */\n              add\n                /* \"#utility.yul\":3497:3516   */\n              swap1\n              pop\n                /* \"#utility.yul\":3156:3522   */\n              swap2\n              swap1\n              pop\n              jump\t// out\n                /* \"#utility.yul\":3528:3947   */\n            tag_38:\n                /* \"#utility.yul\":3694:3698   */\n              0x00\n                /* \"#utility.yul\":3732:3734   */\n              0x20\n                /* \"#utility.yul\":3721:3730   */\n              dup3\n                /* \"#utility.yul\":3717:3735   */\n              add\n                /* \"#utility.yul\":3709:3735   */\n              swap1\n              pop\n                /* \"#utility.yul\":3781:3790   */\n              dup2\n                /* \"#utility.yul\":3775:3779   */\n              dup2\n                /* \"#utility.yul\":3771:3791   */\n              sub\n                /* \"#utility.yul\":3767:3768   */\n              0x00\n                /* \"#utility.yul\":3756:3765   */\n              dup4\n                /* \"#utility.yul\":3752:3769   */\n              add\n                /* \"#utility.yul\":3745:3792   */\n              mstore\n                /* \"#utility.yul\":3809:3940   */\n              tag_122\n                /* \"#utility.yul\":3935:3939   */\n              dup2\n                /* \"#utility.yul\":3809:3940   */\n              tag_76\n              jump\t// in\n            tag_122:\n                /* \"#utility.yul\":3801:3940   */\n              swap1\n              pop\n                /* \"#utility.yul\":3528:3947   */\n              swap2\n              swap1\n              pop\n              jump\t// out\n                /* \"#utility.yul\":3953:4179   */\n            tag_77:\n                /* \"#utility.yul\":4093:4127   */\n              0x5472616e73616374696f6e20626967676572207468616e20696e7374616c6c65\n                /* \"#utility.yul\":4089:4090   */\n              0x00\n                /* \"#utility.yul\":4081:4087   */\n              dup3\n                /* \"#utility.yul\":4077:4091   */\n              add\n                /* \"#utility.yul\":4070:4128   */\n              mstore\n                /* \"#utility.yul\":4162:4171   */\n              0x64206c696d697400000000000000000000000000000000000000000000000000\n                /* \"#utility.yul\":4157:4159   */\n              0x20\n                /* \"#utility.yul\":4149:4155   */\n              dup3\n                /* \"#utility.yul\":4145:4160   */\n              add\n                /* \"#utility.yul\":4138:4172   */\n              mstore\n                /* \"#utility.yul\":3953:4179   */\n              pop\n              jump\t// out\n                /* \"#utility.yul\":4185:4551   */\n            tag_78:\n                /* \"#utility.yul\":4327:4330   */\n              0x00\n                /* \"#utility.yul\":4348:4415   */\n              tag_125\n                /* \"#utility.yul\":4412:4414   */\n              0x27\n                /* \"#utility.yul\":4407:4410   */\n              dup4\n                /* \"#utility.yul\":4348:4415   */\n              tag_74\n              jump\t// in\n            tag_125:\n                /* \"#utility.yul\":4341:4415   */\n              swap2\n              pop\n                /* \"#utility.yul\":4424:4517   */\n              tag_126\n                /* \"#utility.yul\":4513:4516   */\n              dup3\n                /* \"#utility.yul\":4424:4517   */\n              tag_77\n              jump\t// in\n            tag_126:\n                /* \"#utility.yul\":4542:4544   */\n              0x40\n                /* \"#utility.yul\":4537:4540   */\n              dup3\n                /* \"#utility.yul\":4533:4545   */\n              add\n                /* \"#utility.yul\":4526:4545   */\n              swap1\n              pop\n                /* \"#utility.yul\":4185:4551   */\n              swap2\n              swap1\n              pop\n              jump\t// out\n                /* \"#utility.yul\":4557:4976   */\n            tag_41:\n                /* \"#utility.yul\":4723:4727   */\n              0x00\n                /* \"#utility.yul\":4761:4763   */\n              0x20\n                /* \"#utility.yul\":4750:4759   */\n              dup3\n                /* \"#utility.yul\":4746:4764   */\n              add\n                /* \"#utility.yul\":4738:4764   */\n              swap1\n              pop\n                /* \"#utility.yul\":4810:4819   */\n              dup2\n                /* \"#utility.yul\":4804:4808   */\n              dup2\n                /* \"#utility.yul\":4800:4820   */\n              sub\n                /* \"#utility.yul\":4796:4797   */\n              0x00\n                /* \"#utility.yul\":4785:4794   */\n              dup4\n                /* \"#utility.yul\":4781:4798   */\n              add\n                /* \"#utility.yul\":4774:4821   */\n              mstore\n                /* \"#utility.yul\":4838:4969   */\n              tag_128\n                /* \"#utility.yul\":4964:4968   */\n              dup2\n                /* \"#utility.yul\":4838:4969   */\n              tag_78\n              jump\t// in\n            tag_128:\n                /* \"#utility.yul\":4830:4969   */\n              swap1\n              pop\n                /* \"#utility.yul\":4557:4976   */\n              swap2\n              swap1\n              pop\n              jump\t// out\n                /* \"#utility.yul\":4982:5162   */\n            tag_79:\n                /* \"#utility.yul\":5030:5107   */\n              0x4e487b7100000000000000000000000000000000000000000000000000000000\n                /* \"#utility.yul\":5027:5028   */\n              0x00\n                /* \"#utility.yul\":5020:5108   */\n              mstore\n                /* \"#utility.yul\":5127:5131   */\n              0x11\n                /* \"#utility.yul\":5124:5125   */\n              0x04\n                /* \"#utility.yul\":5117:5132   */\n              mstore\n                /* \"#utility.yul\":5151:5155   */\n              0x24\n                /* \"#utility.yul\":5148:5149   */\n              0x00\n                /* \"#utility.yul\":5141:5156   */\n              revert\n                /* \"#utility.yul\":5168:5362   */\n            tag_43:\n                /* \"#utility.yul\":5208:5212   */\n              0x00\n                /* \"#utility.yul\":5228:5248   */\n              tag_131\n                /* \"#utility.yul\":5246:5247   */\n              dup3\n                /* \"#utility.yul\":5228:5248   */\n              tag_70\n              jump\t// in\n            tag_131:\n                /* \"#utility.yul\":5223:5248   */\n              swap2\n              pop\n                /* \"#utility.yul\":5262:5282   */\n              tag_132\n                /* \"#utility.yul\":5280:5281   */\n              dup4\n                /* \"#utility.yul\":5262:5282   */\n              tag_70\n              jump\t// in\n            tag_132:\n                /* \"#utility.yul\":5257:5282   */\n              swap3\n              pop\n                /* \"#utility.yul\":5306:5307   */\n              dup3\n                /* \"#utility.yul\":5303:5304   */\n              dup3\n                /* \"#utility.yul\":5299:5308   */\n              sub\n                /* \"#utility.yul\":5291:5308   */\n              swap1\n              pop\n                /* \"#utility.yul\":5330:5331   */\n              dup2\n                /* \"#utility.yul\":5324:5328   */\n              dup2\n                /* \"#utility.yul\":5321:5332   */\n              gt\n                /* \"#utility.yul\":5318:5355   */\n              iszero\n              tag_133\n              jumpi\n                /* \"#utility.yul\":5335:5353   */\n              tag_134\n              tag_79\n              jump\t// in\n            tag_134:\n                /* \"#utility.yul\":5318:5355   */\n            tag_133:\n                /* \"#utility.yul\":5168:5362   */\n              swap3\n              swap2\n              pop\n              pop\n              jump\t// out\n                /* \"#utility.yul\":5368:5559   */\n            tag_52:\n                /* \"#utility.yul\":5408:5411   */\n              0x00\n                /* \"#utility.yul\":5427:5447   */\n              tag_136\n                /* \"#utility.yul\":5445:5446   */\n              dup3\n                /* \"#utility.yul\":5427:5447   */\n              tag_70\n              jump\t// in\n            tag_136:\n                /* \"#utility.yul\":5422:5447   */\n              swap2\n              pop\n                /* \"#utility.yul\":5461:5481   */\n              tag_137\n                /* \"#utility.yul\":5479:5480   */\n              dup4\n                /* \"#utility.yul\":5461:5481   */\n              tag_70\n              jump\t// in\n            tag_137:\n                /* \"#utility.yul\":5456:5481   */\n              swap3\n              pop\n                /* \"#utility.yul\":5504:5505   */\n              dup3\n                /* \"#utility.yul\":5501:5502   */\n              dup3\n                /* \"#utility.yul\":5497:5506   */\n              add\n                /* \"#utility.yul\":5490:5506   */\n              swap1\n              pop\n                /* \"#utility.yul\":5525:5528   */\n              dup1\n                /* \"#utility.yul\":5522:5523   */\n              dup3\n                /* \"#utility.yul\":5519:5529   */\n              gt\n                /* \"#utility.yul\":5516:5552   */\n              iszero\n              tag_138\n              jumpi\n                /* \"#utility.yul\":5532:5550   */\n              tag_139\n              tag_79\n              jump\t// in\n            tag_139:\n                /* \"#utility.yul\":5516:5552   */\n            tag_138:\n                /* \"#utility.yul\":5368:5559   */\n              swap3\n              swap2\n              pop\n              pop\n              jump\t// out\n\n            auxdata: 0xa26469706673582212200f92182d392fcba0c8eb2bde6ab77f9c19c1f5414db6ffb397247a30ecc7dc9864736f6c634300081a0033\n        }\n    }\n\n    auxdata: 0xa26469706673582212204a7e050eaf1db966dd04e10735b8f78c284820b82b8e9fdbfa90f89dff05faf564736f6c634300081a0033\n}\n",
				"bytecode": {
					"linkReferences": {
						"remix_tests.sol": {
							"Assert": [
								{
									"length": 20,
									"start": 707
								},
								{
									"length": 20,
									"start": 1664
								},
								{
									"length": 20,
									"start": 1793
								},
								{
									"length": 20,
									"start": 2589
								},
								{
									"length": 20,
									"start": 3335
								}
							]
						}
					},
					"object": "608060405261012360025f6101000a81548173ffffffffffffffffffffffffffffffffffffffff021916908373ffffffffffffffffffffffffffffffffffffffff1602179055503480156050575f80fd5b503360015f6101000a81548173ffffffffffffffffffffffffffffffffffffffff021916908373ffffffffffffffffffffffffffffffffffffffff160217905550611bf88061009e5f395ff3fe608060405260043610610054575f3560e01c806305f6ac2514610058578063361c78ea146100825780634b21878a1461008c5780636331e7d4146100965780638b8e5739146100ac578063d8bfc408146100b6575b5f80fd5b348015610063575f80fd5b5061006c6100c0565b6040516100799190610d72565b60405180910390f35b61008a6100e3565b005b6100946102a7565b005b3480156100a1575f80fd5b506100aa6106de565b005b6100b4610744565b005b6100be610a0d565b005b5f8054906101000a900473ffffffffffffffffffffffffffffffffffffffff1681565b5f8054906101000a900473ffffffffffffffffffffffffffffffffffffffff1673ffffffffffffffffffffffffffffffffffffffff166376e747e8670de0b6b3a76400006040518263ffffffff1660e01b81526004015f604051808303818588803b158015610150575f80fd5b505af1158015610162573d5f803e3d5ffd5b50505050505f805f9054906101000a900473ffffffffffffffffffffffffffffffffffffffff1673ffffffffffffffffffffffffffffffffffffffff16636386c1c760015f9054906101000a900473ffffffffffffffffffffffffffffffffffffffff166040518263ffffffff1660e01b81526004016101e29190610dab565b6040805180830381865afa1580156101fc573d5f803e3d5ffd5b505050506040513d601f19601f820116820180604052508101906102209190610dfb565b50905073__$acbfb1c35000d78352310b16a054a6b106$__63abcd796082670de0b6b3a76400006040518363ffffffff1660e01b8152600401610264929190610edb565b602060405180830381865af415801561027f573d5f803e3d5ffd5b505050506040513d601f19601f820116820180604052508101906102a39190610f4a565b5050565b5f8054906101000a900473ffffffffffffffffffffffffffffffffffffffff1673ffffffffffffffffffffffffffffffffffffffff166344a320fd670de0b6b3a76400006040518263ffffffff1660e01b81526004016103079190610f84565b5f604051808303815f87803b15801561031e575f80fd5b505af1158015610330573d5f803e3d5ffd5b505050505f8054906101000a900473ffffffffffffffffffffffffffffffffffffffff1673ffffffffffffffffffffffffffffffffffffffff166376e747e8671bc16d674ec800006040518263ffffffff1660e01b81526004015f604051808303818588803b1580156103a1575f80fd5b505af11580156103b3573d5f803e3d5ffd5b50505050505f8054906101000a900473ffffffffffffffffffffffffffffffffffffffff1673ffffffffffffffffffffffffffffffffffffffff1663b724de6060025f9054906101000a900473ffffffffffffffffffffffffffffffffffffffff16670de0b6b3a76400006040518363ffffffff1660e01b815260040161043b929190610f9d565b5f604051808303815f87803b158015610452575f80fd5b505af1158015610464573d5f803e3d5ffd5b505050505f805f9054906101000a900473ffffffffffffffffffffffffffffffffffffffff1673ffffffffffffffffffffffffffffffffffffffff16636386c1c760015f9054906101000a900473ffffffffffffffffffffffffffffffffffffffff166040518263ffffffff1660e01b81526004016104e39190610dab565b6040805180830381865afa1580156104fd573d5f803e3d5ffd5b505050506040513d601f19601f820116820180604052508101906105219190610dfb565b5090505f805f9054906101000a900473ffffffffffffffffffffffffffffffffffffffff1673ffffffffffffffffffffffffffffffffffffffff16636386c1c760025f9054906101000a900473ffffffffffffffffffffffffffffffffffffffff166040518263ffffffff1660e01b815260040161059f9190610dab565b6040805180830381865afa1580156105b9573d5f803e3d5ffd5b505050506040513d601f19601f820116820180604052508101906105dd9190610dfb565b50905073__$acbfb1c35000d78352310b16a054a6b106$__63abcd796083670de0b6b3a76400006040518363ffffffff1660e01b8152600401610621929190611034565b602060405180830381865af415801561063c573d5f803e3d5ffd5b505050506040513d601f19601f820116820180604052508101906106609190610f4a565b5073__$acbfb1c35000d78352310b16a054a6b106$__63abcd7960825f6040518363ffffffff1660e01b815260040161069a929190611117565b602060405180830381865af41580156106b5573d5f803e3d5ffd5b505050506040513d601f19601f820116820180604052508101906106d99190610f4a565b505050565b6040516106ea90610ceb565b604051809103905ff080158015610703573d5f803e3d5ffd5b505f806101000a81548173ffffffffffffffffffffffffffffffffffffffff021916908373ffffffffffffffffffffffffffffffffffffffff160217905550565b5f8054906101000a900473ffffffffffffffffffffffffffffffffffffffff1673ffffffffffffffffffffffffffffffffffffffff166344a320fd670de0b6b3a76400006040518263ffffffff1660e01b81526004016107a49190610f84565b5f604051808303815f87803b1580156107bb575f80fd5b505af11580156107cd573d5f803e3d5ffd5b505050505f8054906101000a900473ffffffffffffffffffffffffffffffffffffffff1673ffffffffffffffffffffffffffffffffffffffff166376e747e8670de0b6b3a76400006040518263ffffffff1660e01b81526004015f604051808303818588803b15801561083e575f80fd5b505af1158015610850573d5f803e3d5ffd5b50505050505f60025f9054906101000a900473ffffffffffffffffffffffffffffffffffffffff1673ffffffffffffffffffffffffffffffffffffffff163190505f8054906101000a900473ffffffffffffffffffffffffffffffffffffffff1673ffffffffffffffffffffffffffffffffffffffff1663b724de6060025f9054906101000a900473ffffffffffffffffffffffffffffffffffffffff16670de0b6b3a76400006040518363ffffffff1660e01b8152600401610914929190610f9d565b5f604051808303815f87803b15801561092b575f80fd5b505af115801561093d573d5f803e3d5ffd5b505050505f60025f9054906101000a900473ffffffffffffffffffffffffffffffffffffffff1673ffffffffffffffffffffffffffffffffffffffff1631905073__$acbfb1c35000d78352310b16a054a6b106$__63abcd796083836109a3919061117e565b670de0b6b3a76400006040518363ffffffff1660e01b81526004016109c99291906111fb565b602060405180830381865af41580156109e4573d5f803e3d5ffd5b505050506040513d601f19601f82011682018060405250810190610a089190610f4a565b505050565b5f8054906101000a900473ffffffffffffffffffffffffffffffffffffffff1673ffffffffffffffffffffffffffffffffffffffff166344a320fd6706f05b59d3b200006040518263ffffffff1660e01b8152600401610a6d919061126e565b5f604051808303815f87803b158015610a84575f80fd5b505af1158015610a96573d5f803e3d5ffd5b505050505f8054906101000a900473ffffffffffffffffffffffffffffffffffffffff1673ffffffffffffffffffffffffffffffffffffffff166376e747e8670de0b6b3a76400006040518263ffffffff1660e01b81526004015f604051808303818588803b158015610b07575f80fd5b505af1158015610b19573d5f803e3d5ffd5b50505050505f8054906101000a900473ffffffffffffffffffffffffffffffffffffffff1673ffffffffffffffffffffffffffffffffffffffff1663067cdf196706f05b59d3b200006040518263ffffffff1660e01b8152600401610b7e919061126e565b5f604051808303815f87803b158015610b95575f80fd5b505af1158015610ba7573d5f803e3d5ffd5b505050505f805f9054906101000a900473ffffffffffffffffffffffffffffffffffffffff1673ffffffffffffffffffffffffffffffffffffffff16636386c1c760015f9054906101000a900473ffffffffffffffffffffffffffffffffffffffff166040518263ffffffff1660e01b8152600401610c269190610dab565b6040805180830381865afa158015610c40573d5f803e3d5ffd5b505050506040513d601f19601f82011682018060405250810190610c649190610dfb565b50905073__$acbfb1c35000d78352310b16a054a6b106$__63abcd7960826706f05b59d3b200006040518363ffffffff1660e01b8152600401610ca8929190611306565b602060405180830381865af4158015610cc3573d5f803e3d5ffd5b505050506040513d601f19601f82011682018060405250810190610ce79190610f4a565b5050565b6108828061134183390190565b5f73ffffffffffffffffffffffffffffffffffffffff82169050919050565b5f819050919050565b5f610d3a610d35610d3084610cf8565b610d17565b610cf8565b9050919050565b5f610d4b82610d20565b9050919050565b5f610d5c82610d41565b9050919050565b610d6c81610d52565b82525050565b5f602082019050610d855f830184610d63565b92915050565b5f610d9582610cf8565b9050919050565b610da581610d8b565b82525050565b5f602082019050610dbe5f830184610d9c565b92915050565b5f80fd5b5f819050919050565b610dda81610dc8565b8114610de4575f80fd5b50565b5f81519050610df581610dd1565b92915050565b5f8060408385031215610e1157610e10610dc4565b5b5f610e1e85828601610de7565b9250506020610e2f85828601610de7565b9150509250929050565b610e4281610dc8565b82525050565b5f819050919050565b5f610e6b610e66610e6184610e48565b610d17565b610dc8565b9050919050565b610e7b81610e51565b82525050565b5f82825260208201905092915050565b7f42616c616e63652073686f756c642062652031204554480000000000000000005f82015250565b5f610ec5601783610e81565b9150610ed082610e91565b602082019050919050565b5f606082019050610eee5f830185610e39565b610efb6020830184610e72565b8181036040830152610f0c81610eb9565b90509392505050565b5f8115159050919050565b610f2981610f15565b8114610f33575f80fd5b50565b5f81519050610f4481610f20565b92915050565b5f60208284031215610f5f57610f5e610dc4565b5b5f610f6c84828501610f36565b91505092915050565b610f7e81610e51565b82525050565b5f602082019050610f975f830184610f75565b92915050565b5f604082019050610fb05f830185610d9c565b610fbd6020830184610f75565b9392505050565b7f4f776e65722062616c616e63652073686f756c642062652031204554482061665f8201527f7465722073656e64696e67000000000000000000000000000000000000000000602082015250565b5f61101e602b83610e81565b915061102982610fc4565b604082019050919050565b5f6060820190506110475f830185610e39565b6110546020830184610e72565b818103604083015261106581611012565b90509392505050565b5f819050919050565b5f61109161108c6110878461106e565b610d17565b610dc8565b9050919050565b6110a181611077565b82525050565b7f55736572312062616c616e636520696e20636f6e74726163742073686f756c645f8201527f2072656d61696e20300000000000000000000000000000000000000000000000602082015250565b5f611101602983610e81565b915061110c826110a7565b604082019050919050565b5f60608201905061112a5f830185610e39565b6111376020830184611098565b8181036040830152611148816110f5565b90509392505050565b7f4e487b71000000000000000000000000000000000000000000000000000000005f52601160045260245ffd5b5f61118882610dc8565b915061119383610dc8565b92508282039050818111156111ab576111aa611151565b5b92915050565b7f55736572312073686f756c6420726563656976652031204554480000000000005f82015250565b5f6111e5601a83610e81565b91506111f0826111b1565b602082019050919050565b5f60608201905061120e5f830185610e39565b61121b6020830184610e72565b818103604083015261122c816111d9565b90509392505050565b5f819050919050565b5f61125861125361124e84611235565b610d17565b610dc8565b9050919050565b6112688161123e565b82525050565b5f6020820190506112815f83018461125f565b92915050565b6112908161123e565b82525050565b7f42616c616e63652073686f756c6420626520302e3520455448206166746572205f8201527f7769746864726177616c00000000000000000000000000000000000000000000602082015250565b5f6112f0602a83610e81565b91506112fb82611296565b604082019050919050565b5f6060820190506113195f830185610e39565b6113266020830184611287565b8181036040830152611337816112e4565b9050939250505056fe6080604052348015600e575f80fd5b506108668061001c5f395ff3fe608060405260043610610054575f3560e01c806301a1015814610058578063067cdf191461009557806344a320fd146100b15780636386c1c7146100d957806376e747e814610116578063b724de6014610120575b5f80fd5b348015610063575f80fd5b5061007e6004803603810190610079919061059a565b61013c565b60405161008c9291906105dd565b60405180910390f35b6100af60048036038101906100aa919061062e565b61015b565b005b3480156100bc575f80fd5b506100d760048036038101906100d2919061062e565b61028b565b005b3480156100e4575f80fd5b506100ff60048036038101906100fa919061059a565b6102d2565b60405161010d9291906105dd565b60405180910390f35b61011e61035c565b005b61013a60048036038101906101359190610659565b61040b565b005b5f602052805f5260405f205f91509050805f0154908060010154905082565b5f80610166336102d2565b91509150828210156101ad576040517f08c379a00000000000000000000000000000000000000000000000000000000081526004016101a4906106f1565b60405180910390fd5b8083116101ef576040517f08c379a00000000000000000000000000000000000000000000000000000000081526004016101e69061077f565b60405180910390fd5b82826101fb91906107ca565b5f803373ffffffffffffffffffffffffffffffffffffffff1673ffffffffffffffffffffffffffffffffffffffff1681526020019081526020015f205f01819055505f3390508073ffffffffffffffffffffffffffffffffffffffff166108fc8590811502906040515f60405180830381858888f19350505050158015610284573d5f803e3d5ffd5b5050505050565b805f803373ffffffffffffffffffffffffffffffffffffffff1673ffffffffffffffffffffffffffffffffffffffff1681526020019081526020015f206001018190555050565b5f805f808473ffffffffffffffffffffffffffffffffffffffff1673ffffffffffffffffffffffffffffffffffffffff1681526020019081526020015f205f01545f808573ffffffffffffffffffffffffffffffffffffffff1673ffffffffffffffffffffffffffffffffffffffff1681526020019081526020015f206001015491509150915091565b5f610366336102d2565b5090505f8111156103c457348161037d91906107fd565b5f803373ffffffffffffffffffffffffffffffffffffffff1673ffffffffffffffffffffffffffffffffffffffff1681526020019081526020015f205f0181905550610408565b345f803373ffffffffffffffffffffffffffffffffffffffff1673ffffffffffffffffffffffffffffffffffffffff1681526020019081526020015f205f01819055505b50565b5f80610416336102d2565b915091508282101561045d576040517f08c379a0000000000000000000000000000000000000000000000000000000008152600401610454906106f1565b60405180910390fd5b80831161049f576040517f08c379a00000000000000000000000000000000000000000000000000000000081526004016104969061077f565b60405180910390fd5b82826104ab91906107ca565b5f803373ffffffffffffffffffffffffffffffffffffffff1673ffffffffffffffffffffffffffffffffffffffff1681526020019081526020015f205f01819055505f8490508073ffffffffffffffffffffffffffffffffffffffff166108fc8590811502906040515f60405180830381858888f19350505050158015610534573d5f803e3d5ffd5b505050505050565b5f80fd5b5f73ffffffffffffffffffffffffffffffffffffffff82169050919050565b5f61056982610540565b9050919050565b6105798161055f565b8114610583575f80fd5b50565b5f8135905061059481610570565b92915050565b5f602082840312156105af576105ae61053c565b5b5f6105bc84828501610586565b91505092915050565b5f819050919050565b6105d7816105c5565b82525050565b5f6040820190506105f05f8301856105ce565b6105fd60208301846105ce565b9392505050565b61060d816105c5565b8114610617575f80fd5b50565b5f8135905061062881610604565b92915050565b5f602082840312156106435761064261053c565b5b5f6106508482850161061a565b91505092915050565b5f806040838503121561066f5761066e61053c565b5b5f61067c85828601610586565b925050602061068d8582860161061a565b9150509250929050565b5f82825260208201905092915050565b7f4e6f7420656e6f756768206d6f6e6579000000000000000000000000000000005f82015250565b5f6106db601083610697565b91506106e6826106a7565b602082019050919050565b5f6020820190508181035f830152610708816106cf565b9050919050565b7f5472616e73616374696f6e20626967676572207468616e20696e7374616c6c655f8201527f64206c696d697400000000000000000000000000000000000000000000000000602082015250565b5f610769602783610697565b91506107748261070f565b604082019050919050565b5f6020820190508181035f8301526107968161075d565b9050919050565b7f4e487b71000000000000000000000000000000000000000000000000000000005f52601160045260245ffd5b5f6107d4826105c5565b91506107df836105c5565b92508282039050818111156107f7576107f661079d565b5b92915050565b5f610807826105c5565b9150610812836105c5565b925082820190508082111561082a5761082961079d565b5b9291505056fea26469706673582212200f92182d392fcba0c8eb2bde6ab77f9c19c1f5414db6ffb397247a30ecc7dc9864736f6c634300081a0033a26469706673582212204a7e050eaf1db966dd04e10735b8f78c284820b82b8e9fdbfa90f89dff05faf564736f6c634300081a0033",
					"opcodes": "PUSH1 0x80 PUSH1 0x40 MSTORE PUSH2 0x123 PUSH1 0x2 PUSH0 PUSH2 0x100 EXP DUP2 SLOAD DUP2 PUSH20 0xFFFFFFFFFFFFFFFFFFFFFFFFFFFFFFFFFFFFFFFF MUL NOT AND SWAP1 DUP4 PUSH20 0xFFFFFFFFFFFFFFFFFFFFFFFFFFFFFFFFFFFFFFFF AND MUL OR SWAP1 SSTORE POP CALLVALUE DUP1 ISZERO PUSH1 0x50 JUMPI PUSH0 DUP1 REVERT JUMPDEST POP CALLER PUSH1 0x1 PUSH0 PUSH2 0x100 EXP DUP2 SLOAD DUP2 PUSH20 0xFFFFFFFFFFFFFFFFFFFFFFFFFFFFFFFFFFFFFFFF MUL NOT AND SWAP1 DUP4 PUSH20 0xFFFFFFFFFFFFFFFFFFFFFFFFFFFFFFFFFFFFFFFF AND MUL OR SWAP1 SSTORE POP PUSH2 0x1BF8 DUP1 PUSH2 0x9E PUSH0 CODECOPY PUSH0 RETURN INVALID PUSH1 0x80 PUSH1 0x40 MSTORE PUSH1 0x4 CALLDATASIZE LT PUSH2 0x54 JUMPI PUSH0 CALLDATALOAD PUSH1 0xE0 SHR DUP1 PUSH4 0x5F6AC25 EQ PUSH2 0x58 JUMPI DUP1 PUSH4 0x361C78EA EQ PUSH2 0x82 JUMPI DUP1 PUSH4 0x4B21878A EQ PUSH2 0x8C JUMPI DUP1 PUSH4 0x6331E7D4 EQ PUSH2 0x96 JUMPI DUP1 PUSH4 0x8B8E5739 EQ PUSH2 0xAC JUMPI DUP1 PUSH4 0xD8BFC408 EQ PUSH2 0xB6 JUMPI JUMPDEST PUSH0 DUP1 REVERT JUMPDEST CALLVALUE DUP1 ISZERO PUSH2 0x63 JUMPI PUSH0 DUP1 REVERT JUMPDEST POP PUSH2 0x6C PUSH2 0xC0 JUMP JUMPDEST PUSH1 0x40 MLOAD PUSH2 0x79 SWAP2 SWAP1 PUSH2 0xD72 JUMP JUMPDEST PUSH1 0x40 MLOAD DUP1 SWAP2 SUB SWAP1 RETURN JUMPDEST PUSH2 0x8A PUSH2 0xE3 JUMP JUMPDEST STOP JUMPDEST PUSH2 0x94 PUSH2 0x2A7 JUMP JUMPDEST STOP JUMPDEST CALLVALUE DUP1 ISZERO PUSH2 0xA1 JUMPI PUSH0 DUP1 REVERT JUMPDEST POP PUSH2 0xAA PUSH2 0x6DE JUMP JUMPDEST STOP JUMPDEST PUSH2 0xB4 PUSH2 0x744 JUMP JUMPDEST STOP JUMPDEST PUSH2 0xBE PUSH2 0xA0D JUMP JUMPDEST STOP JUMPDEST PUSH0 DUP1 SLOAD SWAP1 PUSH2 0x100 EXP SWAP1 DIV PUSH20 0xFFFFFFFFFFFFFFFFFFFFFFFFFFFFFFFFFFFFFFFF AND DUP2 JUMP JUMPDEST PUSH0 DUP1 SLOAD SWAP1 PUSH2 0x100 EXP SWAP1 DIV PUSH20 0xFFFFFFFFFFFFFFFFFFFFFFFFFFFFFFFFFFFFFFFF AND PUSH20 0xFFFFFFFFFFFFFFFFFFFFFFFFFFFFFFFFFFFFFFFF AND PUSH4 0x76E747E8 PUSH8 0xDE0B6B3A7640000 PUSH1 0x40 MLOAD DUP3 PUSH4 0xFFFFFFFF AND PUSH1 0xE0 SHL DUP2 MSTORE PUSH1 0x4 ADD PUSH0 PUSH1 0x40 MLOAD DUP1 DUP4 SUB DUP2 DUP6 DUP9 DUP1 EXTCODESIZE ISZERO DUP1 ISZERO PUSH2 0x150 JUMPI PUSH0 DUP1 REVERT JUMPDEST POP GAS CALL ISZERO DUP1 ISZERO PUSH2 0x162 JUMPI RETURNDATASIZE PUSH0 DUP1 RETURNDATACOPY RETURNDATASIZE PUSH0 REVERT JUMPDEST POP POP POP POP POP PUSH0 DUP1 PUSH0 SWAP1 SLOAD SWAP1 PUSH2 0x100 EXP SWAP1 DIV PUSH20 0xFFFFFFFFFFFFFFFFFFFFFFFFFFFFFFFFFFFFFFFF AND PUSH20 0xFFFFFFFFFFFFFFFFFFFFFFFFFFFFFFFFFFFFFFFF AND PUSH4 0x6386C1C7 PUSH1 0x1 PUSH0 SWAP1 SLOAD SWAP1 PUSH2 0x100 EXP SWAP1 DIV PUSH20 0xFFFFFFFFFFFFFFFFFFFFFFFFFFFFFFFFFFFFFFFF AND PUSH1 0x40 MLOAD DUP3 PUSH4 0xFFFFFFFF AND PUSH1 0xE0 SHL DUP2 MSTORE PUSH1 0x4 ADD PUSH2 0x1E2 SWAP2 SWAP1 PUSH2 0xDAB JUMP JUMPDEST PUSH1 0x40 DUP1 MLOAD DUP1 DUP4 SUB DUP2 DUP7 GAS STATICCALL ISZERO DUP1 ISZERO PUSH2 0x1FC JUMPI RETURNDATASIZE PUSH0 DUP1 RETURNDATACOPY RETURNDATASIZE PUSH0 REVERT JUMPDEST POP POP POP POP PUSH1 0x40 MLOAD RETURNDATASIZE PUSH1 0x1F NOT PUSH1 0x1F DUP3 ADD AND DUP3 ADD DUP1 PUSH1 0x40 MSTORE POP DUP2 ADD SWAP1 PUSH2 0x220 SWAP2 SWAP1 PUSH2 0xDFB JUMP JUMPDEST POP SWAP1 POP PUSH20 0x0 PUSH4 0xABCD7960 DUP3 PUSH8 0xDE0B6B3A7640000 PUSH1 0x40 MLOAD DUP4 PUSH4 0xFFFFFFFF AND PUSH1 0xE0 SHL DUP2 MSTORE PUSH1 0x4 ADD PUSH2 0x264 SWAP3 SWAP2 SWAP1 PUSH2 0xEDB JUMP JUMPDEST PUSH1 0x20 PUSH1 0x40 MLOAD DUP1 DUP4 SUB DUP2 DUP7 GAS DELEGATECALL ISZERO DUP1 ISZERO PUSH2 0x27F JUMPI RETURNDATASIZE PUSH0 DUP1 RETURNDATACOPY RETURNDATASIZE PUSH0 REVERT JUMPDEST POP POP POP POP PUSH1 0x40 MLOAD RETURNDATASIZE PUSH1 0x1F NOT PUSH1 0x1F DUP3 ADD AND DUP3 ADD DUP1 PUSH1 0x40 MSTORE POP DUP2 ADD SWAP1 PUSH2 0x2A3 SWAP2 SWAP1 PUSH2 0xF4A JUMP JUMPDEST POP POP JUMP JUMPDEST PUSH0 DUP1 SLOAD SWAP1 PUSH2 0x100 EXP SWAP1 DIV PUSH20 0xFFFFFFFFFFFFFFFFFFFFFFFFFFFFFFFFFFFFFFFF AND PUSH20 0xFFFFFFFFFFFFFFFFFFFFFFFFFFFFFFFFFFFFFFFF AND PUSH4 0x44A320FD PUSH8 0xDE0B6B3A7640000 PUSH1 0x40 MLOAD DUP3 PUSH4 0xFFFFFFFF AND PUSH1 0xE0 SHL DUP2 MSTORE PUSH1 0x4 ADD PUSH2 0x307 SWAP2 SWAP1 PUSH2 0xF84 JUMP JUMPDEST PUSH0 PUSH1 0x40 MLOAD DUP1 DUP4 SUB DUP2 PUSH0 DUP8 DUP1 EXTCODESIZE ISZERO DUP1 ISZERO PUSH2 0x31E JUMPI PUSH0 DUP1 REVERT JUMPDEST POP GAS CALL ISZERO DUP1 ISZERO PUSH2 0x330 JUMPI RETURNDATASIZE PUSH0 DUP1 RETURNDATACOPY RETURNDATASIZE PUSH0 REVERT JUMPDEST POP POP POP POP PUSH0 DUP1 SLOAD SWAP1 PUSH2 0x100 EXP SWAP1 DIV PUSH20 0xFFFFFFFFFFFFFFFFFFFFFFFFFFFFFFFFFFFFFFFF AND PUSH20 0xFFFFFFFFFFFFFFFFFFFFFFFFFFFFFFFFFFFFFFFF AND PUSH4 0x76E747E8 PUSH8 0x1BC16D674EC80000 PUSH1 0x40 MLOAD DUP3 PUSH4 0xFFFFFFFF AND PUSH1 0xE0 SHL DUP2 MSTORE PUSH1 0x4 ADD PUSH0 PUSH1 0x40 MLOAD DUP1 DUP4 SUB DUP2 DUP6 DUP9 DUP1 EXTCODESIZE ISZERO DUP1 ISZERO PUSH2 0x3A1 JUMPI PUSH0 DUP1 REVERT JUMPDEST POP GAS CALL ISZERO DUP1 ISZERO PUSH2 0x3B3 JUMPI RETURNDATASIZE PUSH0 DUP1 RETURNDATACOPY RETURNDATASIZE PUSH0 REVERT JUMPDEST POP POP POP POP POP PUSH0 DUP1 SLOAD SWAP1 PUSH2 0x100 EXP SWAP1 DIV PUSH20 0xFFFFFFFFFFFFFFFFFFFFFFFFFFFFFFFFFFFFFFFF AND PUSH20 0xFFFFFFFFFFFFFFFFFFFFFFFFFFFFFFFFFFFFFFFF AND PUSH4 0xB724DE60 PUSH1 0x2 PUSH0 SWAP1 SLOAD SWAP1 PUSH2 0x100 EXP SWAP1 DIV PUSH20 0xFFFFFFFFFFFFFFFFFFFFFFFFFFFFFFFFFFFFFFFF AND PUSH8 0xDE0B6B3A7640000 PUSH1 0x40 MLOAD DUP4 PUSH4 0xFFFFFFFF AND PUSH1 0xE0 SHL DUP2 MSTORE PUSH1 0x4 ADD PUSH2 0x43B SWAP3 SWAP2 SWAP1 PUSH2 0xF9D JUMP JUMPDEST PUSH0 PUSH1 0x40 MLOAD DUP1 DUP4 SUB DUP2 PUSH0 DUP8 DUP1 EXTCODESIZE ISZERO DUP1 ISZERO PUSH2 0x452 JUMPI PUSH0 DUP1 REVERT JUMPDEST POP GAS CALL ISZERO DUP1 ISZERO PUSH2 0x464 JUMPI RETURNDATASIZE PUSH0 DUP1 RETURNDATACOPY RETURNDATASIZE PUSH0 REVERT JUMPDEST POP POP POP POP PUSH0 DUP1 PUSH0 SWAP1 SLOAD SWAP1 PUSH2 0x100 EXP SWAP1 DIV PUSH20 0xFFFFFFFFFFFFFFFFFFFFFFFFFFFFFFFFFFFFFFFF AND PUSH20 0xFFFFFFFFFFFFFFFFFFFFFFFFFFFFFFFFFFFFFFFF AND PUSH4 0x6386C1C7 PUSH1 0x1 PUSH0 SWAP1 SLOAD SWAP1 PUSH2 0x100 EXP SWAP1 DIV PUSH20 0xFFFFFFFFFFFFFFFFFFFFFFFFFFFFFFFFFFFFFFFF AND PUSH1 0x40 MLOAD DUP3 PUSH4 0xFFFFFFFF AND PUSH1 0xE0 SHL DUP2 MSTORE PUSH1 0x4 ADD PUSH2 0x4E3 SWAP2 SWAP1 PUSH2 0xDAB JUMP JUMPDEST PUSH1 0x40 DUP1 MLOAD DUP1 DUP4 SUB DUP2 DUP7 GAS STATICCALL ISZERO DUP1 ISZERO PUSH2 0x4FD JUMPI RETURNDATASIZE PUSH0 DUP1 RETURNDATACOPY RETURNDATASIZE PUSH0 REVERT JUMPDEST POP POP POP POP PUSH1 0x40 MLOAD RETURNDATASIZE PUSH1 0x1F NOT PUSH1 0x1F DUP3 ADD AND DUP3 ADD DUP1 PUSH1 0x40 MSTORE POP DUP2 ADD SWAP1 PUSH2 0x521 SWAP2 SWAP1 PUSH2 0xDFB JUMP JUMPDEST POP SWAP1 POP PUSH0 DUP1 PUSH0 SWAP1 SLOAD SWAP1 PUSH2 0x100 EXP SWAP1 DIV PUSH20 0xFFFFFFFFFFFFFFFFFFFFFFFFFFFFFFFFFFFFFFFF AND PUSH20 0xFFFFFFFFFFFFFFFFFFFFFFFFFFFFFFFFFFFFFFFF AND PUSH4 0x6386C1C7 PUSH1 0x2 PUSH0 SWAP1 SLOAD SWAP1 PUSH2 0x100 EXP SWAP1 DIV PUSH20 0xFFFFFFFFFFFFFFFFFFFFFFFFFFFFFFFFFFFFFFFF AND PUSH1 0x40 MLOAD DUP3 PUSH4 0xFFFFFFFF AND PUSH1 0xE0 SHL DUP2 MSTORE PUSH1 0x4 ADD PUSH2 0x59F SWAP2 SWAP1 PUSH2 0xDAB JUMP JUMPDEST PUSH1 0x40 DUP1 MLOAD DUP1 DUP4 SUB DUP2 DUP7 GAS STATICCALL ISZERO DUP1 ISZERO PUSH2 0x5B9 JUMPI RETURNDATASIZE PUSH0 DUP1 RETURNDATACOPY RETURNDATASIZE PUSH0 REVERT JUMPDEST POP POP POP POP PUSH1 0x40 MLOAD RETURNDATASIZE PUSH1 0x1F NOT PUSH1 0x1F DUP3 ADD AND DUP3 ADD DUP1 PUSH1 0x40 MSTORE POP DUP2 ADD SWAP1 PUSH2 0x5DD SWAP2 SWAP1 PUSH2 0xDFB JUMP JUMPDEST POP SWAP1 POP PUSH20 0x0 PUSH4 0xABCD7960 DUP4 PUSH8 0xDE0B6B3A7640000 PUSH1 0x40 MLOAD DUP4 PUSH4 0xFFFFFFFF AND PUSH1 0xE0 SHL DUP2 MSTORE PUSH1 0x4 ADD PUSH2 0x621 SWAP3 SWAP2 SWAP1 PUSH2 0x1034 JUMP JUMPDEST PUSH1 0x20 PUSH1 0x40 MLOAD DUP1 DUP4 SUB DUP2 DUP7 GAS DELEGATECALL ISZERO DUP1 ISZERO PUSH2 0x63C JUMPI RETURNDATASIZE PUSH0 DUP1 RETURNDATACOPY RETURNDATASIZE PUSH0 REVERT JUMPDEST POP POP POP POP PUSH1 0x40 MLOAD RETURNDATASIZE PUSH1 0x1F NOT PUSH1 0x1F DUP3 ADD AND DUP3 ADD DUP1 PUSH1 0x40 MSTORE POP DUP2 ADD SWAP1 PUSH2 0x660 SWAP2 SWAP1 PUSH2 0xF4A JUMP JUMPDEST POP PUSH20 0x0 PUSH4 0xABCD7960 DUP3 PUSH0 PUSH1 0x40 MLOAD DUP4 PUSH4 0xFFFFFFFF AND PUSH1 0xE0 SHL DUP2 MSTORE PUSH1 0x4 ADD PUSH2 0x69A SWAP3 SWAP2 SWAP1 PUSH2 0x1117 JUMP JUMPDEST PUSH1 0x20 PUSH1 0x40 MLOAD DUP1 DUP4 SUB DUP2 DUP7 GAS DELEGATECALL ISZERO DUP1 ISZERO PUSH2 0x6B5 JUMPI RETURNDATASIZE PUSH0 DUP1 RETURNDATACOPY RETURNDATASIZE PUSH0 REVERT JUMPDEST POP POP POP POP PUSH1 0x40 MLOAD RETURNDATASIZE PUSH1 0x1F NOT PUSH1 0x1F DUP3 ADD AND DUP3 ADD DUP1 PUSH1 0x40 MSTORE POP DUP2 ADD SWAP1 PUSH2 0x6D9 SWAP2 SWAP1 PUSH2 0xF4A JUMP JUMPDEST POP POP POP JUMP JUMPDEST PUSH1 0x40 MLOAD PUSH2 0x6EA SWAP1 PUSH2 0xCEB JUMP JUMPDEST PUSH1 0x40 MLOAD DUP1 SWAP2 SUB SWAP1 PUSH0 CREATE DUP1 ISZERO DUP1 ISZERO PUSH2 0x703 JUMPI RETURNDATASIZE PUSH0 DUP1 RETURNDATACOPY RETURNDATASIZE PUSH0 REVERT JUMPDEST POP PUSH0 DUP1 PUSH2 0x100 EXP DUP2 SLOAD DUP2 PUSH20 0xFFFFFFFFFFFFFFFFFFFFFFFFFFFFFFFFFFFFFFFF MUL NOT AND SWAP1 DUP4 PUSH20 0xFFFFFFFFFFFFFFFFFFFFFFFFFFFFFFFFFFFFFFFF AND MUL OR SWAP1 SSTORE POP JUMP JUMPDEST PUSH0 DUP1 SLOAD SWAP1 PUSH2 0x100 EXP SWAP1 DIV PUSH20 0xFFFFFFFFFFFFFFFFFFFFFFFFFFFFFFFFFFFFFFFF AND PUSH20 0xFFFFFFFFFFFFFFFFFFFFFFFFFFFFFFFFFFFFFFFF AND PUSH4 0x44A320FD PUSH8 0xDE0B6B3A7640000 PUSH1 0x40 MLOAD DUP3 PUSH4 0xFFFFFFFF AND PUSH1 0xE0 SHL DUP2 MSTORE PUSH1 0x4 ADD PUSH2 0x7A4 SWAP2 SWAP1 PUSH2 0xF84 JUMP JUMPDEST PUSH0 PUSH1 0x40 MLOAD DUP1 DUP4 SUB DUP2 PUSH0 DUP8 DUP1 EXTCODESIZE ISZERO DUP1 ISZERO PUSH2 0x7BB JUMPI PUSH0 DUP1 REVERT JUMPDEST POP GAS CALL ISZERO DUP1 ISZERO PUSH2 0x7CD JUMPI RETURNDATASIZE PUSH0 DUP1 RETURNDATACOPY RETURNDATASIZE PUSH0 REVERT JUMPDEST POP POP POP POP PUSH0 DUP1 SLOAD SWAP1 PUSH2 0x100 EXP SWAP1 DIV PUSH20 0xFFFFFFFFFFFFFFFFFFFFFFFFFFFFFFFFFFFFFFFF AND PUSH20 0xFFFFFFFFFFFFFFFFFFFFFFFFFFFFFFFFFFFFFFFF AND PUSH4 0x76E747E8 PUSH8 0xDE0B6B3A7640000 PUSH1 0x40 MLOAD DUP3 PUSH4 0xFFFFFFFF AND PUSH1 0xE0 SHL DUP2 MSTORE PUSH1 0x4 ADD PUSH0 PUSH1 0x40 MLOAD DUP1 DUP4 SUB DUP2 DUP6 DUP9 DUP1 EXTCODESIZE ISZERO DUP1 ISZERO PUSH2 0x83E JUMPI PUSH0 DUP1 REVERT JUMPDEST POP GAS CALL ISZERO DUP1 ISZERO PUSH2 0x850 JUMPI RETURNDATASIZE PUSH0 DUP1 RETURNDATACOPY RETURNDATASIZE PUSH0 REVERT JUMPDEST POP POP POP POP POP PUSH0 PUSH1 0x2 PUSH0 SWAP1 SLOAD SWAP1 PUSH2 0x100 EXP SWAP1 DIV PUSH20 0xFFFFFFFFFFFFFFFFFFFFFFFFFFFFFFFFFFFFFFFF AND PUSH20 0xFFFFFFFFFFFFFFFFFFFFFFFFFFFFFFFFFFFFFFFF AND BALANCE SWAP1 POP PUSH0 DUP1 SLOAD SWAP1 PUSH2 0x100 EXP SWAP1 DIV PUSH20 0xFFFFFFFFFFFFFFFFFFFFFFFFFFFFFFFFFFFFFFFF AND PUSH20 0xFFFFFFFFFFFFFFFFFFFFFFFFFFFFFFFFFFFFFFFF AND PUSH4 0xB724DE60 PUSH1 0x2 PUSH0 SWAP1 SLOAD SWAP1 PUSH2 0x100 EXP SWAP1 DIV PUSH20 0xFFFFFFFFFFFFFFFFFFFFFFFFFFFFFFFFFFFFFFFF AND PUSH8 0xDE0B6B3A7640000 PUSH1 0x40 MLOAD DUP4 PUSH4 0xFFFFFFFF AND PUSH1 0xE0 SHL DUP2 MSTORE PUSH1 0x4 ADD PUSH2 0x914 SWAP3 SWAP2 SWAP1 PUSH2 0xF9D JUMP JUMPDEST PUSH0 PUSH1 0x40 MLOAD DUP1 DUP4 SUB DUP2 PUSH0 DUP8 DUP1 EXTCODESIZE ISZERO DUP1 ISZERO PUSH2 0x92B JUMPI PUSH0 DUP1 REVERT JUMPDEST POP GAS CALL ISZERO DUP1 ISZERO PUSH2 0x93D JUMPI RETURNDATASIZE PUSH0 DUP1 RETURNDATACOPY RETURNDATASIZE PUSH0 REVERT JUMPDEST POP POP POP POP PUSH0 PUSH1 0x2 PUSH0 SWAP1 SLOAD SWAP1 PUSH2 0x100 EXP SWAP1 DIV PUSH20 0xFFFFFFFFFFFFFFFFFFFFFFFFFFFFFFFFFFFFFFFF AND PUSH20 0xFFFFFFFFFFFFFFFFFFFFFFFFFFFFFFFFFFFFFFFF AND BALANCE SWAP1 POP PUSH20 0x0 PUSH4 0xABCD7960 DUP4 DUP4 PUSH2 0x9A3 SWAP2 SWAP1 PUSH2 0x117E JUMP JUMPDEST PUSH8 0xDE0B6B3A7640000 PUSH1 0x40 MLOAD DUP4 PUSH4 0xFFFFFFFF AND PUSH1 0xE0 SHL DUP2 MSTORE PUSH1 0x4 ADD PUSH2 0x9C9 SWAP3 SWAP2 SWAP1 PUSH2 0x11FB JUMP JUMPDEST PUSH1 0x20 PUSH1 0x40 MLOAD DUP1 DUP4 SUB DUP2 DUP7 GAS DELEGATECALL ISZERO DUP1 ISZERO PUSH2 0x9E4 JUMPI RETURNDATASIZE PUSH0 DUP1 RETURNDATACOPY RETURNDATASIZE PUSH0 REVERT JUMPDEST POP POP POP POP PUSH1 0x40 MLOAD RETURNDATASIZE PUSH1 0x1F NOT PUSH1 0x1F DUP3 ADD AND DUP3 ADD DUP1 PUSH1 0x40 MSTORE POP DUP2 ADD SWAP1 PUSH2 0xA08 SWAP2 SWAP1 PUSH2 0xF4A JUMP JUMPDEST POP POP POP JUMP JUMPDEST PUSH0 DUP1 SLOAD SWAP1 PUSH2 0x100 EXP SWAP1 DIV PUSH20 0xFFFFFFFFFFFFFFFFFFFFFFFFFFFFFFFFFFFFFFFF AND PUSH20 0xFFFFFFFFFFFFFFFFFFFFFFFFFFFFFFFFFFFFFFFF AND PUSH4 0x44A320FD PUSH8 0x6F05B59D3B20000 PUSH1 0x40 MLOAD DUP3 PUSH4 0xFFFFFFFF AND PUSH1 0xE0 SHL DUP2 MSTORE PUSH1 0x4 ADD PUSH2 0xA6D SWAP2 SWAP1 PUSH2 0x126E JUMP JUMPDEST PUSH0 PUSH1 0x40 MLOAD DUP1 DUP4 SUB DUP2 PUSH0 DUP8 DUP1 EXTCODESIZE ISZERO DUP1 ISZERO PUSH2 0xA84 JUMPI PUSH0 DUP1 REVERT JUMPDEST POP GAS CALL ISZERO DUP1 ISZERO PUSH2 0xA96 JUMPI RETURNDATASIZE PUSH0 DUP1 RETURNDATACOPY RETURNDATASIZE PUSH0 REVERT JUMPDEST POP POP POP POP PUSH0 DUP1 SLOAD SWAP1 PUSH2 0x100 EXP SWAP1 DIV PUSH20 0xFFFFFFFFFFFFFFFFFFFFFFFFFFFFFFFFFFFFFFFF AND PUSH20 0xFFFFFFFFFFFFFFFFFFFFFFFFFFFFFFFFFFFFFFFF AND PUSH4 0x76E747E8 PUSH8 0xDE0B6B3A7640000 PUSH1 0x40 MLOAD DUP3 PUSH4 0xFFFFFFFF AND PUSH1 0xE0 SHL DUP2 MSTORE PUSH1 0x4 ADD PUSH0 PUSH1 0x40 MLOAD DUP1 DUP4 SUB DUP2 DUP6 DUP9 DUP1 EXTCODESIZE ISZERO DUP1 ISZERO PUSH2 0xB07 JUMPI PUSH0 DUP1 REVERT JUMPDEST POP GAS CALL ISZERO DUP1 ISZERO PUSH2 0xB19 JUMPI RETURNDATASIZE PUSH0 DUP1 RETURNDATACOPY RETURNDATASIZE PUSH0 REVERT JUMPDEST POP POP POP POP POP PUSH0 DUP1 SLOAD SWAP1 PUSH2 0x100 EXP SWAP1 DIV PUSH20 0xFFFFFFFFFFFFFFFFFFFFFFFFFFFFFFFFFFFFFFFF AND PUSH20 0xFFFFFFFFFFFFFFFFFFFFFFFFFFFFFFFFFFFFFFFF AND PUSH4 0x67CDF19 PUSH8 0x6F05B59D3B20000 PUSH1 0x40 MLOAD DUP3 PUSH4 0xFFFFFFFF AND PUSH1 0xE0 SHL DUP2 MSTORE PUSH1 0x4 ADD PUSH2 0xB7E SWAP2 SWAP1 PUSH2 0x126E JUMP JUMPDEST PUSH0 PUSH1 0x40 MLOAD DUP1 DUP4 SUB DUP2 PUSH0 DUP8 DUP1 EXTCODESIZE ISZERO DUP1 ISZERO PUSH2 0xB95 JUMPI PUSH0 DUP1 REVERT JUMPDEST POP GAS CALL ISZERO DUP1 ISZERO PUSH2 0xBA7 JUMPI RETURNDATASIZE PUSH0 DUP1 RETURNDATACOPY RETURNDATASIZE PUSH0 REVERT JUMPDEST POP POP POP POP PUSH0 DUP1 PUSH0 SWAP1 SLOAD SWAP1 PUSH2 0x100 EXP SWAP1 DIV PUSH20 0xFFFFFFFFFFFFFFFFFFFFFFFFFFFFFFFFFFFFFFFF AND PUSH20 0xFFFFFFFFFFFFFFFFFFFFFFFFFFFFFFFFFFFFFFFF AND PUSH4 0x6386C1C7 PUSH1 0x1 PUSH0 SWAP1 SLOAD SWAP1 PUSH2 0x100 EXP SWAP1 DIV PUSH20 0xFFFFFFFFFFFFFFFFFFFFFFFFFFFFFFFFFFFFFFFF AND PUSH1 0x40 MLOAD DUP3 PUSH4 0xFFFFFFFF AND PUSH1 0xE0 SHL DUP2 MSTORE PUSH1 0x4 ADD PUSH2 0xC26 SWAP2 SWAP1 PUSH2 0xDAB JUMP JUMPDEST PUSH1 0x40 DUP1 MLOAD DUP1 DUP4 SUB DUP2 DUP7 GAS STATICCALL ISZERO DUP1 ISZERO PUSH2 0xC40 JUMPI RETURNDATASIZE PUSH0 DUP1 RETURNDATACOPY RETURNDATASIZE PUSH0 REVERT JUMPDEST POP POP POP POP PUSH1 0x40 MLOAD RETURNDATASIZE PUSH1 0x1F NOT PUSH1 0x1F DUP3 ADD AND DUP3 ADD DUP1 PUSH1 0x40 MSTORE POP DUP2 ADD SWAP1 PUSH2 0xC64 SWAP2 SWAP1 PUSH2 0xDFB JUMP JUMPDEST POP SWAP1 POP PUSH20 0x0 PUSH4 0xABCD7960 DUP3 PUSH8 0x6F05B59D3B20000 PUSH1 0x40 MLOAD DUP4 PUSH4 0xFFFFFFFF AND PUSH1 0xE0 SHL DUP2 MSTORE PUSH1 0x4 ADD PUSH2 0xCA8 SWAP3 SWAP2 SWAP1 PUSH2 0x1306 JUMP JUMPDEST PUSH1 0x20 PUSH1 0x40 MLOAD DUP1 DUP4 SUB DUP2 DUP7 GAS DELEGATECALL ISZERO DUP1 ISZERO PUSH2 0xCC3 JUMPI RETURNDATASIZE PUSH0 DUP1 RETURNDATACOPY RETURNDATASIZE PUSH0 REVERT JUMPDEST POP POP POP POP PUSH1 0x40 MLOAD RETURNDATASIZE PUSH1 0x1F NOT PUSH1 0x1F DUP3 ADD AND DUP3 ADD DUP1 PUSH1 0x40 MSTORE POP DUP2 ADD SWAP1 PUSH2 0xCE7 SWAP2 SWAP1 PUSH2 0xF4A JUMP JUMPDEST POP POP JUMP JUMPDEST PUSH2 0x882 DUP1 PUSH2 0x1341 DUP4 CODECOPY ADD SWAP1 JUMP JUMPDEST PUSH0 PUSH20 0xFFFFFFFFFFFFFFFFFFFFFFFFFFFFFFFFFFFFFFFF DUP3 AND SWAP1 POP SWAP2 SWAP1 POP JUMP JUMPDEST PUSH0 DUP2 SWAP1 POP SWAP2 SWAP1 POP JUMP JUMPDEST PUSH0 PUSH2 0xD3A PUSH2 0xD35 PUSH2 0xD30 DUP5 PUSH2 0xCF8 JUMP JUMPDEST PUSH2 0xD17 JUMP JUMPDEST PUSH2 0xCF8 JUMP JUMPDEST SWAP1 POP SWAP2 SWAP1 POP JUMP JUMPDEST PUSH0 PUSH2 0xD4B DUP3 PUSH2 0xD20 JUMP JUMPDEST SWAP1 POP SWAP2 SWAP1 POP JUMP JUMPDEST PUSH0 PUSH2 0xD5C DUP3 PUSH2 0xD41 JUMP JUMPDEST SWAP1 POP SWAP2 SWAP1 POP JUMP JUMPDEST PUSH2 0xD6C DUP2 PUSH2 0xD52 JUMP JUMPDEST DUP3 MSTORE POP POP JUMP JUMPDEST PUSH0 PUSH1 0x20 DUP3 ADD SWAP1 POP PUSH2 0xD85 PUSH0 DUP4 ADD DUP5 PUSH2 0xD63 JUMP JUMPDEST SWAP3 SWAP2 POP POP JUMP JUMPDEST PUSH0 PUSH2 0xD95 DUP3 PUSH2 0xCF8 JUMP JUMPDEST SWAP1 POP SWAP2 SWAP1 POP JUMP JUMPDEST PUSH2 0xDA5 DUP2 PUSH2 0xD8B JUMP JUMPDEST DUP3 MSTORE POP POP JUMP JUMPDEST PUSH0 PUSH1 0x20 DUP3 ADD SWAP1 POP PUSH2 0xDBE PUSH0 DUP4 ADD DUP5 PUSH2 0xD9C JUMP JUMPDEST SWAP3 SWAP2 POP POP JUMP JUMPDEST PUSH0 DUP1 REVERT JUMPDEST PUSH0 DUP2 SWAP1 POP SWAP2 SWAP1 POP JUMP JUMPDEST PUSH2 0xDDA DUP2 PUSH2 0xDC8 JUMP JUMPDEST DUP2 EQ PUSH2 0xDE4 JUMPI PUSH0 DUP1 REVERT JUMPDEST POP JUMP JUMPDEST PUSH0 DUP2 MLOAD SWAP1 POP PUSH2 0xDF5 DUP2 PUSH2 0xDD1 JUMP JUMPDEST SWAP3 SWAP2 POP POP JUMP JUMPDEST PUSH0 DUP1 PUSH1 0x40 DUP4 DUP6 SUB SLT ISZERO PUSH2 0xE11 JUMPI PUSH2 0xE10 PUSH2 0xDC4 JUMP JUMPDEST JUMPDEST PUSH0 PUSH2 0xE1E DUP6 DUP3 DUP7 ADD PUSH2 0xDE7 JUMP JUMPDEST SWAP3 POP POP PUSH1 0x20 PUSH2 0xE2F DUP6 DUP3 DUP7 ADD PUSH2 0xDE7 JUMP JUMPDEST SWAP2 POP POP SWAP3 POP SWAP3 SWAP1 POP JUMP JUMPDEST PUSH2 0xE42 DUP2 PUSH2 0xDC8 JUMP JUMPDEST DUP3 MSTORE POP POP JUMP JUMPDEST PUSH0 DUP2 SWAP1 POP SWAP2 SWAP1 POP JUMP JUMPDEST PUSH0 PUSH2 0xE6B PUSH2 0xE66 PUSH2 0xE61 DUP5 PUSH2 0xE48 JUMP JUMPDEST PUSH2 0xD17 JUMP JUMPDEST PUSH2 0xDC8 JUMP JUMPDEST SWAP1 POP SWAP2 SWAP1 POP JUMP JUMPDEST PUSH2 0xE7B DUP2 PUSH2 0xE51 JUMP JUMPDEST DUP3 MSTORE POP POP JUMP JUMPDEST PUSH0 DUP3 DUP3 MSTORE PUSH1 0x20 DUP3 ADD SWAP1 POP SWAP3 SWAP2 POP POP JUMP JUMPDEST PUSH32 0x42616C616E63652073686F756C64206265203120455448000000000000000000 PUSH0 DUP3 ADD MSTORE POP JUMP JUMPDEST PUSH0 PUSH2 0xEC5 PUSH1 0x17 DUP4 PUSH2 0xE81 JUMP JUMPDEST SWAP2 POP PUSH2 0xED0 DUP3 PUSH2 0xE91 JUMP JUMPDEST PUSH1 0x20 DUP3 ADD SWAP1 POP SWAP2 SWAP1 POP JUMP JUMPDEST PUSH0 PUSH1 0x60 DUP3 ADD SWAP1 POP PUSH2 0xEEE PUSH0 DUP4 ADD DUP6 PUSH2 0xE39 JUMP JUMPDEST PUSH2 0xEFB PUSH1 0x20 DUP4 ADD DUP5 PUSH2 0xE72 JUMP JUMPDEST DUP2 DUP2 SUB PUSH1 0x40 DUP4 ADD MSTORE PUSH2 0xF0C DUP2 PUSH2 0xEB9 JUMP JUMPDEST SWAP1 POP SWAP4 SWAP3 POP POP POP JUMP JUMPDEST PUSH0 DUP2 ISZERO ISZERO SWAP1 POP SWAP2 SWAP1 POP JUMP JUMPDEST PUSH2 0xF29 DUP2 PUSH2 0xF15 JUMP JUMPDEST DUP2 EQ PUSH2 0xF33 JUMPI PUSH0 DUP1 REVERT JUMPDEST POP JUMP JUMPDEST PUSH0 DUP2 MLOAD SWAP1 POP PUSH2 0xF44 DUP2 PUSH2 0xF20 JUMP JUMPDEST SWAP3 SWAP2 POP POP JUMP JUMPDEST PUSH0 PUSH1 0x20 DUP3 DUP5 SUB SLT ISZERO PUSH2 0xF5F JUMPI PUSH2 0xF5E PUSH2 0xDC4 JUMP JUMPDEST JUMPDEST PUSH0 PUSH2 0xF6C DUP5 DUP3 DUP6 ADD PUSH2 0xF36 JUMP JUMPDEST SWAP2 POP POP SWAP3 SWAP2 POP POP JUMP JUMPDEST PUSH2 0xF7E DUP2 PUSH2 0xE51 JUMP JUMPDEST DUP3 MSTORE POP POP JUMP JUMPDEST PUSH0 PUSH1 0x20 DUP3 ADD SWAP1 POP PUSH2 0xF97 PUSH0 DUP4 ADD DUP5 PUSH2 0xF75 JUMP JUMPDEST SWAP3 SWAP2 POP POP JUMP JUMPDEST PUSH0 PUSH1 0x40 DUP3 ADD SWAP1 POP PUSH2 0xFB0 PUSH0 DUP4 ADD DUP6 PUSH2 0xD9C JUMP JUMPDEST PUSH2 0xFBD PUSH1 0x20 DUP4 ADD DUP5 PUSH2 0xF75 JUMP JUMPDEST SWAP4 SWAP3 POP POP POP JUMP JUMPDEST PUSH32 0x4F776E65722062616C616E63652073686F756C64206265203120455448206166 PUSH0 DUP3 ADD MSTORE PUSH32 0x7465722073656E64696E67000000000000000000000000000000000000000000 PUSH1 0x20 DUP3 ADD MSTORE POP JUMP JUMPDEST PUSH0 PUSH2 0x101E PUSH1 0x2B DUP4 PUSH2 0xE81 JUMP JUMPDEST SWAP2 POP PUSH2 0x1029 DUP3 PUSH2 0xFC4 JUMP JUMPDEST PUSH1 0x40 DUP3 ADD SWAP1 POP SWAP2 SWAP1 POP JUMP JUMPDEST PUSH0 PUSH1 0x60 DUP3 ADD SWAP1 POP PUSH2 0x1047 PUSH0 DUP4 ADD DUP6 PUSH2 0xE39 JUMP JUMPDEST PUSH2 0x1054 PUSH1 0x20 DUP4 ADD DUP5 PUSH2 0xE72 JUMP JUMPDEST DUP2 DUP2 SUB PUSH1 0x40 DUP4 ADD MSTORE PUSH2 0x1065 DUP2 PUSH2 0x1012 JUMP JUMPDEST SWAP1 POP SWAP4 SWAP3 POP POP POP JUMP JUMPDEST PUSH0 DUP2 SWAP1 POP SWAP2 SWAP1 POP JUMP JUMPDEST PUSH0 PUSH2 0x1091 PUSH2 0x108C PUSH2 0x1087 DUP5 PUSH2 0x106E JUMP JUMPDEST PUSH2 0xD17 JUMP JUMPDEST PUSH2 0xDC8 JUMP JUMPDEST SWAP1 POP SWAP2 SWAP1 POP JUMP JUMPDEST PUSH2 0x10A1 DUP2 PUSH2 0x1077 JUMP JUMPDEST DUP3 MSTORE POP POP JUMP JUMPDEST PUSH32 0x55736572312062616C616E636520696E20636F6E74726163742073686F756C64 PUSH0 DUP3 ADD MSTORE PUSH32 0x2072656D61696E20300000000000000000000000000000000000000000000000 PUSH1 0x20 DUP3 ADD MSTORE POP JUMP JUMPDEST PUSH0 PUSH2 0x1101 PUSH1 0x29 DUP4 PUSH2 0xE81 JUMP JUMPDEST SWAP2 POP PUSH2 0x110C DUP3 PUSH2 0x10A7 JUMP JUMPDEST PUSH1 0x40 DUP3 ADD SWAP1 POP SWAP2 SWAP1 POP JUMP JUMPDEST PUSH0 PUSH1 0x60 DUP3 ADD SWAP1 POP PUSH2 0x112A PUSH0 DUP4 ADD DUP6 PUSH2 0xE39 JUMP JUMPDEST PUSH2 0x1137 PUSH1 0x20 DUP4 ADD DUP5 PUSH2 0x1098 JUMP JUMPDEST DUP2 DUP2 SUB PUSH1 0x40 DUP4 ADD MSTORE PUSH2 0x1148 DUP2 PUSH2 0x10F5 JUMP JUMPDEST SWAP1 POP SWAP4 SWAP3 POP POP POP JUMP JUMPDEST PUSH32 0x4E487B7100000000000000000000000000000000000000000000000000000000 PUSH0 MSTORE PUSH1 0x11 PUSH1 0x4 MSTORE PUSH1 0x24 PUSH0 REVERT JUMPDEST PUSH0 PUSH2 0x1188 DUP3 PUSH2 0xDC8 JUMP JUMPDEST SWAP2 POP PUSH2 0x1193 DUP4 PUSH2 0xDC8 JUMP JUMPDEST SWAP3 POP DUP3 DUP3 SUB SWAP1 POP DUP2 DUP2 GT ISZERO PUSH2 0x11AB JUMPI PUSH2 0x11AA PUSH2 0x1151 JUMP JUMPDEST JUMPDEST SWAP3 SWAP2 POP POP JUMP JUMPDEST PUSH32 0x55736572312073686F756C642072656365697665203120455448000000000000 PUSH0 DUP3 ADD MSTORE POP JUMP JUMPDEST PUSH0 PUSH2 0x11E5 PUSH1 0x1A DUP4 PUSH2 0xE81 JUMP JUMPDEST SWAP2 POP PUSH2 0x11F0 DUP3 PUSH2 0x11B1 JUMP JUMPDEST PUSH1 0x20 DUP3 ADD SWAP1 POP SWAP2 SWAP1 POP JUMP JUMPDEST PUSH0 PUSH1 0x60 DUP3 ADD SWAP1 POP PUSH2 0x120E PUSH0 DUP4 ADD DUP6 PUSH2 0xE39 JUMP JUMPDEST PUSH2 0x121B PUSH1 0x20 DUP4 ADD DUP5 PUSH2 0xE72 JUMP JUMPDEST DUP2 DUP2 SUB PUSH1 0x40 DUP4 ADD MSTORE PUSH2 0x122C DUP2 PUSH2 0x11D9 JUMP JUMPDEST SWAP1 POP SWAP4 SWAP3 POP POP POP JUMP JUMPDEST PUSH0 DUP2 SWAP1 POP SWAP2 SWAP1 POP JUMP JUMPDEST PUSH0 PUSH2 0x1258 PUSH2 0x1253 PUSH2 0x124E DUP5 PUSH2 0x1235 JUMP JUMPDEST PUSH2 0xD17 JUMP JUMPDEST PUSH2 0xDC8 JUMP JUMPDEST SWAP1 POP SWAP2 SWAP1 POP JUMP JUMPDEST PUSH2 0x1268 DUP2 PUSH2 0x123E JUMP JUMPDEST DUP3 MSTORE POP POP JUMP JUMPDEST PUSH0 PUSH1 0x20 DUP3 ADD SWAP1 POP PUSH2 0x1281 PUSH0 DUP4 ADD DUP5 PUSH2 0x125F JUMP JUMPDEST SWAP3 SWAP2 POP POP JUMP JUMPDEST PUSH2 0x1290 DUP2 PUSH2 0x123E JUMP JUMPDEST DUP3 MSTORE POP POP JUMP JUMPDEST PUSH32 0x42616C616E63652073686F756C6420626520302E352045544820616674657220 PUSH0 DUP3 ADD MSTORE PUSH32 0x7769746864726177616C00000000000000000000000000000000000000000000 PUSH1 0x20 DUP3 ADD MSTORE POP JUMP JUMPDEST PUSH0 PUSH2 0x12F0 PUSH1 0x2A DUP4 PUSH2 0xE81 JUMP JUMPDEST SWAP2 POP PUSH2 0x12FB DUP3 PUSH2 0x1296 JUMP JUMPDEST PUSH1 0x40 DUP3 ADD SWAP1 POP SWAP2 SWAP1 POP JUMP JUMPDEST PUSH0 PUSH1 0x60 DUP3 ADD SWAP1 POP PUSH2 0x1319 PUSH0 DUP4 ADD DUP6 PUSH2 0xE39 JUMP JUMPDEST PUSH2 0x1326 PUSH1 0x20 DUP4 ADD DUP5 PUSH2 0x1287 JUMP JUMPDEST DUP2 DUP2 SUB PUSH1 0x40 DUP4 ADD MSTORE PUSH2 0x1337 DUP2 PUSH2 0x12E4 JUMP JUMPDEST SWAP1 POP SWAP4 SWAP3 POP POP POP JUMP INVALID PUSH1 0x80 PUSH1 0x40 MSTORE CALLVALUE DUP1 ISZERO PUSH1 0xE JUMPI PUSH0 DUP1 REVERT JUMPDEST POP PUSH2 0x866 DUP1 PUSH2 0x1C PUSH0 CODECOPY PUSH0 RETURN INVALID PUSH1 0x80 PUSH1 0x40 MSTORE PUSH1 0x4 CALLDATASIZE LT PUSH2 0x54 JUMPI PUSH0 CALLDATALOAD PUSH1 0xE0 SHR DUP1 PUSH4 0x1A10158 EQ PUSH2 0x58 JUMPI DUP1 PUSH4 0x67CDF19 EQ PUSH2 0x95 JUMPI DUP1 PUSH4 0x44A320FD EQ PUSH2 0xB1 JUMPI DUP1 PUSH4 0x6386C1C7 EQ PUSH2 0xD9 JUMPI DUP1 PUSH4 0x76E747E8 EQ PUSH2 0x116 JUMPI DUP1 PUSH4 0xB724DE60 EQ PUSH2 0x120 JUMPI JUMPDEST PUSH0 DUP1 REVERT JUMPDEST CALLVALUE DUP1 ISZERO PUSH2 0x63 JUMPI PUSH0 DUP1 REVERT JUMPDEST POP PUSH2 0x7E PUSH1 0x4 DUP1 CALLDATASIZE SUB DUP2 ADD SWAP1 PUSH2 0x79 SWAP2 SWAP1 PUSH2 0x59A JUMP JUMPDEST PUSH2 0x13C JUMP JUMPDEST PUSH1 0x40 MLOAD PUSH2 0x8C SWAP3 SWAP2 SWAP1 PUSH2 0x5DD JUMP JUMPDEST PUSH1 0x40 MLOAD DUP1 SWAP2 SUB SWAP1 RETURN JUMPDEST PUSH2 0xAF PUSH1 0x4 DUP1 CALLDATASIZE SUB DUP2 ADD SWAP1 PUSH2 0xAA SWAP2 SWAP1 PUSH2 0x62E JUMP JUMPDEST PUSH2 0x15B JUMP JUMPDEST STOP JUMPDEST CALLVALUE DUP1 ISZERO PUSH2 0xBC JUMPI PUSH0 DUP1 REVERT JUMPDEST POP PUSH2 0xD7 PUSH1 0x4 DUP1 CALLDATASIZE SUB DUP2 ADD SWAP1 PUSH2 0xD2 SWAP2 SWAP1 PUSH2 0x62E JUMP JUMPDEST PUSH2 0x28B JUMP JUMPDEST STOP JUMPDEST CALLVALUE DUP1 ISZERO PUSH2 0xE4 JUMPI PUSH0 DUP1 REVERT JUMPDEST POP PUSH2 0xFF PUSH1 0x4 DUP1 CALLDATASIZE SUB DUP2 ADD SWAP1 PUSH2 0xFA SWAP2 SWAP1 PUSH2 0x59A JUMP JUMPDEST PUSH2 0x2D2 JUMP JUMPDEST PUSH1 0x40 MLOAD PUSH2 0x10D SWAP3 SWAP2 SWAP1 PUSH2 0x5DD JUMP JUMPDEST PUSH1 0x40 MLOAD DUP1 SWAP2 SUB SWAP1 RETURN JUMPDEST PUSH2 0x11E PUSH2 0x35C JUMP JUMPDEST STOP JUMPDEST PUSH2 0x13A PUSH1 0x4 DUP1 CALLDATASIZE SUB DUP2 ADD SWAP1 PUSH2 0x135 SWAP2 SWAP1 PUSH2 0x659 JUMP JUMPDEST PUSH2 0x40B JUMP JUMPDEST STOP JUMPDEST PUSH0 PUSH1 0x20 MSTORE DUP1 PUSH0 MSTORE PUSH1 0x40 PUSH0 KECCAK256 PUSH0 SWAP2 POP SWAP1 POP DUP1 PUSH0 ADD SLOAD SWAP1 DUP1 PUSH1 0x1 ADD SLOAD SWAP1 POP DUP3 JUMP JUMPDEST PUSH0 DUP1 PUSH2 0x166 CALLER PUSH2 0x2D2 JUMP JUMPDEST SWAP2 POP SWAP2 POP DUP3 DUP3 LT ISZERO PUSH2 0x1AD JUMPI PUSH1 0x40 MLOAD PUSH32 0x8C379A000000000000000000000000000000000000000000000000000000000 DUP2 MSTORE PUSH1 0x4 ADD PUSH2 0x1A4 SWAP1 PUSH2 0x6F1 JUMP JUMPDEST PUSH1 0x40 MLOAD DUP1 SWAP2 SUB SWAP1 REVERT JUMPDEST DUP1 DUP4 GT PUSH2 0x1EF JUMPI PUSH1 0x40 MLOAD PUSH32 0x8C379A000000000000000000000000000000000000000000000000000000000 DUP2 MSTORE PUSH1 0x4 ADD PUSH2 0x1E6 SWAP1 PUSH2 0x77F JUMP JUMPDEST PUSH1 0x40 MLOAD DUP1 SWAP2 SUB SWAP1 REVERT JUMPDEST DUP3 DUP3 PUSH2 0x1FB SWAP2 SWAP1 PUSH2 0x7CA JUMP JUMPDEST PUSH0 DUP1 CALLER PUSH20 0xFFFFFFFFFFFFFFFFFFFFFFFFFFFFFFFFFFFFFFFF AND PUSH20 0xFFFFFFFFFFFFFFFFFFFFFFFFFFFFFFFFFFFFFFFF AND DUP2 MSTORE PUSH1 0x20 ADD SWAP1 DUP2 MSTORE PUSH1 0x20 ADD PUSH0 KECCAK256 PUSH0 ADD DUP2 SWAP1 SSTORE POP PUSH0 CALLER SWAP1 POP DUP1 PUSH20 0xFFFFFFFFFFFFFFFFFFFFFFFFFFFFFFFFFFFFFFFF AND PUSH2 0x8FC DUP6 SWAP1 DUP2 ISZERO MUL SWAP1 PUSH1 0x40 MLOAD PUSH0 PUSH1 0x40 MLOAD DUP1 DUP4 SUB DUP2 DUP6 DUP9 DUP9 CALL SWAP4 POP POP POP POP ISZERO DUP1 ISZERO PUSH2 0x284 JUMPI RETURNDATASIZE PUSH0 DUP1 RETURNDATACOPY RETURNDATASIZE PUSH0 REVERT JUMPDEST POP POP POP POP POP JUMP JUMPDEST DUP1 PUSH0 DUP1 CALLER PUSH20 0xFFFFFFFFFFFFFFFFFFFFFFFFFFFFFFFFFFFFFFFF AND PUSH20 0xFFFFFFFFFFFFFFFFFFFFFFFFFFFFFFFFFFFFFFFF AND DUP2 MSTORE PUSH1 0x20 ADD SWAP1 DUP2 MSTORE PUSH1 0x20 ADD PUSH0 KECCAK256 PUSH1 0x1 ADD DUP2 SWAP1 SSTORE POP POP JUMP JUMPDEST PUSH0 DUP1 PUSH0 DUP1 DUP5 PUSH20 0xFFFFFFFFFFFFFFFFFFFFFFFFFFFFFFFFFFFFFFFF AND PUSH20 0xFFFFFFFFFFFFFFFFFFFFFFFFFFFFFFFFFFFFFFFF AND DUP2 MSTORE PUSH1 0x20 ADD SWAP1 DUP2 MSTORE PUSH1 0x20 ADD PUSH0 KECCAK256 PUSH0 ADD SLOAD PUSH0 DUP1 DUP6 PUSH20 0xFFFFFFFFFFFFFFFFFFFFFFFFFFFFFFFFFFFFFFFF AND PUSH20 0xFFFFFFFFFFFFFFFFFFFFFFFFFFFFFFFFFFFFFFFF AND DUP2 MSTORE PUSH1 0x20 ADD SWAP1 DUP2 MSTORE PUSH1 0x20 ADD PUSH0 KECCAK256 PUSH1 0x1 ADD SLOAD SWAP2 POP SWAP2 POP SWAP2 POP SWAP2 JUMP JUMPDEST PUSH0 PUSH2 0x366 CALLER PUSH2 0x2D2 JUMP JUMPDEST POP SWAP1 POP PUSH0 DUP2 GT ISZERO PUSH2 0x3C4 JUMPI CALLVALUE DUP2 PUSH2 0x37D SWAP2 SWAP1 PUSH2 0x7FD JUMP JUMPDEST PUSH0 DUP1 CALLER PUSH20 0xFFFFFFFFFFFFFFFFFFFFFFFFFFFFFFFFFFFFFFFF AND PUSH20 0xFFFFFFFFFFFFFFFFFFFFFFFFFFFFFFFFFFFFFFFF AND DUP2 MSTORE PUSH1 0x20 ADD SWAP1 DUP2 MSTORE PUSH1 0x20 ADD PUSH0 KECCAK256 PUSH0 ADD DUP2 SWAP1 SSTORE POP PUSH2 0x408 JUMP JUMPDEST CALLVALUE PUSH0 DUP1 CALLER PUSH20 0xFFFFFFFFFFFFFFFFFFFFFFFFFFFFFFFFFFFFFFFF AND PUSH20 0xFFFFFFFFFFFFFFFFFFFFFFFFFFFFFFFFFFFFFFFF AND DUP2 MSTORE PUSH1 0x20 ADD SWAP1 DUP2 MSTORE PUSH1 0x20 ADD PUSH0 KECCAK256 PUSH0 ADD DUP2 SWAP1 SSTORE POP JUMPDEST POP JUMP JUMPDEST PUSH0 DUP1 PUSH2 0x416 CALLER PUSH2 0x2D2 JUMP JUMPDEST SWAP2 POP SWAP2 POP DUP3 DUP3 LT ISZERO PUSH2 0x45D JUMPI PUSH1 0x40 MLOAD PUSH32 0x8C379A000000000000000000000000000000000000000000000000000000000 DUP2 MSTORE PUSH1 0x4 ADD PUSH2 0x454 SWAP1 PUSH2 0x6F1 JUMP JUMPDEST PUSH1 0x40 MLOAD DUP1 SWAP2 SUB SWAP1 REVERT JUMPDEST DUP1 DUP4 GT PUSH2 0x49F JUMPI PUSH1 0x40 MLOAD PUSH32 0x8C379A000000000000000000000000000000000000000000000000000000000 DUP2 MSTORE PUSH1 0x4 ADD PUSH2 0x496 SWAP1 PUSH2 0x77F JUMP JUMPDEST PUSH1 0x40 MLOAD DUP1 SWAP2 SUB SWAP1 REVERT JUMPDEST DUP3 DUP3 PUSH2 0x4AB SWAP2 SWAP1 PUSH2 0x7CA JUMP JUMPDEST PUSH0 DUP1 CALLER PUSH20 0xFFFFFFFFFFFFFFFFFFFFFFFFFFFFFFFFFFFFFFFF AND PUSH20 0xFFFFFFFFFFFFFFFFFFFFFFFFFFFFFFFFFFFFFFFF AND DUP2 MSTORE PUSH1 0x20 ADD SWAP1 DUP2 MSTORE PUSH1 0x20 ADD PUSH0 KECCAK256 PUSH0 ADD DUP2 SWAP1 SSTORE POP PUSH0 DUP5 SWAP1 POP DUP1 PUSH20 0xFFFFFFFFFFFFFFFFFFFFFFFFFFFFFFFFFFFFFFFF AND PUSH2 0x8FC DUP6 SWAP1 DUP2 ISZERO MUL SWAP1 PUSH1 0x40 MLOAD PUSH0 PUSH1 0x40 MLOAD DUP1 DUP4 SUB DUP2 DUP6 DUP9 DUP9 CALL SWAP4 POP POP POP POP ISZERO DUP1 ISZERO PUSH2 0x534 JUMPI RETURNDATASIZE PUSH0 DUP1 RETURNDATACOPY RETURNDATASIZE PUSH0 REVERT JUMPDEST POP POP POP POP POP POP JUMP JUMPDEST PUSH0 DUP1 REVERT JUMPDEST PUSH0 PUSH20 0xFFFFFFFFFFFFFFFFFFFFFFFFFFFFFFFFFFFFFFFF DUP3 AND SWAP1 POP SWAP2 SWAP1 POP JUMP JUMPDEST PUSH0 PUSH2 0x569 DUP3 PUSH2 0x540 JUMP JUMPDEST SWAP1 POP SWAP2 SWAP1 POP JUMP JUMPDEST PUSH2 0x579 DUP2 PUSH2 0x55F JUMP JUMPDEST DUP2 EQ PUSH2 0x583 JUMPI PUSH0 DUP1 REVERT JUMPDEST POP JUMP JUMPDEST PUSH0 DUP2 CALLDATALOAD SWAP1 POP PUSH2 0x594 DUP2 PUSH2 0x570 JUMP JUMPDEST SWAP3 SWAP2 POP POP JUMP JUMPDEST PUSH0 PUSH1 0x20 DUP3 DUP5 SUB SLT ISZERO PUSH2 0x5AF JUMPI PUSH2 0x5AE PUSH2 0x53C JUMP JUMPDEST JUMPDEST PUSH0 PUSH2 0x5BC DUP5 DUP3 DUP6 ADD PUSH2 0x586 JUMP JUMPDEST SWAP2 POP POP SWAP3 SWAP2 POP POP JUMP JUMPDEST PUSH0 DUP2 SWAP1 POP SWAP2 SWAP1 POP JUMP JUMPDEST PUSH2 0x5D7 DUP2 PUSH2 0x5C5 JUMP JUMPDEST DUP3 MSTORE POP POP JUMP JUMPDEST PUSH0 PUSH1 0x40 DUP3 ADD SWAP1 POP PUSH2 0x5F0 PUSH0 DUP4 ADD DUP6 PUSH2 0x5CE JUMP JUMPDEST PUSH2 0x5FD PUSH1 0x20 DUP4 ADD DUP5 PUSH2 0x5CE JUMP JUMPDEST SWAP4 SWAP3 POP POP POP JUMP JUMPDEST PUSH2 0x60D DUP2 PUSH2 0x5C5 JUMP JUMPDEST DUP2 EQ PUSH2 0x617 JUMPI PUSH0 DUP1 REVERT JUMPDEST POP JUMP JUMPDEST PUSH0 DUP2 CALLDATALOAD SWAP1 POP PUSH2 0x628 DUP2 PUSH2 0x604 JUMP JUMPDEST SWAP3 SWAP2 POP POP JUMP JUMPDEST PUSH0 PUSH1 0x20 DUP3 DUP5 SUB SLT ISZERO PUSH2 0x643 JUMPI PUSH2 0x642 PUSH2 0x53C JUMP JUMPDEST JUMPDEST PUSH0 PUSH2 0x650 DUP5 DUP3 DUP6 ADD PUSH2 0x61A JUMP JUMPDEST SWAP2 POP POP SWAP3 SWAP2 POP POP JUMP JUMPDEST PUSH0 DUP1 PUSH1 0x40 DUP4 DUP6 SUB SLT ISZERO PUSH2 0x66F JUMPI PUSH2 0x66E PUSH2 0x53C JUMP JUMPDEST JUMPDEST PUSH0 PUSH2 0x67C DUP6 DUP3 DUP7 ADD PUSH2 0x586 JUMP JUMPDEST SWAP3 POP POP PUSH1 0x20 PUSH2 0x68D DUP6 DUP3 DUP7 ADD PUSH2 0x61A JUMP JUMPDEST SWAP2 POP POP SWAP3 POP SWAP3 SWAP1 POP JUMP JUMPDEST PUSH0 DUP3 DUP3 MSTORE PUSH1 0x20 DUP3 ADD SWAP1 POP SWAP3 SWAP2 POP POP JUMP JUMPDEST PUSH32 0x4E6F7420656E6F756768206D6F6E657900000000000000000000000000000000 PUSH0 DUP3 ADD MSTORE POP JUMP JUMPDEST PUSH0 PUSH2 0x6DB PUSH1 0x10 DUP4 PUSH2 0x697 JUMP JUMPDEST SWAP2 POP PUSH2 0x6E6 DUP3 PUSH2 0x6A7 JUMP JUMPDEST PUSH1 0x20 DUP3 ADD SWAP1 POP SWAP2 SWAP1 POP JUMP JUMPDEST PUSH0 PUSH1 0x20 DUP3 ADD SWAP1 POP DUP2 DUP2 SUB PUSH0 DUP4 ADD MSTORE PUSH2 0x708 DUP2 PUSH2 0x6CF JUMP JUMPDEST SWAP1 POP SWAP2 SWAP1 POP JUMP JUMPDEST PUSH32 0x5472616E73616374696F6E20626967676572207468616E20696E7374616C6C65 PUSH0 DUP3 ADD MSTORE PUSH32 0x64206C696D697400000000000000000000000000000000000000000000000000 PUSH1 0x20 DUP3 ADD MSTORE POP JUMP JUMPDEST PUSH0 PUSH2 0x769 PUSH1 0x27 DUP4 PUSH2 0x697 JUMP JUMPDEST SWAP2 POP PUSH2 0x774 DUP3 PUSH2 0x70F JUMP JUMPDEST PUSH1 0x40 DUP3 ADD SWAP1 POP SWAP2 SWAP1 POP JUMP JUMPDEST PUSH0 PUSH1 0x20 DUP3 ADD SWAP1 POP DUP2 DUP2 SUB PUSH0 DUP4 ADD MSTORE PUSH2 0x796 DUP2 PUSH2 0x75D JUMP JUMPDEST SWAP1 POP SWAP2 SWAP1 POP JUMP JUMPDEST PUSH32 0x4E487B7100000000000000000000000000000000000000000000000000000000 PUSH0 MSTORE PUSH1 0x11 PUSH1 0x4 MSTORE PUSH1 0x24 PUSH0 REVERT JUMPDEST PUSH0 PUSH2 0x7D4 DUP3 PUSH2 0x5C5 JUMP JUMPDEST SWAP2 POP PUSH2 0x7DF DUP4 PUSH2 0x5C5 JUMP JUMPDEST SWAP3 POP DUP3 DUP3 SUB SWAP1 POP DUP2 DUP2 GT ISZERO PUSH2 0x7F7 JUMPI PUSH2 0x7F6 PUSH2 0x79D JUMP JUMPDEST JUMPDEST SWAP3 SWAP2 POP POP JUMP JUMPDEST PUSH0 PUSH2 0x807 DUP3 PUSH2 0x5C5 JUMP JUMPDEST SWAP2 POP PUSH2 0x812 DUP4 PUSH2 0x5C5 JUMP JUMPDEST SWAP3 POP DUP3 DUP3 ADD SWAP1 POP DUP1 DUP3 GT ISZERO PUSH2 0x82A JUMPI PUSH2 0x829 PUSH2 0x79D JUMP JUMPDEST JUMPDEST SWAP3 SWAP2 POP POP JUMP INVALID LOG2 PUSH5 0x6970667358 0x22 SLT KECCAK256 0xF SWAP3 XOR 0x2D CODECOPY 0x2F 0xCB LOG0 0xC8 0xEB 0x2B 0xDE PUSH11 0xB77F9C19C1F5414DB6FFB3 SWAP8 0x24 PUSH27 0x30ECC7DC9864736F6C634300081A0033A26469706673582212204A PUSH31 0x50EAF1DB966DD04E10735B8F78C284820B82B8E9FDBFA90F89DFF05FAF564 PUSH20 0x6F6C634300081A00330000000000000000000000 "
				},
				"gasEstimates": {
					"creation": {
						"codeDepositCost": "1432000",
						"executionCost": "50022",
						"totalCost": "1482022"
					},
					"external": {
						"beforeEach()": "infinite",
						"testDrawFromWalletWithinLimit()": "infinite",
						"testSendFromWalletWithinLimit()": "infinite",
						"testSetUserBalance()": "infinite",
						"testUserReceivesEther()": "infinite",
						"walletInstance()": "infinite"
					}
				},
				"methodIdentifiers": {
					"beforeEach()": "6331e7d4",
					"testDrawFromWalletWithinLimit()": "d8bfc408",
					"testSendFromWalletWithinLimit()": "4b21878a",
					"testSetUserBalance()": "361c78ea",
					"testUserReceivesEther()": "8b8e5739",
					"walletInstance()": "05f6ac25"
				}
			},
			"storageLayout": {
				"storage": [
					{
						"astId": 949,
						"contract": "tests/wallet_test.sol:WalletTest",
						"label": "walletInstance",
						"offset": 0,
						"slot": "0",
						"type": "t_contract(wallet)190"
					},
					{
						"astId": 951,
						"contract": "tests/wallet_test.sol:WalletTest",
						"label": "owner",
						"offset": 0,
						"slot": "1",
						"type": "t_address"
					},
					{
						"astId": 957,
						"contract": "tests/wallet_test.sol:WalletTest",
						"label": "user1",
						"offset": 0,
						"slot": "2",
						"type": "t_address"
					}
				],
				"types": {
					"t_address": {
						"encoding": "inplace",
						"label": "address",
						"numberOfBytes": "20"
					},
					"t_contract(wallet)190": {
						"encoding": "inplace",
						"label": "contract wallet",
						"numberOfBytes": "20"
					}
				}
			},
			"userdoc": {
				"kind": "user",
				"methods": {
					"beforeEach()": {
						"notice": "Перед каждым тестом разворачиваем новый экземпляр контракта"
					},
					"testDrawFromWalletWithinLimit()": {
						"notice": "Тестируем успешное снятие средств в пределах лимита"
					},
					"testSendFromWalletWithinLimit()": {
						"notice": "Тестируем отправку средств другому пользователю в пределах лимита"
					},
					"testSetUserBalance()": {
						"notice": "Тестируем функцию setUserBalance с пополнением баланса"
					},
					"testUserReceivesEther()": {
						"notice": "Тестируем получение пользователем отправленных средств"
					}
				},
				"version": 1
			}
		}
	}
}