{
	"contracts/wallet.sol": {
		"wallet": {
			"abi": [
				{
					"inputs": [
						{
							"internalType": "uint256",
							"name": "drawedValue",
							"type": "uint256"
						}
					],
					"name": "drawFromWallet",
					"outputs": [],
					"stateMutability": "payable",
					"type": "function"
				},
				{
					"inputs": [
						{
							"internalType": "address",
							"name": "userAddress",
							"type": "address"
						}
					],
					"name": "getUserInfo",
					"outputs": [
						{
							"internalType": "uint256",
							"name": "",
							"type": "uint256"
						},
						{
							"internalType": "uint256",
							"name": "",
							"type": "uint256"
						}
					],
					"stateMutability": "view",
					"type": "function"
				},
				{
					"inputs": [
						{
							"internalType": "address",
							"name": "userAddress",
							"type": "address"
						},
						{
							"internalType": "uint256",
							"name": "sendedValue",
							"type": "uint256"
						}
					],
					"name": "sendFromWallet",
					"outputs": [],
					"stateMutability": "payable",
					"type": "function"
				},
				{
					"inputs": [
						{
							"internalType": "uint256",
							"name": "newLimit",
							"type": "uint256"
						}
					],
					"name": "setMoneyLimit",
					"outputs": [],
					"stateMutability": "nonpayable",
					"type": "function"
				},
				{
					"inputs": [],
					"name": "setUserBalance",
					"outputs": [],
					"stateMutability": "payable",
					"type": "function"
				},
				{
					"inputs": [
						{
							"internalType": "address",
							"name": "",
							"type": "address"
						}
					],
					"name": "wallet_users",
					"outputs": [
						{
							"internalType": "uint256",
							"name": "balance",
							"type": "uint256"
						},
						{
							"internalType": "uint256",
							"name": "moneyLimit",
							"type": "uint256"
						}
					],
					"stateMutability": "view",
					"type": "function"
				}
			],
			"devdoc": {
				"kind": "dev",
				"methods": {},
				"version": 1
			},
			"evm": {
				"assembly": "    /* \"contracts/wallet.sol\":60:1757  contract wallet {... */\n  mstore(0x40, 0x80)\n  callvalue\n  dup1\n  iszero\n  tag_1\n  jumpi\n  0x00\n  dup1\n  revert\ntag_1:\n  pop\n  dataSize(sub_0)\n  dup1\n  dataOffset(sub_0)\n  0x00\n  codecopy\n  0x00\n  return\nstop\n\nsub_0: assembly {\n        /* \"contracts/wallet.sol\":60:1757  contract wallet {... */\n      mstore(0x40, 0x80)\n      jumpi(tag_1, lt(calldatasize, 0x04))\n      shr(0xe0, calldataload(0x00))\n      dup1\n      0x01a10158\n      eq\n      tag_2\n      jumpi\n      dup1\n      0x067cdf19\n      eq\n      tag_3\n      jumpi\n      dup1\n      0x44a320fd\n      eq\n      tag_4\n      jumpi\n      dup1\n      0x6386c1c7\n      eq\n      tag_5\n      jumpi\n      dup1\n      0x76e747e8\n      eq\n      tag_6\n      jumpi\n      dup1\n      0xb724de60\n      eq\n      tag_7\n      jumpi\n    tag_1:\n      0x00\n      dup1\n      revert\n        /* \"contracts/wallet.sol\":177:230  mapping(address => balanceStatus) public wallet_users */\n    tag_2:\n      callvalue\n      dup1\n      iszero\n      tag_8\n      jumpi\n      0x00\n      dup1\n      revert\n    tag_8:\n      pop\n      tag_9\n      0x04\n      dup1\n      calldatasize\n      sub\n      dup2\n      add\n      swap1\n      tag_10\n      swap2\n      swap1\n      tag_11\n      jump\t// in\n    tag_10:\n      tag_12\n      jump\t// in\n    tag_9:\n      mload(0x40)\n      tag_13\n      swap3\n      swap2\n      swap1\n      tag_14\n      jump\t// in\n    tag_13:\n      mload(0x40)\n      dup1\n      swap2\n      sub\n      swap1\n      return\n        /* \"contracts/wallet.sol\":726:1164  function drawFromWallet(uint drawedValue) public payable {... */\n    tag_3:\n      tag_15\n      0x04\n      dup1\n      calldatasize\n      sub\n      dup2\n      add\n      swap1\n      tag_16\n      swap2\n      swap1\n      tag_17\n      jump\t// in\n    tag_16:\n      tag_18\n      jump\t// in\n    tag_15:\n      stop\n        /* \"contracts/wallet.sol\":1640:1751  function setMoneyLimit(uint newLimit) public  {... */\n    tag_4:\n      callvalue\n      dup1\n      iszero\n      tag_19\n      jumpi\n      0x00\n      dup1\n      revert\n    tag_19:\n      pop\n      tag_20\n      0x04\n      dup1\n      calldatasize\n      sub\n      dup2\n      add\n      swap1\n      tag_21\n      swap2\n      swap1\n      tag_17\n      jump\t// in\n    tag_21:\n      tag_22\n      jump\t// in\n    tag_20:\n      stop\n        /* \"contracts/wallet.sol\":239:414  function getUserInfo(address userAddress) public  view  returns(uint, uint) {... */\n    tag_5:\n      callvalue\n      dup1\n      iszero\n      tag_23\n      jumpi\n      0x00\n      dup1\n      revert\n    tag_23:\n      pop\n      tag_24\n      0x04\n      dup1\n      calldatasize\n      sub\n      dup2\n      add\n      swap1\n      tag_25\n      swap2\n      swap1\n      tag_11\n      jump\t// in\n    tag_25:\n      tag_26\n      jump\t// in\n    tag_24:\n      mload(0x40)\n      tag_27\n      swap3\n      swap2\n      swap1\n      tag_14\n      jump\t// in\n    tag_27:\n      mload(0x40)\n      dup1\n      swap2\n      sub\n      swap1\n      return\n        /* \"contracts/wallet.sol\":422:718  function setUserBalance() public payable {... */\n    tag_6:\n      tag_28\n      tag_29\n      jump\t// in\n    tag_28:\n      stop\n        /* \"contracts/wallet.sol\":1172:1632  function sendFromWallet(address userAddress, uint sendedValue) public payable {... */\n    tag_7:\n      tag_30\n      0x04\n      dup1\n      calldatasize\n      sub\n      dup2\n      add\n      swap1\n      tag_31\n      swap2\n      swap1\n      tag_32\n      jump\t// in\n    tag_31:\n      tag_33\n      jump\t// in\n    tag_30:\n      stop\n        /* \"contracts/wallet.sol\":177:230  mapping(address => balanceStatus) public wallet_users */\n    tag_12:\n      mstore(0x20, 0x00)\n      dup1\n      0x00\n      mstore\n      keccak256(0x00, 0x40)\n      0x00\n      swap2\n      pop\n      swap1\n      pop\n      dup1\n      0x00\n      add\n      sload\n      swap1\n      dup1\n      0x01\n      add\n      sload\n      swap1\n      pop\n      dup3\n      jump\t// out\n        /* \"contracts/wallet.sol\":726:1164  function drawFromWallet(uint drawedValue) public payable {... */\n    tag_18:\n        /* \"contracts/wallet.sol\":795:807  uint balance */\n      0x00\n        /* \"contracts/wallet.sol\":809:824  uint moneyLimit */\n      dup1\n        /* \"contracts/wallet.sol\":828:851  getUserInfo(msg.sender) */\n      tag_35\n        /* \"contracts/wallet.sol\":840:850  msg.sender */\n      caller\n        /* \"contracts/wallet.sol\":828:839  getUserInfo */\n      tag_26\n        /* \"contracts/wallet.sol\":828:851  getUserInfo(msg.sender) */\n      jump\t// in\n    tag_35:\n        /* \"contracts/wallet.sol\":794:851  (uint balance, uint moneyLimit) = getUserInfo(msg.sender) */\n      swap2\n      pop\n      swap2\n      pop\n        /* \"contracts/wallet.sol\":881:892  drawedValue */\n      dup3\n        /* \"contracts/wallet.sol\":870:877  balance */\n      dup3\n        /* \"contracts/wallet.sol\":870:892  balance >= drawedValue */\n      lt\n      iszero\n        /* \"contracts/wallet.sol\":862:913  require(balance >= drawedValue, \"Not enough money\") */\n      tag_36\n      jumpi\n      mload(0x40)\n      0x08c379a000000000000000000000000000000000000000000000000000000000\n      dup2\n      mstore\n      0x04\n      add\n      tag_37\n      swap1\n      tag_38\n      jump\t// in\n    tag_37:\n      mload(0x40)\n      dup1\n      swap2\n      sub\n      swap1\n      revert\n    tag_36:\n        /* \"contracts/wallet.sol\":946:956  moneyLimit */\n      dup1\n        /* \"contracts/wallet.sol\":932:943  drawedValue */\n      dup4\n        /* \"contracts/wallet.sol\":932:956  drawedValue > moneyLimit */\n      gt\n        /* \"contracts/wallet.sol\":924:1000  require(drawedValue > moneyLimit, \"Transaction bigger than installed limit\") */\n      tag_39\n      jumpi\n      mload(0x40)\n      0x08c379a000000000000000000000000000000000000000000000000000000000\n      dup2\n      mstore\n      0x04\n      add\n      tag_40\n      swap1\n      tag_41\n      jump\t// in\n    tag_40:\n      mload(0x40)\n      dup1\n      swap2\n      sub\n      swap1\n      revert\n    tag_39:\n        /* \"contracts/wallet.sol\":1056:1067  drawedValue */\n      dup3\n        /* \"contracts/wallet.sol\":1046:1053  balance */\n      dup3\n        /* \"contracts/wallet.sol\":1046:1067  balance - drawedValue */\n      tag_42\n      swap2\n      swap1\n      tag_43\n      jump\t// in\n    tag_42:\n        /* \"contracts/wallet.sol\":1011:1023  wallet_users */\n      0x00\n        /* \"contracts/wallet.sol\":1011:1035  wallet_users[msg.sender] */\n      dup1\n        /* \"contracts/wallet.sol\":1024:1034  msg.sender */\n      caller\n        /* \"contracts/wallet.sol\":1011:1035  wallet_users[msg.sender] */\n      0xffffffffffffffffffffffffffffffffffffffff\n      and\n      0xffffffffffffffffffffffffffffffffffffffff\n      and\n      dup2\n      mstore\n      0x20\n      add\n      swap1\n      dup2\n      mstore\n      0x20\n      add\n      0x00\n      keccak256\n        /* \"contracts/wallet.sol\":1011:1043  wallet_users[msg.sender].balance */\n      0x00\n      add\n        /* \"contracts/wallet.sol\":1011:1067  wallet_users[msg.sender].balance = balance - drawedValue */\n      dup2\n      swap1\n      sstore\n      pop\n        /* \"contracts/wallet.sol\":1078:1098  address payable  _to */\n      0x00\n        /* \"contracts/wallet.sol\":1109:1119  msg.sender */\n      caller\n        /* \"contracts/wallet.sol\":1078:1120  address payable  _to = payable(msg.sender) */\n      swap1\n      pop\n        /* \"contracts/wallet.sol\":1131:1134  _to */\n      dup1\n        /* \"contracts/wallet.sol\":1131:1143  _to.transfer */\n      0xffffffffffffffffffffffffffffffffffffffff\n      and\n        /* \"contracts/wallet.sol\":1131:1156  _to.transfer(drawedValue) */\n      0x08fc\n        /* \"contracts/wallet.sol\":1144:1155  drawedValue */\n      dup6\n        /* \"contracts/wallet.sol\":1131:1156  _to.transfer(drawedValue) */\n      swap1\n      dup2\n      iszero\n      mul\n      swap1\n      mload(0x40)\n      0x00\n      mload(0x40)\n      dup1\n      dup4\n      sub\n      dup2\n      dup6\n      dup9\n      dup9\n      call\n      swap4\n      pop\n      pop\n      pop\n      pop\n      iszero\n      dup1\n      iszero\n      tag_45\n      jumpi\n      returndatasize\n      0x00\n      dup1\n      returndatacopy\n      revert(0x00, returndatasize)\n    tag_45:\n      pop\n        /* \"contracts/wallet.sol\":783:1164  {... */\n      pop\n      pop\n      pop\n        /* \"contracts/wallet.sol\":726:1164  function drawFromWallet(uint drawedValue) public payable {... */\n      pop\n      jump\t// out\n        /* \"contracts/wallet.sol\":1640:1751  function setMoneyLimit(uint newLimit) public  {... */\n    tag_22:\n        /* \"contracts/wallet.sol\":1735:1743  newLimit */\n      dup1\n        /* \"contracts/wallet.sol\":1697:1709  wallet_users */\n      0x00\n        /* \"contracts/wallet.sol\":1697:1721  wallet_users[msg.sender] */\n      dup1\n        /* \"contracts/wallet.sol\":1710:1720  msg.sender */\n      caller\n        /* \"contracts/wallet.sol\":1697:1721  wallet_users[msg.sender] */\n      0xffffffffffffffffffffffffffffffffffffffff\n      and\n      0xffffffffffffffffffffffffffffffffffffffff\n      and\n      dup2\n      mstore\n      0x20\n      add\n      swap1\n      dup2\n      mstore\n      0x20\n      add\n      0x00\n      keccak256\n        /* \"contracts/wallet.sol\":1697:1732  wallet_users[msg.sender].moneyLimit */\n      0x01\n      add\n        /* \"contracts/wallet.sol\":1697:1743  wallet_users[msg.sender].moneyLimit = newLimit */\n      dup2\n      swap1\n      sstore\n      pop\n        /* \"contracts/wallet.sol\":1640:1751  function setMoneyLimit(uint newLimit) public  {... */\n      pop\n      jump\t// out\n        /* \"contracts/wallet.sol\":239:414  function getUserInfo(address userAddress) public  view  returns(uint, uint) {... */\n    tag_26:\n        /* \"contracts/wallet.sol\":303:307  uint */\n      0x00\n        /* \"contracts/wallet.sol\":309:313  uint */\n      dup1\n        /* \"contracts/wallet.sol\":334:346  wallet_users */\n      0x00\n        /* \"contracts/wallet.sol\":334:359  wallet_users[userAddress] */\n      dup1\n        /* \"contracts/wallet.sol\":347:358  userAddress */\n      dup5\n        /* \"contracts/wallet.sol\":334:359  wallet_users[userAddress] */\n      0xffffffffffffffffffffffffffffffffffffffff\n      and\n      0xffffffffffffffffffffffffffffffffffffffff\n      and\n      dup2\n      mstore\n      0x20\n      add\n      swap1\n      dup2\n      mstore\n      0x20\n      add\n      0x00\n      keccak256\n        /* \"contracts/wallet.sol\":334:367  wallet_users[userAddress].balance */\n      0x00\n      add\n      sload\n        /* \"contracts/wallet.sol\":369:381  wallet_users */\n      0x00\n        /* \"contracts/wallet.sol\":369:394  wallet_users[userAddress] */\n      dup1\n        /* \"contracts/wallet.sol\":382:393  userAddress */\n      dup6\n        /* \"contracts/wallet.sol\":369:394  wallet_users[userAddress] */\n      0xffffffffffffffffffffffffffffffffffffffff\n      and\n      0xffffffffffffffffffffffffffffffffffffffff\n      and\n      dup2\n      mstore\n      0x20\n      add\n      swap1\n      dup2\n      mstore\n      0x20\n      add\n      0x00\n      keccak256\n        /* \"contracts/wallet.sol\":369:405  wallet_users[userAddress].moneyLimit */\n      0x01\n      add\n      sload\n        /* \"contracts/wallet.sol\":326:406  return (wallet_users[userAddress].balance, wallet_users[userAddress].moneyLimit) */\n      swap2\n      pop\n      swap2\n      pop\n        /* \"contracts/wallet.sol\":239:414  function getUserInfo(address userAddress) public  view  returns(uint, uint) {... */\n      swap2\n      pop\n      swap2\n      jump\t// out\n        /* \"contracts/wallet.sol\":422:718  function setUserBalance() public payable {... */\n    tag_29:\n        /* \"contracts/wallet.sol\":475:487  uint balance */\n      0x00\n        /* \"contracts/wallet.sol\":493:516  getUserInfo(msg.sender) */\n      tag_49\n        /* \"contracts/wallet.sol\":505:515  msg.sender */\n      caller\n        /* \"contracts/wallet.sol\":493:504  getUserInfo */\n      tag_26\n        /* \"contracts/wallet.sol\":493:516  getUserInfo(msg.sender) */\n      jump\t// in\n    tag_49:\n        /* \"contracts/wallet.sol\":474:516  (uint balance, ) = getUserInfo(msg.sender) */\n      pop\n      swap1\n      pop\n        /* \"contracts/wallet.sol\":541:542  0 */\n      0x00\n        /* \"contracts/wallet.sol\":531:538  balance */\n      dup2\n        /* \"contracts/wallet.sol\":531:542  balance > 0 */\n      gt\n        /* \"contracts/wallet.sol\":527:711  if (balance > 0) {... */\n      iszero\n      tag_50\n      jumpi\n        /* \"contracts/wallet.sol\":604:613  msg.value */\n      callvalue\n        /* \"contracts/wallet.sol\":594:601  balance */\n      dup2\n        /* \"contracts/wallet.sol\":594:613  balance + msg.value */\n      tag_51\n      swap2\n      swap1\n      tag_52\n      jump\t// in\n    tag_51:\n        /* \"contracts/wallet.sol\":559:571  wallet_users */\n      0x00\n        /* \"contracts/wallet.sol\":559:583  wallet_users[msg.sender] */\n      dup1\n        /* \"contracts/wallet.sol\":572:582  msg.sender */\n      caller\n        /* \"contracts/wallet.sol\":559:583  wallet_users[msg.sender] */\n      0xffffffffffffffffffffffffffffffffffffffff\n      and\n      0xffffffffffffffffffffffffffffffffffffffff\n      and\n      dup2\n      mstore\n      0x20\n      add\n      swap1\n      dup2\n      mstore\n      0x20\n      add\n      0x00\n      keccak256\n        /* \"contracts/wallet.sol\":559:591  wallet_users[msg.sender].balance */\n      0x00\n      add\n        /* \"contracts/wallet.sol\":559:613  wallet_users[msg.sender].balance = balance + msg.value */\n      dup2\n      swap1\n      sstore\n      pop\n        /* \"contracts/wallet.sol\":527:711  if (balance > 0) {... */\n      jump(tag_53)\n    tag_50:\n        /* \"contracts/wallet.sol\":690:699  msg.value */\n      callvalue\n        /* \"contracts/wallet.sol\":655:667  wallet_users */\n      0x00\n        /* \"contracts/wallet.sol\":655:679  wallet_users[msg.sender] */\n      dup1\n        /* \"contracts/wallet.sol\":668:678  msg.sender */\n      caller\n        /* \"contracts/wallet.sol\":655:679  wallet_users[msg.sender] */\n      0xffffffffffffffffffffffffffffffffffffffff\n      and\n      0xffffffffffffffffffffffffffffffffffffffff\n      and\n      dup2\n      mstore\n      0x20\n      add\n      swap1\n      dup2\n      mstore\n      0x20\n      add\n      0x00\n      keccak256\n        /* \"contracts/wallet.sol\":655:687  wallet_users[msg.sender].balance */\n      0x00\n      add\n        /* \"contracts/wallet.sol\":655:699  wallet_users[msg.sender].balance = msg.value */\n      dup2\n      swap1\n      sstore\n      pop\n        /* \"contracts/wallet.sol\":527:711  if (balance > 0) {... */\n    tag_53:\n        /* \"contracts/wallet.sol\":463:718  {... */\n      pop\n        /* \"contracts/wallet.sol\":422:718  function setUserBalance() public payable {... */\n      jump\t// out\n        /* \"contracts/wallet.sol\":1172:1632  function sendFromWallet(address userAddress, uint sendedValue) public payable {... */\n    tag_33:\n        /* \"contracts/wallet.sol\":1262:1274  uint balance */\n      0x00\n        /* \"contracts/wallet.sol\":1276:1291  uint moneyLimit */\n      dup1\n        /* \"contracts/wallet.sol\":1295:1318  getUserInfo(msg.sender) */\n      tag_55\n        /* \"contracts/wallet.sol\":1307:1317  msg.sender */\n      caller\n        /* \"contracts/wallet.sol\":1295:1306  getUserInfo */\n      tag_26\n        /* \"contracts/wallet.sol\":1295:1318  getUserInfo(msg.sender) */\n      jump\t// in\n    tag_55:\n        /* \"contracts/wallet.sol\":1261:1318  (uint balance, uint moneyLimit) = getUserInfo(msg.sender) */\n      swap2\n      pop\n      swap2\n      pop\n        /* \"contracts/wallet.sol\":1348:1359  sendedValue */\n      dup3\n        /* \"contracts/wallet.sol\":1337:1344  balance */\n      dup3\n        /* \"contracts/wallet.sol\":1337:1359  balance >= sendedValue */\n      lt\n      iszero\n        /* \"contracts/wallet.sol\":1329:1380  require(balance >= sendedValue, \"Not enough money\") */\n      tag_56\n      jumpi\n      mload(0x40)\n      0x08c379a000000000000000000000000000000000000000000000000000000000\n      dup2\n      mstore\n      0x04\n      add\n      tag_57\n      swap1\n      tag_38\n      jump\t// in\n    tag_57:\n      mload(0x40)\n      dup1\n      swap2\n      sub\n      swap1\n      revert\n    tag_56:\n        /* \"contracts/wallet.sol\":1413:1423  moneyLimit */\n      dup1\n        /* \"contracts/wallet.sol\":1399:1410  sendedValue */\n      dup4\n        /* \"contracts/wallet.sol\":1399:1423  sendedValue > moneyLimit */\n      gt\n        /* \"contracts/wallet.sol\":1391:1467  require(sendedValue > moneyLimit, \"Transaction bigger than installed limit\") */\n      tag_58\n      jumpi\n      mload(0x40)\n      0x08c379a000000000000000000000000000000000000000000000000000000000\n      dup2\n      mstore\n      0x04\n      add\n      tag_59\n      swap1\n      tag_41\n      jump\t// in\n    tag_59:\n      mload(0x40)\n      dup1\n      swap2\n      sub\n      swap1\n      revert\n    tag_58:\n        /* \"contracts/wallet.sol\":1523:1534  sendedValue */\n      dup3\n        /* \"contracts/wallet.sol\":1513:1520  balance */\n      dup3\n        /* \"contracts/wallet.sol\":1513:1534  balance - sendedValue */\n      tag_60\n      swap2\n      swap1\n      tag_43\n      jump\t// in\n    tag_60:\n        /* \"contracts/wallet.sol\":1478:1490  wallet_users */\n      0x00\n        /* \"contracts/wallet.sol\":1478:1502  wallet_users[msg.sender] */\n      dup1\n        /* \"contracts/wallet.sol\":1491:1501  msg.sender */\n      caller\n        /* \"contracts/wallet.sol\":1478:1502  wallet_users[msg.sender] */\n      0xffffffffffffffffffffffffffffffffffffffff\n      and\n      0xffffffffffffffffffffffffffffffffffffffff\n      and\n      dup2\n      mstore\n      0x20\n      add\n      swap1\n      dup2\n      mstore\n      0x20\n      add\n      0x00\n      keccak256\n        /* \"contracts/wallet.sol\":1478:1510  wallet_users[msg.sender].balance */\n      0x00\n      add\n        /* \"contracts/wallet.sol\":1478:1534  wallet_users[msg.sender].balance = balance - sendedValue */\n      dup2\n      swap1\n      sstore\n      pop\n        /* \"contracts/wallet.sol\":1545:1565  address payable  _to */\n      0x00\n        /* \"contracts/wallet.sol\":1576:1587  userAddress */\n      dup5\n        /* \"contracts/wallet.sol\":1545:1588  address payable  _to = payable(userAddress) */\n      swap1\n      pop\n        /* \"contracts/wallet.sol\":1599:1602  _to */\n      dup1\n        /* \"contracts/wallet.sol\":1599:1611  _to.transfer */\n      0xffffffffffffffffffffffffffffffffffffffff\n      and\n        /* \"contracts/wallet.sol\":1599:1624  _to.transfer(sendedValue) */\n      0x08fc\n        /* \"contracts/wallet.sol\":1612:1623  sendedValue */\n      dup6\n        /* \"contracts/wallet.sol\":1599:1624  _to.transfer(sendedValue) */\n      swap1\n      dup2\n      iszero\n      mul\n      swap1\n      mload(0x40)\n      0x00\n      mload(0x40)\n      dup1\n      dup4\n      sub\n      dup2\n      dup6\n      dup9\n      dup9\n      call\n      swap4\n      pop\n      pop\n      pop\n      pop\n      iszero\n      dup1\n      iszero\n      tag_62\n      jumpi\n      returndatasize\n      0x00\n      dup1\n      returndatacopy\n      revert(0x00, returndatasize)\n    tag_62:\n      pop\n        /* \"contracts/wallet.sol\":1250:1632  {... */\n      pop\n      pop\n      pop\n        /* \"contracts/wallet.sol\":1172:1632  function sendFromWallet(address userAddress, uint sendedValue) public payable {... */\n      pop\n      pop\n      jump\t// out\n        /* \"#utility.yul\":88:205   */\n    tag_64:\n        /* \"#utility.yul\":197:198   */\n      0x00\n        /* \"#utility.yul\":194:195   */\n      dup1\n        /* \"#utility.yul\":187:199   */\n      revert\n        /* \"#utility.yul\":334:460   */\n    tag_66:\n        /* \"#utility.yul\":371:378   */\n      0x00\n        /* \"#utility.yul\":411:453   */\n      0xffffffffffffffffffffffffffffffffffffffff\n        /* \"#utility.yul\":404:409   */\n      dup3\n        /* \"#utility.yul\":400:454   */\n      and\n        /* \"#utility.yul\":389:454   */\n      swap1\n      pop\n        /* \"#utility.yul\":334:460   */\n      swap2\n      swap1\n      pop\n      jump\t// out\n        /* \"#utility.yul\":466:562   */\n    tag_67:\n        /* \"#utility.yul\":503:510   */\n      0x00\n        /* \"#utility.yul\":532:556   */\n      tag_86\n        /* \"#utility.yul\":550:555   */\n      dup3\n        /* \"#utility.yul\":532:556   */\n      tag_66\n      jump\t// in\n    tag_86:\n        /* \"#utility.yul\":521:556   */\n      swap1\n      pop\n        /* \"#utility.yul\":466:562   */\n      swap2\n      swap1\n      pop\n      jump\t// out\n        /* \"#utility.yul\":568:690   */\n    tag_68:\n        /* \"#utility.yul\":641:665   */\n      tag_88\n        /* \"#utility.yul\":659:664   */\n      dup2\n        /* \"#utility.yul\":641:665   */\n      tag_67\n      jump\t// in\n    tag_88:\n        /* \"#utility.yul\":634:639   */\n      dup2\n        /* \"#utility.yul\":631:666   */\n      eq\n        /* \"#utility.yul\":621:684   */\n      tag_89\n      jumpi\n        /* \"#utility.yul\":680:681   */\n      0x00\n        /* \"#utility.yul\":677:678   */\n      dup1\n        /* \"#utility.yul\":670:682   */\n      revert\n        /* \"#utility.yul\":621:684   */\n    tag_89:\n        /* \"#utility.yul\":568:690   */\n      pop\n      jump\t// out\n        /* \"#utility.yul\":696:835   */\n    tag_69:\n        /* \"#utility.yul\":742:747   */\n      0x00\n        /* \"#utility.yul\":780:786   */\n      dup2\n        /* \"#utility.yul\":767:787   */\n      calldataload\n        /* \"#utility.yul\":758:787   */\n      swap1\n      pop\n        /* \"#utility.yul\":796:829   */\n      tag_91\n        /* \"#utility.yul\":823:828   */\n      dup2\n        /* \"#utility.yul\":796:829   */\n      tag_68\n      jump\t// in\n    tag_91:\n        /* \"#utility.yul\":696:835   */\n      swap3\n      swap2\n      pop\n      pop\n      jump\t// out\n        /* \"#utility.yul\":841:1170   */\n    tag_11:\n        /* \"#utility.yul\":900:906   */\n      0x00\n        /* \"#utility.yul\":949:951   */\n      0x20\n        /* \"#utility.yul\":937:946   */\n      dup3\n        /* \"#utility.yul\":928:935   */\n      dup5\n        /* \"#utility.yul\":924:947   */\n      sub\n        /* \"#utility.yul\":920:952   */\n      slt\n        /* \"#utility.yul\":917:1036   */\n      iszero\n      tag_93\n      jumpi\n        /* \"#utility.yul\":955:1034   */\n      tag_94\n      tag_64\n      jump\t// in\n    tag_94:\n        /* \"#utility.yul\":917:1036   */\n    tag_93:\n        /* \"#utility.yul\":1075:1076   */\n      0x00\n        /* \"#utility.yul\":1100:1153   */\n      tag_95\n        /* \"#utility.yul\":1145:1152   */\n      dup5\n        /* \"#utility.yul\":1136:1142   */\n      dup3\n        /* \"#utility.yul\":1125:1134   */\n      dup6\n        /* \"#utility.yul\":1121:1143   */\n      add\n        /* \"#utility.yul\":1100:1153   */\n      tag_69\n      jump\t// in\n    tag_95:\n        /* \"#utility.yul\":1090:1153   */\n      swap2\n      pop\n        /* \"#utility.yul\":1046:1163   */\n      pop\n        /* \"#utility.yul\":841:1170   */\n      swap3\n      swap2\n      pop\n      pop\n      jump\t// out\n        /* \"#utility.yul\":1176:1253   */\n    tag_70:\n        /* \"#utility.yul\":1213:1220   */\n      0x00\n        /* \"#utility.yul\":1242:1247   */\n      dup2\n        /* \"#utility.yul\":1231:1247   */\n      swap1\n      pop\n        /* \"#utility.yul\":1176:1253   */\n      swap2\n      swap1\n      pop\n      jump\t// out\n        /* \"#utility.yul\":1259:1377   */\n    tag_71:\n        /* \"#utility.yul\":1346:1370   */\n      tag_98\n        /* \"#utility.yul\":1364:1369   */\n      dup2\n        /* \"#utility.yul\":1346:1370   */\n      tag_70\n      jump\t// in\n    tag_98:\n        /* \"#utility.yul\":1341:1344   */\n      dup3\n        /* \"#utility.yul\":1334:1371   */\n      mstore\n        /* \"#utility.yul\":1259:1377   */\n      pop\n      pop\n      jump\t// out\n        /* \"#utility.yul\":1383:1715   */\n    tag_14:\n        /* \"#utility.yul\":1504:1508   */\n      0x00\n        /* \"#utility.yul\":1542:1544   */\n      0x40\n        /* \"#utility.yul\":1531:1540   */\n      dup3\n        /* \"#utility.yul\":1527:1545   */\n      add\n        /* \"#utility.yul\":1519:1545   */\n      swap1\n      pop\n        /* \"#utility.yul\":1555:1626   */\n      tag_100\n        /* \"#utility.yul\":1623:1624   */\n      0x00\n        /* \"#utility.yul\":1612:1621   */\n      dup4\n        /* \"#utility.yul\":1608:1625   */\n      add\n        /* \"#utility.yul\":1599:1605   */\n      dup6\n        /* \"#utility.yul\":1555:1626   */\n      tag_71\n      jump\t// in\n    tag_100:\n        /* \"#utility.yul\":1636:1708   */\n      tag_101\n        /* \"#utility.yul\":1704:1706   */\n      0x20\n        /* \"#utility.yul\":1693:1702   */\n      dup4\n        /* \"#utility.yul\":1689:1707   */\n      add\n        /* \"#utility.yul\":1680:1686   */\n      dup5\n        /* \"#utility.yul\":1636:1708   */\n      tag_71\n      jump\t// in\n    tag_101:\n        /* \"#utility.yul\":1383:1715   */\n      swap4\n      swap3\n      pop\n      pop\n      pop\n      jump\t// out\n        /* \"#utility.yul\":1721:1843   */\n    tag_72:\n        /* \"#utility.yul\":1794:1818   */\n      tag_103\n        /* \"#utility.yul\":1812:1817   */\n      dup2\n        /* \"#utility.yul\":1794:1818   */\n      tag_70\n      jump\t// in\n    tag_103:\n        /* \"#utility.yul\":1787:1792   */\n      dup2\n        /* \"#utility.yul\":1784:1819   */\n      eq\n        /* \"#utility.yul\":1774:1837   */\n      tag_104\n      jumpi\n        /* \"#utility.yul\":1833:1834   */\n      0x00\n        /* \"#utility.yul\":1830:1831   */\n      dup1\n        /* \"#utility.yul\":1823:1835   */\n      revert\n        /* \"#utility.yul\":1774:1837   */\n    tag_104:\n        /* \"#utility.yul\":1721:1843   */\n      pop\n      jump\t// out\n        /* \"#utility.yul\":1849:1988   */\n    tag_73:\n        /* \"#utility.yul\":1895:1900   */\n      0x00\n        /* \"#utility.yul\":1933:1939   */\n      dup2\n        /* \"#utility.yul\":1920:1940   */\n      calldataload\n        /* \"#utility.yul\":1911:1940   */\n      swap1\n      pop\n        /* \"#utility.yul\":1949:1982   */\n      tag_106\n        /* \"#utility.yul\":1976:1981   */\n      dup2\n        /* \"#utility.yul\":1949:1982   */\n      tag_72\n      jump\t// in\n    tag_106:\n        /* \"#utility.yul\":1849:1988   */\n      swap3\n      swap2\n      pop\n      pop\n      jump\t// out\n        /* \"#utility.yul\":1994:2323   */\n    tag_17:\n        /* \"#utility.yul\":2053:2059   */\n      0x00\n        /* \"#utility.yul\":2102:2104   */\n      0x20\n        /* \"#utility.yul\":2090:2099   */\n      dup3\n        /* \"#utility.yul\":2081:2088   */\n      dup5\n        /* \"#utility.yul\":2077:2100   */\n      sub\n        /* \"#utility.yul\":2073:2105   */\n      slt\n        /* \"#utility.yul\":2070:2189   */\n      iszero\n      tag_108\n      jumpi\n        /* \"#utility.yul\":2108:2187   */\n      tag_109\n      tag_64\n      jump\t// in\n    tag_109:\n        /* \"#utility.yul\":2070:2189   */\n    tag_108:\n        /* \"#utility.yul\":2228:2229   */\n      0x00\n        /* \"#utility.yul\":2253:2306   */\n      tag_110\n        /* \"#utility.yul\":2298:2305   */\n      dup5\n        /* \"#utility.yul\":2289:2295   */\n      dup3\n        /* \"#utility.yul\":2278:2287   */\n      dup6\n        /* \"#utility.yul\":2274:2296   */\n      add\n        /* \"#utility.yul\":2253:2306   */\n      tag_73\n      jump\t// in\n    tag_110:\n        /* \"#utility.yul\":2243:2306   */\n      swap2\n      pop\n        /* \"#utility.yul\":2199:2316   */\n      pop\n        /* \"#utility.yul\":1994:2323   */\n      swap3\n      swap2\n      pop\n      pop\n      jump\t// out\n        /* \"#utility.yul\":2329:2803   */\n    tag_32:\n        /* \"#utility.yul\":2397:2403   */\n      0x00\n        /* \"#utility.yul\":2405:2411   */\n      dup1\n        /* \"#utility.yul\":2454:2456   */\n      0x40\n        /* \"#utility.yul\":2442:2451   */\n      dup4\n        /* \"#utility.yul\":2433:2440   */\n      dup6\n        /* \"#utility.yul\":2429:2452   */\n      sub\n        /* \"#utility.yul\":2425:2457   */\n      slt\n        /* \"#utility.yul\":2422:2541   */\n      iszero\n      tag_112\n      jumpi\n        /* \"#utility.yul\":2460:2539   */\n      tag_113\n      tag_64\n      jump\t// in\n    tag_113:\n        /* \"#utility.yul\":2422:2541   */\n    tag_112:\n        /* \"#utility.yul\":2580:2581   */\n      0x00\n        /* \"#utility.yul\":2605:2658   */\n      tag_114\n        /* \"#utility.yul\":2650:2657   */\n      dup6\n        /* \"#utility.yul\":2641:2647   */\n      dup3\n        /* \"#utility.yul\":2630:2639   */\n      dup7\n        /* \"#utility.yul\":2626:2648   */\n      add\n        /* \"#utility.yul\":2605:2658   */\n      tag_69\n      jump\t// in\n    tag_114:\n        /* \"#utility.yul\":2595:2658   */\n      swap3\n      pop\n        /* \"#utility.yul\":2551:2668   */\n      pop\n        /* \"#utility.yul\":2707:2709   */\n      0x20\n        /* \"#utility.yul\":2733:2786   */\n      tag_115\n        /* \"#utility.yul\":2778:2785   */\n      dup6\n        /* \"#utility.yul\":2769:2775   */\n      dup3\n        /* \"#utility.yul\":2758:2767   */\n      dup7\n        /* \"#utility.yul\":2754:2776   */\n      add\n        /* \"#utility.yul\":2733:2786   */\n      tag_73\n      jump\t// in\n    tag_115:\n        /* \"#utility.yul\":2723:2786   */\n      swap2\n      pop\n        /* \"#utility.yul\":2678:2796   */\n      pop\n        /* \"#utility.yul\":2329:2803   */\n      swap3\n      pop\n      swap3\n      swap1\n      pop\n      jump\t// out\n        /* \"#utility.yul\":2809:2978   */\n    tag_74:\n        /* \"#utility.yul\":2893:2904   */\n      0x00\n        /* \"#utility.yul\":2927:2933   */\n      dup3\n        /* \"#utility.yul\":2922:2925   */\n      dup3\n        /* \"#utility.yul\":2915:2934   */\n      mstore\n        /* \"#utility.yul\":2967:2971   */\n      0x20\n        /* \"#utility.yul\":2962:2965   */\n      dup3\n        /* \"#utility.yul\":2958:2972   */\n      add\n        /* \"#utility.yul\":2943:2972   */\n      swap1\n      pop\n        /* \"#utility.yul\":2809:2978   */\n      swap3\n      swap2\n      pop\n      pop\n      jump\t// out\n        /* \"#utility.yul\":2984:3150   */\n    tag_75:\n        /* \"#utility.yul\":3124:3142   */\n      0x4e6f7420656e6f756768206d6f6e657900000000000000000000000000000000\n        /* \"#utility.yul\":3120:3121   */\n      0x00\n        /* \"#utility.yul\":3112:3118   */\n      dup3\n        /* \"#utility.yul\":3108:3122   */\n      add\n        /* \"#utility.yul\":3101:3143   */\n      mstore\n        /* \"#utility.yul\":2984:3150   */\n      pop\n      jump\t// out\n        /* \"#utility.yul\":3156:3522   */\n    tag_76:\n        /* \"#utility.yul\":3298:3301   */\n      0x00\n        /* \"#utility.yul\":3319:3386   */\n      tag_119\n        /* \"#utility.yul\":3383:3385   */\n      0x10\n        /* \"#utility.yul\":3378:3381   */\n      dup4\n        /* \"#utility.yul\":3319:3386   */\n      tag_74\n      jump\t// in\n    tag_119:\n        /* \"#utility.yul\":3312:3386   */\n      swap2\n      pop\n        /* \"#utility.yul\":3395:3488   */\n      tag_120\n        /* \"#utility.yul\":3484:3487   */\n      dup3\n        /* \"#utility.yul\":3395:3488   */\n      tag_75\n      jump\t// in\n    tag_120:\n        /* \"#utility.yul\":3513:3515   */\n      0x20\n        /* \"#utility.yul\":3508:3511   */\n      dup3\n        /* \"#utility.yul\":3504:3516   */\n      add\n        /* \"#utility.yul\":3497:3516   */\n      swap1\n      pop\n        /* \"#utility.yul\":3156:3522   */\n      swap2\n      swap1\n      pop\n      jump\t// out\n        /* \"#utility.yul\":3528:3947   */\n    tag_38:\n        /* \"#utility.yul\":3694:3698   */\n      0x00\n        /* \"#utility.yul\":3732:3734   */\n      0x20\n        /* \"#utility.yul\":3721:3730   */\n      dup3\n        /* \"#utility.yul\":3717:3735   */\n      add\n        /* \"#utility.yul\":3709:3735   */\n      swap1\n      pop\n        /* \"#utility.yul\":3781:3790   */\n      dup2\n        /* \"#utility.yul\":3775:3779   */\n      dup2\n        /* \"#utility.yul\":3771:3791   */\n      sub\n        /* \"#utility.yul\":3767:3768   */\n      0x00\n        /* \"#utility.yul\":3756:3765   */\n      dup4\n        /* \"#utility.yul\":3752:3769   */\n      add\n        /* \"#utility.yul\":3745:3792   */\n      mstore\n        /* \"#utility.yul\":3809:3940   */\n      tag_122\n        /* \"#utility.yul\":3935:3939   */\n      dup2\n        /* \"#utility.yul\":3809:3940   */\n      tag_76\n      jump\t// in\n    tag_122:\n        /* \"#utility.yul\":3801:3940   */\n      swap1\n      pop\n        /* \"#utility.yul\":3528:3947   */\n      swap2\n      swap1\n      pop\n      jump\t// out\n        /* \"#utility.yul\":3953:4179   */\n    tag_77:\n        /* \"#utility.yul\":4093:4127   */\n      0x5472616e73616374696f6e20626967676572207468616e20696e7374616c6c65\n        /* \"#utility.yul\":4089:4090   */\n      0x00\n        /* \"#utility.yul\":4081:4087   */\n      dup3\n        /* \"#utility.yul\":4077:4091   */\n      add\n        /* \"#utility.yul\":4070:4128   */\n      mstore\n        /* \"#utility.yul\":4162:4171   */\n      0x64206c696d697400000000000000000000000000000000000000000000000000\n        /* \"#utility.yul\":4157:4159   */\n      0x20\n        /* \"#utility.yul\":4149:4155   */\n      dup3\n        /* \"#utility.yul\":4145:4160   */\n      add\n        /* \"#utility.yul\":4138:4172   */\n      mstore\n        /* \"#utility.yul\":3953:4179   */\n      pop\n      jump\t// out\n        /* \"#utility.yul\":4185:4551   */\n    tag_78:\n        /* \"#utility.yul\":4327:4330   */\n      0x00\n        /* \"#utility.yul\":4348:4415   */\n      tag_125\n        /* \"#utility.yul\":4412:4414   */\n      0x27\n        /* \"#utility.yul\":4407:4410   */\n      dup4\n        /* \"#utility.yul\":4348:4415   */\n      tag_74\n      jump\t// in\n    tag_125:\n        /* \"#utility.yul\":4341:4415   */\n      swap2\n      pop\n        /* \"#utility.yul\":4424:4517   */\n      tag_126\n        /* \"#utility.yul\":4513:4516   */\n      dup3\n        /* \"#utility.yul\":4424:4517   */\n      tag_77\n      jump\t// in\n    tag_126:\n        /* \"#utility.yul\":4542:4544   */\n      0x40\n        /* \"#utility.yul\":4537:4540   */\n      dup3\n        /* \"#utility.yul\":4533:4545   */\n      add\n        /* \"#utility.yul\":4526:4545   */\n      swap1\n      pop\n        /* \"#utility.yul\":4185:4551   */\n      swap2\n      swap1\n      pop\n      jump\t// out\n        /* \"#utility.yul\":4557:4976   */\n    tag_41:\n        /* \"#utility.yul\":4723:4727   */\n      0x00\n        /* \"#utility.yul\":4761:4763   */\n      0x20\n        /* \"#utility.yul\":4750:4759   */\n      dup3\n        /* \"#utility.yul\":4746:4764   */\n      add\n        /* \"#utility.yul\":4738:4764   */\n      swap1\n      pop\n        /* \"#utility.yul\":4810:4819   */\n      dup2\n        /* \"#utility.yul\":4804:4808   */\n      dup2\n        /* \"#utility.yul\":4800:4820   */\n      sub\n        /* \"#utility.yul\":4796:4797   */\n      0x00\n        /* \"#utility.yul\":4785:4794   */\n      dup4\n        /* \"#utility.yul\":4781:4798   */\n      add\n        /* \"#utility.yul\":4774:4821   */\n      mstore\n        /* \"#utility.yul\":4838:4969   */\n      tag_128\n        /* \"#utility.yul\":4964:4968   */\n      dup2\n        /* \"#utility.yul\":4838:4969   */\n      tag_78\n      jump\t// in\n    tag_128:\n        /* \"#utility.yul\":4830:4969   */\n      swap1\n      pop\n        /* \"#utility.yul\":4557:4976   */\n      swap2\n      swap1\n      pop\n      jump\t// out\n        /* \"#utility.yul\":4982:5162   */\n    tag_79:\n        /* \"#utility.yul\":5030:5107   */\n      0x4e487b7100000000000000000000000000000000000000000000000000000000\n        /* \"#utility.yul\":5027:5028   */\n      0x00\n        /* \"#utility.yul\":5020:5108   */\n      mstore\n        /* \"#utility.yul\":5127:5131   */\n      0x11\n        /* \"#utility.yul\":5124:5125   */\n      0x04\n        /* \"#utility.yul\":5117:5132   */\n      mstore\n        /* \"#utility.yul\":5151:5155   */\n      0x24\n        /* \"#utility.yul\":5148:5149   */\n      0x00\n        /* \"#utility.yul\":5141:5156   */\n      revert\n        /* \"#utility.yul\":5168:5362   */\n    tag_43:\n        /* \"#utility.yul\":5208:5212   */\n      0x00\n        /* \"#utility.yul\":5228:5248   */\n      tag_131\n        /* \"#utility.yul\":5246:5247   */\n      dup3\n        /* \"#utility.yul\":5228:5248   */\n      tag_70\n      jump\t// in\n    tag_131:\n        /* \"#utility.yul\":5223:5248   */\n      swap2\n      pop\n        /* \"#utility.yul\":5262:5282   */\n      tag_132\n        /* \"#utility.yul\":5280:5281   */\n      dup4\n        /* \"#utility.yul\":5262:5282   */\n      tag_70\n      jump\t// in\n    tag_132:\n        /* \"#utility.yul\":5257:5282   */\n      swap3\n      pop\n        /* \"#utility.yul\":5306:5307   */\n      dup3\n        /* \"#utility.yul\":5303:5304   */\n      dup3\n        /* \"#utility.yul\":5299:5308   */\n      sub\n        /* \"#utility.yul\":5291:5308   */\n      swap1\n      pop\n        /* \"#utility.yul\":5330:5331   */\n      dup2\n        /* \"#utility.yul\":5324:5328   */\n      dup2\n        /* \"#utility.yul\":5321:5332   */\n      gt\n        /* \"#utility.yul\":5318:5355   */\n      iszero\n      tag_133\n      jumpi\n        /* \"#utility.yul\":5335:5353   */\n      tag_134\n      tag_79\n      jump\t// in\n    tag_134:\n        /* \"#utility.yul\":5318:5355   */\n    tag_133:\n        /* \"#utility.yul\":5168:5362   */\n      swap3\n      swap2\n      pop\n      pop\n      jump\t// out\n        /* \"#utility.yul\":5368:5559   */\n    tag_52:\n        /* \"#utility.yul\":5408:5411   */\n      0x00\n        /* \"#utility.yul\":5427:5447   */\n      tag_136\n        /* \"#utility.yul\":5445:5446   */\n      dup3\n        /* \"#utility.yul\":5427:5447   */\n      tag_70\n      jump\t// in\n    tag_136:\n        /* \"#utility.yul\":5422:5447   */\n      swap2\n      pop\n        /* \"#utility.yul\":5461:5481   */\n      tag_137\n        /* \"#utility.yul\":5479:5480   */\n      dup4\n        /* \"#utility.yul\":5461:5481   */\n      tag_70\n      jump\t// in\n    tag_137:\n        /* \"#utility.yul\":5456:5481   */\n      swap3\n      pop\n        /* \"#utility.yul\":5504:5505   */\n      dup3\n        /* \"#utility.yul\":5501:5502   */\n      dup3\n        /* \"#utility.yul\":5497:5506   */\n      add\n        /* \"#utility.yul\":5490:5506   */\n      swap1\n      pop\n        /* \"#utility.yul\":5525:5528   */\n      dup1\n        /* \"#utility.yul\":5522:5523   */\n      dup3\n        /* \"#utility.yul\":5519:5529   */\n      gt\n        /* \"#utility.yul\":5516:5552   */\n      iszero\n      tag_138\n      jumpi\n        /* \"#utility.yul\":5532:5550   */\n      tag_139\n      tag_79\n      jump\t// in\n    tag_139:\n        /* \"#utility.yul\":5516:5552   */\n    tag_138:\n        /* \"#utility.yul\":5368:5559   */\n      swap3\n      swap2\n      pop\n      pop\n      jump\t// out\n\n    auxdata: 0xa26469706673582212200f92182d392fcba0c8eb2bde6ab77f9c19c1f5414db6ffb397247a30ecc7dc9864736f6c634300081a0033\n}\n",
				"bytecode": {
					"linkReferences": {},
					"object": "6080604052348015600e575f80fd5b506108668061001c5f395ff3fe608060405260043610610054575f3560e01c806301a1015814610058578063067cdf191461009557806344a320fd146100b15780636386c1c7146100d957806376e747e814610116578063b724de6014610120575b5f80fd5b348015610063575f80fd5b5061007e6004803603810190610079919061059a565b61013c565b60405161008c9291906105dd565b60405180910390f35b6100af60048036038101906100aa919061062e565b61015b565b005b3480156100bc575f80fd5b506100d760048036038101906100d2919061062e565b61028b565b005b3480156100e4575f80fd5b506100ff60048036038101906100fa919061059a565b6102d2565b60405161010d9291906105dd565b60405180910390f35b61011e61035c565b005b61013a60048036038101906101359190610659565b61040b565b005b5f602052805f5260405f205f91509050805f0154908060010154905082565b5f80610166336102d2565b91509150828210156101ad576040517f08c379a00000000000000000000000000000000000000000000000000000000081526004016101a4906106f1565b60405180910390fd5b8083116101ef576040517f08c379a00000000000000000000000000000000000000000000000000000000081526004016101e69061077f565b60405180910390fd5b82826101fb91906107ca565b5f803373ffffffffffffffffffffffffffffffffffffffff1673ffffffffffffffffffffffffffffffffffffffff1681526020019081526020015f205f01819055505f3390508073ffffffffffffffffffffffffffffffffffffffff166108fc8590811502906040515f60405180830381858888f19350505050158015610284573d5f803e3d5ffd5b5050505050565b805f803373ffffffffffffffffffffffffffffffffffffffff1673ffffffffffffffffffffffffffffffffffffffff1681526020019081526020015f206001018190555050565b5f805f808473ffffffffffffffffffffffffffffffffffffffff1673ffffffffffffffffffffffffffffffffffffffff1681526020019081526020015f205f01545f808573ffffffffffffffffffffffffffffffffffffffff1673ffffffffffffffffffffffffffffffffffffffff1681526020019081526020015f206001015491509150915091565b5f610366336102d2565b5090505f8111156103c457348161037d91906107fd565b5f803373ffffffffffffffffffffffffffffffffffffffff1673ffffffffffffffffffffffffffffffffffffffff1681526020019081526020015f205f0181905550610408565b345f803373ffffffffffffffffffffffffffffffffffffffff1673ffffffffffffffffffffffffffffffffffffffff1681526020019081526020015f205f01819055505b50565b5f80610416336102d2565b915091508282101561045d576040517f08c379a0000000000000000000000000000000000000000000000000000000008152600401610454906106f1565b60405180910390fd5b80831161049f576040517f08c379a00000000000000000000000000000000000000000000000000000000081526004016104969061077f565b60405180910390fd5b82826104ab91906107ca565b5f803373ffffffffffffffffffffffffffffffffffffffff1673ffffffffffffffffffffffffffffffffffffffff1681526020019081526020015f205f01819055505f8490508073ffffffffffffffffffffffffffffffffffffffff166108fc8590811502906040515f60405180830381858888f19350505050158015610534573d5f803e3d5ffd5b505050505050565b5f80fd5b5f73ffffffffffffffffffffffffffffffffffffffff82169050919050565b5f61056982610540565b9050919050565b6105798161055f565b8114610583575f80fd5b50565b5f8135905061059481610570565b92915050565b5f602082840312156105af576105ae61053c565b5b5f6105bc84828501610586565b91505092915050565b5f819050919050565b6105d7816105c5565b82525050565b5f6040820190506105f05f8301856105ce565b6105fd60208301846105ce565b9392505050565b61060d816105c5565b8114610617575f80fd5b50565b5f8135905061062881610604565b92915050565b5f602082840312156106435761064261053c565b5b5f6106508482850161061a565b91505092915050565b5f806040838503121561066f5761066e61053c565b5b5f61067c85828601610586565b925050602061068d8582860161061a565b9150509250929050565b5f82825260208201905092915050565b7f4e6f7420656e6f756768206d6f6e6579000000000000000000000000000000005f82015250565b5f6106db601083610697565b91506106e6826106a7565b602082019050919050565b5f6020820190508181035f830152610708816106cf565b9050919050565b7f5472616e73616374696f6e20626967676572207468616e20696e7374616c6c655f8201527f64206c696d697400000000000000000000000000000000000000000000000000602082015250565b5f610769602783610697565b91506107748261070f565b604082019050919050565b5f6020820190508181035f8301526107968161075d565b9050919050565b7f4e487b71000000000000000000000000000000000000000000000000000000005f52601160045260245ffd5b5f6107d4826105c5565b91506107df836105c5565b92508282039050818111156107f7576107f661079d565b5b92915050565b5f610807826105c5565b9150610812836105c5565b925082820190508082111561082a5761082961079d565b5b9291505056fea26469706673582212200f92182d392fcba0c8eb2bde6ab77f9c19c1f5414db6ffb397247a30ecc7dc9864736f6c634300081a0033",
					"opcodes": "PUSH1 0x80 PUSH1 0x40 MSTORE CALLVALUE DUP1 ISZERO PUSH1 0xE JUMPI PUSH0 DUP1 REVERT JUMPDEST POP PUSH2 0x866 DUP1 PUSH2 0x1C PUSH0 CODECOPY PUSH0 RETURN INVALID PUSH1 0x80 PUSH1 0x40 MSTORE PUSH1 0x4 CALLDATASIZE LT PUSH2 0x54 JUMPI PUSH0 CALLDATALOAD PUSH1 0xE0 SHR DUP1 PUSH4 0x1A10158 EQ PUSH2 0x58 JUMPI DUP1 PUSH4 0x67CDF19 EQ PUSH2 0x95 JUMPI DUP1 PUSH4 0x44A320FD EQ PUSH2 0xB1 JUMPI DUP1 PUSH4 0x6386C1C7 EQ PUSH2 0xD9 JUMPI DUP1 PUSH4 0x76E747E8 EQ PUSH2 0x116 JUMPI DUP1 PUSH4 0xB724DE60 EQ PUSH2 0x120 JUMPI JUMPDEST PUSH0 DUP1 REVERT JUMPDEST CALLVALUE DUP1 ISZERO PUSH2 0x63 JUMPI PUSH0 DUP1 REVERT JUMPDEST POP PUSH2 0x7E PUSH1 0x4 DUP1 CALLDATASIZE SUB DUP2 ADD SWAP1 PUSH2 0x79 SWAP2 SWAP1 PUSH2 0x59A JUMP JUMPDEST PUSH2 0x13C JUMP JUMPDEST PUSH1 0x40 MLOAD PUSH2 0x8C SWAP3 SWAP2 SWAP1 PUSH2 0x5DD JUMP JUMPDEST PUSH1 0x40 MLOAD DUP1 SWAP2 SUB SWAP1 RETURN JUMPDEST PUSH2 0xAF PUSH1 0x4 DUP1 CALLDATASIZE SUB DUP2 ADD SWAP1 PUSH2 0xAA SWAP2 SWAP1 PUSH2 0x62E JUMP JUMPDEST PUSH2 0x15B JUMP JUMPDEST STOP JUMPDEST CALLVALUE DUP1 ISZERO PUSH2 0xBC JUMPI PUSH0 DUP1 REVERT JUMPDEST POP PUSH2 0xD7 PUSH1 0x4 DUP1 CALLDATASIZE SUB DUP2 ADD SWAP1 PUSH2 0xD2 SWAP2 SWAP1 PUSH2 0x62E JUMP JUMPDEST PUSH2 0x28B JUMP JUMPDEST STOP JUMPDEST CALLVALUE DUP1 ISZERO PUSH2 0xE4 JUMPI PUSH0 DUP1 REVERT JUMPDEST POP PUSH2 0xFF PUSH1 0x4 DUP1 CALLDATASIZE SUB DUP2 ADD SWAP1 PUSH2 0xFA SWAP2 SWAP1 PUSH2 0x59A JUMP JUMPDEST PUSH2 0x2D2 JUMP JUMPDEST PUSH1 0x40 MLOAD PUSH2 0x10D SWAP3 SWAP2 SWAP1 PUSH2 0x5DD JUMP JUMPDEST PUSH1 0x40 MLOAD DUP1 SWAP2 SUB SWAP1 RETURN JUMPDEST PUSH2 0x11E PUSH2 0x35C JUMP JUMPDEST STOP JUMPDEST PUSH2 0x13A PUSH1 0x4 DUP1 CALLDATASIZE SUB DUP2 ADD SWAP1 PUSH2 0x135 SWAP2 SWAP1 PUSH2 0x659 JUMP JUMPDEST PUSH2 0x40B JUMP JUMPDEST STOP JUMPDEST PUSH0 PUSH1 0x20 MSTORE DUP1 PUSH0 MSTORE PUSH1 0x40 PUSH0 KECCAK256 PUSH0 SWAP2 POP SWAP1 POP DUP1 PUSH0 ADD SLOAD SWAP1 DUP1 PUSH1 0x1 ADD SLOAD SWAP1 POP DUP3 JUMP JUMPDEST PUSH0 DUP1 PUSH2 0x166 CALLER PUSH2 0x2D2 JUMP JUMPDEST SWAP2 POP SWAP2 POP DUP3 DUP3 LT ISZERO PUSH2 0x1AD JUMPI PUSH1 0x40 MLOAD PUSH32 0x8C379A000000000000000000000000000000000000000000000000000000000 DUP2 MSTORE PUSH1 0x4 ADD PUSH2 0x1A4 SWAP1 PUSH2 0x6F1 JUMP JUMPDEST PUSH1 0x40 MLOAD DUP1 SWAP2 SUB SWAP1 REVERT JUMPDEST DUP1 DUP4 GT PUSH2 0x1EF JUMPI PUSH1 0x40 MLOAD PUSH32 0x8C379A000000000000000000000000000000000000000000000000000000000 DUP2 MSTORE PUSH1 0x4 ADD PUSH2 0x1E6 SWAP1 PUSH2 0x77F JUMP JUMPDEST PUSH1 0x40 MLOAD DUP1 SWAP2 SUB SWAP1 REVERT JUMPDEST DUP3 DUP3 PUSH2 0x1FB SWAP2 SWAP1 PUSH2 0x7CA JUMP JUMPDEST PUSH0 DUP1 CALLER PUSH20 0xFFFFFFFFFFFFFFFFFFFFFFFFFFFFFFFFFFFFFFFF AND PUSH20 0xFFFFFFFFFFFFFFFFFFFFFFFFFFFFFFFFFFFFFFFF AND DUP2 MSTORE PUSH1 0x20 ADD SWAP1 DUP2 MSTORE PUSH1 0x20 ADD PUSH0 KECCAK256 PUSH0 ADD DUP2 SWAP1 SSTORE POP PUSH0 CALLER SWAP1 POP DUP1 PUSH20 0xFFFFFFFFFFFFFFFFFFFFFFFFFFFFFFFFFFFFFFFF AND PUSH2 0x8FC DUP6 SWAP1 DUP2 ISZERO MUL SWAP1 PUSH1 0x40 MLOAD PUSH0 PUSH1 0x40 MLOAD DUP1 DUP4 SUB DUP2 DUP6 DUP9 DUP9 CALL SWAP4 POP POP POP POP ISZERO DUP1 ISZERO PUSH2 0x284 JUMPI RETURNDATASIZE PUSH0 DUP1 RETURNDATACOPY RETURNDATASIZE PUSH0 REVERT JUMPDEST POP POP POP POP POP JUMP JUMPDEST DUP1 PUSH0 DUP1 CALLER PUSH20 0xFFFFFFFFFFFFFFFFFFFFFFFFFFFFFFFFFFFFFFFF AND PUSH20 0xFFFFFFFFFFFFFFFFFFFFFFFFFFFFFFFFFFFFFFFF AND DUP2 MSTORE PUSH1 0x20 ADD SWAP1 DUP2 MSTORE PUSH1 0x20 ADD PUSH0 KECCAK256 PUSH1 0x1 ADD DUP2 SWAP1 SSTORE POP POP JUMP JUMPDEST PUSH0 DUP1 PUSH0 DUP1 DUP5 PUSH20 0xFFFFFFFFFFFFFFFFFFFFFFFFFFFFFFFFFFFFFFFF AND PUSH20 0xFFFFFFFFFFFFFFFFFFFFFFFFFFFFFFFFFFFFFFFF AND DUP2 MSTORE PUSH1 0x20 ADD SWAP1 DUP2 MSTORE PUSH1 0x20 ADD PUSH0 KECCAK256 PUSH0 ADD SLOAD PUSH0 DUP1 DUP6 PUSH20 0xFFFFFFFFFFFFFFFFFFFFFFFFFFFFFFFFFFFFFFFF AND PUSH20 0xFFFFFFFFFFFFFFFFFFFFFFFFFFFFFFFFFFFFFFFF AND DUP2 MSTORE PUSH1 0x20 ADD SWAP1 DUP2 MSTORE PUSH1 0x20 ADD PUSH0 KECCAK256 PUSH1 0x1 ADD SLOAD SWAP2 POP SWAP2 POP SWAP2 POP SWAP2 JUMP JUMPDEST PUSH0 PUSH2 0x366 CALLER PUSH2 0x2D2 JUMP JUMPDEST POP SWAP1 POP PUSH0 DUP2 GT ISZERO PUSH2 0x3C4 JUMPI CALLVALUE DUP2 PUSH2 0x37D SWAP2 SWAP1 PUSH2 0x7FD JUMP JUMPDEST PUSH0 DUP1 CALLER PUSH20 0xFFFFFFFFFFFFFFFFFFFFFFFFFFFFFFFFFFFFFFFF AND PUSH20 0xFFFFFFFFFFFFFFFFFFFFFFFFFFFFFFFFFFFFFFFF AND DUP2 MSTORE PUSH1 0x20 ADD SWAP1 DUP2 MSTORE PUSH1 0x20 ADD PUSH0 KECCAK256 PUSH0 ADD DUP2 SWAP1 SSTORE POP PUSH2 0x408 JUMP JUMPDEST CALLVALUE PUSH0 DUP1 CALLER PUSH20 0xFFFFFFFFFFFFFFFFFFFFFFFFFFFFFFFFFFFFFFFF AND PUSH20 0xFFFFFFFFFFFFFFFFFFFFFFFFFFFFFFFFFFFFFFFF AND DUP2 MSTORE PUSH1 0x20 ADD SWAP1 DUP2 MSTORE PUSH1 0x20 ADD PUSH0 KECCAK256 PUSH0 ADD DUP2 SWAP1 SSTORE POP JUMPDEST POP JUMP JUMPDEST PUSH0 DUP1 PUSH2 0x416 CALLER PUSH2 0x2D2 JUMP JUMPDEST SWAP2 POP SWAP2 POP DUP3 DUP3 LT ISZERO PUSH2 0x45D JUMPI PUSH1 0x40 MLOAD PUSH32 0x8C379A000000000000000000000000000000000000000000000000000000000 DUP2 MSTORE PUSH1 0x4 ADD PUSH2 0x454 SWAP1 PUSH2 0x6F1 JUMP JUMPDEST PUSH1 0x40 MLOAD DUP1 SWAP2 SUB SWAP1 REVERT JUMPDEST DUP1 DUP4 GT PUSH2 0x49F JUMPI PUSH1 0x40 MLOAD PUSH32 0x8C379A000000000000000000000000000000000000000000000000000000000 DUP2 MSTORE PUSH1 0x4 ADD PUSH2 0x496 SWAP1 PUSH2 0x77F JUMP JUMPDEST PUSH1 0x40 MLOAD DUP1 SWAP2 SUB SWAP1 REVERT JUMPDEST DUP3 DUP3 PUSH2 0x4AB SWAP2 SWAP1 PUSH2 0x7CA JUMP JUMPDEST PUSH0 DUP1 CALLER PUSH20 0xFFFFFFFFFFFFFFFFFFFFFFFFFFFFFFFFFFFFFFFF AND PUSH20 0xFFFFFFFFFFFFFFFFFFFFFFFFFFFFFFFFFFFFFFFF AND DUP2 MSTORE PUSH1 0x20 ADD SWAP1 DUP2 MSTORE PUSH1 0x20 ADD PUSH0 KECCAK256 PUSH0 ADD DUP2 SWAP1 SSTORE POP PUSH0 DUP5 SWAP1 POP DUP1 PUSH20 0xFFFFFFFFFFFFFFFFFFFFFFFFFFFFFFFFFFFFFFFF AND PUSH2 0x8FC DUP6 SWAP1 DUP2 ISZERO MUL SWAP1 PUSH1 0x40 MLOAD PUSH0 PUSH1 0x40 MLOAD DUP1 DUP4 SUB DUP2 DUP6 DUP9 DUP9 CALL SWAP4 POP POP POP POP ISZERO DUP1 ISZERO PUSH2 0x534 JUMPI RETURNDATASIZE PUSH0 DUP1 RETURNDATACOPY RETURNDATASIZE PUSH0 REVERT JUMPDEST POP POP POP POP POP POP JUMP JUMPDEST PUSH0 DUP1 REVERT JUMPDEST PUSH0 PUSH20 0xFFFFFFFFFFFFFFFFFFFFFFFFFFFFFFFFFFFFFFFF DUP3 AND SWAP1 POP SWAP2 SWAP1 POP JUMP JUMPDEST PUSH0 PUSH2 0x569 DUP3 PUSH2 0x540 JUMP JUMPDEST SWAP1 POP SWAP2 SWAP1 POP JUMP JUMPDEST PUSH2 0x579 DUP2 PUSH2 0x55F JUMP JUMPDEST DUP2 EQ PUSH2 0x583 JUMPI PUSH0 DUP1 REVERT JUMPDEST POP JUMP JUMPDEST PUSH0 DUP2 CALLDATALOAD SWAP1 POP PUSH2 0x594 DUP2 PUSH2 0x570 JUMP JUMPDEST SWAP3 SWAP2 POP POP JUMP JUMPDEST PUSH0 PUSH1 0x20 DUP3 DUP5 SUB SLT ISZERO PUSH2 0x5AF JUMPI PUSH2 0x5AE PUSH2 0x53C JUMP JUMPDEST JUMPDEST PUSH0 PUSH2 0x5BC DUP5 DUP3 DUP6 ADD PUSH2 0x586 JUMP JUMPDEST SWAP2 POP POP SWAP3 SWAP2 POP POP JUMP JUMPDEST PUSH0 DUP2 SWAP1 POP SWAP2 SWAP1 POP JUMP JUMPDEST PUSH2 0x5D7 DUP2 PUSH2 0x5C5 JUMP JUMPDEST DUP3 MSTORE POP POP JUMP JUMPDEST PUSH0 PUSH1 0x40 DUP3 ADD SWAP1 POP PUSH2 0x5F0 PUSH0 DUP4 ADD DUP6 PUSH2 0x5CE JUMP JUMPDEST PUSH2 0x5FD PUSH1 0x20 DUP4 ADD DUP5 PUSH2 0x5CE JUMP JUMPDEST SWAP4 SWAP3 POP POP POP JUMP JUMPDEST PUSH2 0x60D DUP2 PUSH2 0x5C5 JUMP JUMPDEST DUP2 EQ PUSH2 0x617 JUMPI PUSH0 DUP1 REVERT JUMPDEST POP JUMP JUMPDEST PUSH0 DUP2 CALLDATALOAD SWAP1 POP PUSH2 0x628 DUP2 PUSH2 0x604 JUMP JUMPDEST SWAP3 SWAP2 POP POP JUMP JUMPDEST PUSH0 PUSH1 0x20 DUP3 DUP5 SUB SLT ISZERO PUSH2 0x643 JUMPI PUSH2 0x642 PUSH2 0x53C JUMP JUMPDEST JUMPDEST PUSH0 PUSH2 0x650 DUP5 DUP3 DUP6 ADD PUSH2 0x61A JUMP JUMPDEST SWAP2 POP POP SWAP3 SWAP2 POP POP JUMP JUMPDEST PUSH0 DUP1 PUSH1 0x40 DUP4 DUP6 SUB SLT ISZERO PUSH2 0x66F JUMPI PUSH2 0x66E PUSH2 0x53C JUMP JUMPDEST JUMPDEST PUSH0 PUSH2 0x67C DUP6 DUP3 DUP7 ADD PUSH2 0x586 JUMP JUMPDEST SWAP3 POP POP PUSH1 0x20 PUSH2 0x68D DUP6 DUP3 DUP7 ADD PUSH2 0x61A JUMP JUMPDEST SWAP2 POP POP SWAP3 POP SWAP3 SWAP1 POP JUMP JUMPDEST PUSH0 DUP3 DUP3 MSTORE PUSH1 0x20 DUP3 ADD SWAP1 POP SWAP3 SWAP2 POP POP JUMP JUMPDEST PUSH32 0x4E6F7420656E6F756768206D6F6E657900000000000000000000000000000000 PUSH0 DUP3 ADD MSTORE POP JUMP JUMPDEST PUSH0 PUSH2 0x6DB PUSH1 0x10 DUP4 PUSH2 0x697 JUMP JUMPDEST SWAP2 POP PUSH2 0x6E6 DUP3 PUSH2 0x6A7 JUMP JUMPDEST PUSH1 0x20 DUP3 ADD SWAP1 POP SWAP2 SWAP1 POP JUMP JUMPDEST PUSH0 PUSH1 0x20 DUP3 ADD SWAP1 POP DUP2 DUP2 SUB PUSH0 DUP4 ADD MSTORE PUSH2 0x708 DUP2 PUSH2 0x6CF JUMP JUMPDEST SWAP1 POP SWAP2 SWAP1 POP JUMP JUMPDEST PUSH32 0x5472616E73616374696F6E20626967676572207468616E20696E7374616C6C65 PUSH0 DUP3 ADD MSTORE PUSH32 0x64206C696D697400000000000000000000000000000000000000000000000000 PUSH1 0x20 DUP3 ADD MSTORE POP JUMP JUMPDEST PUSH0 PUSH2 0x769 PUSH1 0x27 DUP4 PUSH2 0x697 JUMP JUMPDEST SWAP2 POP PUSH2 0x774 DUP3 PUSH2 0x70F JUMP JUMPDEST PUSH1 0x40 DUP3 ADD SWAP1 POP SWAP2 SWAP1 POP JUMP JUMPDEST PUSH0 PUSH1 0x20 DUP3 ADD SWAP1 POP DUP2 DUP2 SUB PUSH0 DUP4 ADD MSTORE PUSH2 0x796 DUP2 PUSH2 0x75D JUMP JUMPDEST SWAP1 POP SWAP2 SWAP1 POP JUMP JUMPDEST PUSH32 0x4E487B7100000000000000000000000000000000000000000000000000000000 PUSH0 MSTORE PUSH1 0x11 PUSH1 0x4 MSTORE PUSH1 0x24 PUSH0 REVERT JUMPDEST PUSH0 PUSH2 0x7D4 DUP3 PUSH2 0x5C5 JUMP JUMPDEST SWAP2 POP PUSH2 0x7DF DUP4 PUSH2 0x5C5 JUMP JUMPDEST SWAP3 POP DUP3 DUP3 SUB SWAP1 POP DUP2 DUP2 GT ISZERO PUSH2 0x7F7 JUMPI PUSH2 0x7F6 PUSH2 0x79D JUMP JUMPDEST JUMPDEST SWAP3 SWAP2 POP POP JUMP JUMPDEST PUSH0 PUSH2 0x807 DUP3 PUSH2 0x5C5 JUMP JUMPDEST SWAP2 POP PUSH2 0x812 DUP4 PUSH2 0x5C5 JUMP JUMPDEST SWAP3 POP DUP3 DUP3 ADD SWAP1 POP DUP1 DUP3 GT ISZERO PUSH2 0x82A JUMPI PUSH2 0x829 PUSH2 0x79D JUMP JUMPDEST JUMPDEST SWAP3 SWAP2 POP POP JUMP INVALID LOG2 PUSH5 0x6970667358 0x22 SLT KECCAK256 0xF SWAP3 XOR 0x2D CODECOPY 0x2F 0xCB LOG0 0xC8 0xEB 0x2B 0xDE PUSH11 0xB77F9C19C1F5414DB6FFB3 SWAP8 0x24 PUSH27 0x30ECC7DC9864736F6C634300081A00330000000000000000000000 "
				},
				"gasEstimates": {
					"creation": {
						"codeDepositCost": "430000",
						"executionCost": "466",
						"totalCost": "430466"
					},
					"external": {
						"drawFromWallet(uint256)": "infinite",
						"getUserInfo(address)": "infinite",
						"sendFromWallet(address,uint256)": "infinite",
						"setMoneyLimit(uint256)": "22630",
						"setUserBalance()": "infinite",
						"wallet_users(address)": "infinite"
					}
				},
				"methodIdentifiers": {
					"drawFromWallet(uint256)": "067cdf19",
					"getUserInfo(address)": "6386c1c7",
					"sendFromWallet(address,uint256)": "b724de60",
					"setMoneyLimit(uint256)": "44a320fd",
					"setUserBalance()": "76e747e8",
					"wallet_users(address)": "01a10158"
				}
			},
			"storageLayout": {
				"storage": [
					{
						"astId": 11,
						"contract": "contracts/wallet.sol:wallet",
						"label": "wallet_users",
						"offset": 0,
						"slot": "0",
						"type": "t_mapping(t_address,t_struct(balanceStatus)6_storage)"
					}
				],
				"types": {
					"t_address": {
						"encoding": "inplace",
						"label": "address",
						"numberOfBytes": "20"
					},
					"t_mapping(t_address,t_struct(balanceStatus)6_storage)": {
						"encoding": "mapping",
						"key": "t_address",
						"label": "mapping(address => struct wallet.balanceStatus)",
						"numberOfBytes": "32",
						"value": "t_struct(balanceStatus)6_storage"
					},
					"t_struct(balanceStatus)6_storage": {
						"encoding": "inplace",
						"label": "struct wallet.balanceStatus",
						"members": [
							{
								"astId": 3,
								"contract": "contracts/wallet.sol:wallet",
								"label": "balance",
								"offset": 0,
								"slot": "0",
								"type": "t_uint256"
							},
							{
								"astId": 5,
								"contract": "contracts/wallet.sol:wallet",
								"label": "moneyLimit",
								"offset": 0,
								"slot": "1",
								"type": "t_uint256"
							}
						],
						"numberOfBytes": "64"
					},
					"t_uint256": {
						"encoding": "inplace",
						"label": "uint256",
						"numberOfBytes": "32"
					}
				}
			},
			"userdoc": {
				"kind": "user",
				"methods": {},
				"version": 1
			}
		}
	}
}